:100000000C94D1010C9400020C9400020C94000298
:100010000C9400020C9400020C9400020C94000258
:100020000C9400020C9400020C9400020C94820FB9
:100030000C9400020C9400020C9400020C94000238
:100040000C9400020C9400020C9400020C94000228
:100050000C9400020C9400020C9400020C94C4391D
:100060000C9400020C944E3C0C94223D0C94000223
:100070000C9400020C9400020C9400020C940002F8
:100080000C9400020C9400020C9400020C940002E8
:100090000C947B3C0C946D3D0C9400020C947043CA
:1000A0000C9400020C9400020C9400020C940002C8
:1000B0000C9400020C9400020C9400020C940002B8
:1000C0000C9400020C9400020C9400020C94A83CC6
:1000D0000C94B83D0C9400020C94D53C0C94033E57
:1000E0000C940002922D942D982DA62DB42DD62D72
:1000F000D62DD62DD62DD62DD62DD62DD62DD62DE8
:10010000D62DD62D092C0E2C252C4D2C882CA52C2B
:10011000BC2CCE2CE42CF32CF62C352D3A2D592D5D
:10012000D62D822DD62DD62DD62DD62D882DD62D59
:100130008D2DD62DD62DC62D036EDB363D9A999981
:10014000993DABAAAA2A3E000000803F084AD73B4F
:100150003BCE016E84BCBFFDC12F3D6C74319ABD96
:1001600056833DDA3D00C77F11BED9E4BB4C3E91BA
:100170006BAAAABE000000803F072C7AA5BA6CC506
:1001800090DA3B9365FC8BBC53F810FD3C56928390
:100190004DBD879D3AB63DCBC9BF5BBE73DA0FC973
:1001A0003F05A84CCDB2D44EB93836A9020C50B98F
:1001B000918688083CA6AAAA2ABE000000803F07B4
:1001C000634236B79BD8A71A39685618AEBAAB55F2
:1001D0008C1D3CB7CC5763BD6DEDFD753EF61772B7
:1001E00031BF000000803F08000000BE9224491289
:1001F0003EABAAAA2ABECDCCCC4C3E00000080BEAD
:10020000ABAAAAAA3E00000000BF000000803F0089
:1002100000000000084178D3BB4387D1133D190E7D
:100220003CC3BD4282AD2B3E68EC8276BED98FE1E5
:10023000A93E4C80EFFFBE01C4FF7F3F00000000DD
:100240000000002100240027002A002D0030003388
:100250000001010000040107010A0100002200253D
:100260000028002B002E00310034000201000005A0
:100270000108010B01000020002300260029002CAA
:10028000002F0032000001000003010601090105F2
:10029000050505070508080808020202020A0A08FF
:1002A0000804040404010101010101010103030325
:1002B0000303030303040707070C0C0C0C0C0C0CC2
:1002C0000C0202020206060606060606060B0B0BC9
:1002D0000B0B0B0B0B010210202008081020401004
:1002E00020408002010201080402010102040810FA
:1002F0002040808040201008040201800402018018
:100300004020100804020108040201010204081040
:1003100020408001020408102040800000090A02E9
:10032000080B0C0D0706030401000000000000008C
:1003300000000000000000000000000000000000BD
:100340000000000000000011100F0000000000007D
:10035000000000000000000000000000000000009D
:1003600000494E46494E4954594E414ECDCCCC3DA4
:100370000AD7233C17B7D13877CC2B329595E62492
:100380001FB14F0A000020410000C84200401C4637
:1003900020BCBE4CCA1B0E5AAEC59D74B435CC3EB3
:1003A000984211241FBECFEFD1E2DEBFCDBF14E0D3
:1003B000A0E0B2E0E2EAF7E900E00BBF02C007907C
:1003C0000D92A835B107D9F71DE0A8E5B4E001C04A
:1003D0001D92AA32B107E1F713E0C2EAD3E000E0D0
:1003E00006C022970109FE010BBF0E94004ACC39CA
:1003F000D10780E00807A9F70E94A23F0C94CF4BD9
:100400000C9400002F923F924F925F926F927F92D6
:100410008F929F92AF92BF92CF92DF92EF92FF9214
:100420000F931F93DF93CF93CDB7DEB72A970FB605
:10043000F894DEBF0FBECDBF5B016C0119012A012C
:100440001A870987609188047091890480918A04D1
:1004500090918B040E9448467B018C01E985FA85C6
:1004600020893189428953890E94CA4420E034E2BC
:1004700044E759E40E94AF4569837A838B839C8368
:10048000E985FA85E08AF18A028B138BC601B501F2
:10049000A20191010E94CA446D837E838F83988755
:1004A000B981AA811B810C812B2F3A2F412F502F0C
:1004B0000E948F47E985FA852489358946895789BD
:1004C0000E94CB448B01F82EE92EE985FA85A08C99
:1004D000B18CC28CD38C3501460197FA909497F871
:1004E00090949701712F832F922FA40193010E9462
:1004F000A84587FD0FC09701602F712F832F922F82
:10050000A60195010E94844718163CF48501FC2C35
:10051000ED2C03C08301F82CE92C9701802F912F3B
:10052000A32FBE2DE985FA85848B958BA68BB78B7F
:10053000C201B10124853585468557850E94CA448C
:10054000E985FA8520853185428553850E948F474C
:100550005B016C0159814A813B812C81652F742F8D
:10056000832F922F20E030E048EC52E40E948F4726
:100570009B01AC01C601B5010E94AF45662E972EC6
:10058000882E792EE985FA85248635864686578613
:100590005D814E813F812885652F742F832F922F97
:1005A00020813181428153810E948F475B016C0120
:1005B0009701602F712F832F9E2DE985FA85248165
:1005C0003581468157810E948F479B01AC01C6014E
:1005D000B5010E94CB44262D392D482D572D0E9460
:1005E000CB442A960FB6F894DEBF0FBECDBFCF9195
:1005F000DF911F910F91FF90EF90DF90CF90BF9010
:10060000AF909F908F907F906F905F904F903F90B2
:100610002F900895609188047091890480918A04D4
:1006200090918B040E94484620E030E0A90120937D
:10063000B7043093B8044093B9045093BA0460935C
:10064000B3047093B4048093B5049093B6042093DC
:10065000D3043093D4044093D5045093D6046093CC
:10066000CF047093D0048093D1049093D20420934C
:10067000EF043093F0044093F1045093F20460933C
:10068000EB047093EC048093ED049093EE042093BC
:100690000B0530930C0540930D0550930E056093A8
:1006A0000705709308058093090590930A05209328
:1006B0002705309328054093290550932A05609318
:1006C00023057093240580932505909326050895AE
:1006D0002F923F924F925F926F927F928F929F9252
:1006E000AF92BF92CF92DF92EF92FF920F931F9340
:1006F000DF93CF93CDB7DEB762970FB6F894DEBF26
:100700000FBECDBF6D877E878F87988B5A8B498BA5
:10071000DA012D903D904D905C90139714966D905A
:100720007D908D909C9017971896AD90BD90CD9030
:10073000DC901B9750962D913D914D915C91539774
:1007400029833A834B835C8354962D913D914D913F
:100750005C9157972D833E834F83588758962D91F0
:100760003D914D915C915B9729873A874B875C87D8
:1007700029E732E348EF5AE30E948F477B018C015F
:10078000C201B10125ED31E841E15BEB0E948F47E9
:100790009B01AC01C801B7010E94CB447B018C01D5
:1007A000C401B3012AE13BE14EE55BE30E948F47C0
:1007B0009B01AC01C801B7010E94CB447B018C01B5
:1007C000C601B50125ED31E841E15BEB0E948F47A1
:1007D0009B01AC01C801B7010E94CB447B018C0195
:1007E000E989FA89648575858685978529E732E3E5
:1007F00048EF5AE30E948F479B01AC01C801B70143
:100800000E94CB447B018C0169817A818B819C8120
:1008100028E33FE247E550E40E948F479B01AC018B
:10082000C801B7010E94CB447B018C016D817E81A0
:100830008F81988520E23BE049E850E40E948F4791
:100840009B01AC01C801B7010E94CA447B018C0125
:1008500069857A858B859C852AE037E74CE150E4F1
:100860000E948F479B01AC01C801B7010E94CB4495
:100870007B018C01A989BA895C966D917D918D91DE
:100880009C915F972CE433EF46E05FE30E948F4733
:100890009B01AC01C801B7010E94CA44E989FA89E9
:1008A000A486B586C686D78660867186828693863C
:1008B00024823582468257822D853E854F85588910
:1008C000208331834283538329853A854B855C8518
:1008D000248F358F468F578F2D813E814F815885CC
:1008E000208F318F428F538F29813A814B815C81D8
:1008F000248B358B468B578B262F372F482F592F1C
:10090000E989FA89208B318B428B538B62960FB623
:10091000F894DEBF0FBECDBFCF91DF911F910F9135
:10092000FF90EF90DF90CF90BF90AF909F908F900F
:100930007F906F905F904F903F902F90089580E050
:1009400090E0DC018093BF059093C005A093C105A2
:10095000B093C2058093C3059093C405A093C505C9
:10096000B093C6058093C7059093C805A093C905A9
:10097000B093CA058093CB059093CC05A093CD0589
:10098000B093CE058093CF059093D005A093D10569
:10099000B093D2058093D3059093D405A093D50549
:1009A000B093D6058093D7059093D805A093D90529
:1009B000B093DA058093DB059093DC05A093DD0509
:1009C000B093DE058093DF059093E005A093E105E9
:1009D000B093E2058093E3059093E405A093E505C9
:1009E000B093E6058093E7059093E805A093E905A9
:1009F000B093EA058093EB059093EC05A093ED0589
:100A0000B093EE058093EF059093F005A093F10568
:100A1000B093F2058093F3059093F405A093F50548
:100A2000B093F6058093F7059093F805A093F90528
:100A3000B093FA058093FB059093FC05A093FD0508
:100A4000B093FE058DE697EEACE1B1EC8093FF0527
:100A500090930006A0930106B093020680930306CC
:100A600090930406A0930506B093060680930706AC
:100A700090930806A0930906B0930A0680930B068C
:100A800090930C06A0930D06B0930E0680930F066C
:100A900090931006A0931106B0931206809313064C
:100AA00090931406A0931506B0931606809317062C
:100AB00090931806A0931906B0931A0680931B060C
:100AC00090931C06A0931D06B0931E06089589E618
:100AD00090E00E944436893689F480913F069091D7
:100AE0004006A0914106B0914206816080933F0686
:100AF00090934006A0934106B093420689ED93E29D
:100B0000AFE9BAE38093610690936206A09363060F
:100B1000B093640689E690E06EE340E80E946A368E
:100B200089E690E066E14DE10E946A3689E690E050
:100B30006EE341E00E946A360895EF92FF920F93B0
:100B40001F93CF93DF93C5E5D6E0E880F9800A8153
:100B50001B810E940436AA2797FDA095BA2F8E0DFF
:100B60009F1DA01FB11F89939993A993B99386E004
:100B7000C136D80751F7DF91CF911F910F91FF90A8
:100B8000EF90089589E690E06DE10E94BF3580EB1B
:100B90009CE069E670E046E050E00E9478420E94E6
:100BA0009D0580916D068F5F80936D060895CF93AC
:100BB000DF93EC0120916D0630E040E050E0609161
:100BC00055067091560680915706909158060E94DE
:100BD000D14980914F0690915006281B390B3983DB
:100BE000288320916D0630E040E050E06091590686
:100BF00070915A0680915B0690915C060E94D149E3
:100C00008091510690915206821B930B9B838A839D
:100C100020916D0630E040E050E060915D067091FB
:100C20005E0680915F06909160060E94D149809196
:100C3000530690915406821B930B9D838C83DF9106
:100C4000CF9108958F929F92AF92BF92CF92DF92F1
:100C5000EF92FF920F931F93DF93CF9300D000D0BA
:100C600000D0CDB7DEB76E010894C11CD11CC601FF
:100C70000E94D705109255061092560610925706FC
:100C8000109258061092590610925A0610925B065E
:100C900010925C0610925D0610925E0610925F063E
:100CA0001092600610926D0633E4A32E36E0B32E48
:100CB00027E0822E912C8C0E9D1EF6016191719180
:100CC0006F01882777FD8095982F0E944A462091D2
:100CD00061063091620640916306509164060E945D
:100CE0008F47F5012081318142815381E0900E03CD
:100CF000F0900F0300911003109111030E949036A1
:100D0000F50161937193819391935F01C814D904A4
:100D1000A1F60E940C3A5B016C01E0904B06F0904A
:100D20004C0600914D0610914E06C801B70125E30F
:100D30003AEF4EE85CE30E948447181654F0C8016D
:100D4000B70125E33AEF4EE85CEB0E94A84587FF28
:100D500032C08091690690916A06A0916B06B091AD
:100D60006C06A6019501281B390B4A0B5B0BCA01C7
:100D7000B9010E94484620E034E244E759E40E9469
:100D8000AF459B01AC01C801B7010E948F479B0191
:100D9000AC0160916506709166068091670690913E
:100DA00068060E94CB446093650670936606809344
:100DB000670690936806A0926906B0926A06C09290
:100DC0006B06D0926C0626960FB6F894DEBF0FBE67
:100DD000CDBFCF91DF911F910F91FF90EF90DF90EA
:100DE000CF90BF90AF909F908F900895AF92BF9299
:100DF000CF92DF92EF92FF920F931F93DF93CF93E7
:100E0000CDB7DEB7C356D0400FB6F894DEBF0FBEE5
:100E1000CDBF5FE4C52E56E0D52E2DE17E010894AE
:100E2000E11CF11C43E6A42EB12CAC0EBD1E2BC060
:100E300089E690E0622FA4962FAFA4970E94BF3559
:100E400089E690E00E94FA35F801819391938F0131
:100E50006AE070E080E090E00E94323AA4962FAD04
:100E6000A4970A151B0521F7C70161E370E00E94F2
:100E70005539F601819391936F01A4962FADA497F4
:100E80002E5F233211F08701D3CFCD59DF4F0FB63C
:100E9000F894DEBF0FBECDBFCF91DF911F910F91B0
:100EA000FF90EF90DF90CF90BF90AF90089580E4D7
:100EB00090E00E944436833089F480913F069091FF
:100EC0004006A0914106B0914206826080933F06A1
:100ED00090934006A0934106B093420680E490E0D0
:100EE00060E146EB0E946A366AE070E080E090E0E4
:100EF0000E94323A80E490E06DE040E10E946A3660
:100F000080E490E060E20E94BF3580E490E00E94BF
:100F1000D535482F4F7780E490E060E20E946A3632
:100F200080E490E065E30E94BF3580E490E00E9499
:100F3000D535482F417F486080E490E065E30E940A
:100F40006A360895EF92FF920F931F93CF93DF932A
:100F500080E490E062E00E94BF3580EB9CE060E4BA
:100F600070E046E050E00E947842C6E9D6E0E880B2
:100F7000F9800A811B810E94073695958795959582
:100F80008795AA2797FDA095BA2F8E0D9F1DA01FAC
:100F9000B11F89939993A993B99386E0C23AD80770
:100FA00031F78091A2068F5F8093A206DF91CF91E7
:100FB0001F910F91FF90EF9008952F923F924F92C3
:100FC0005F926F927F928F929F92AF92BF92CF92D9
:100FD000DF92EF92FF921F93DF93CF9300D000D068
:100FE00000D0CDB7DEB78091A206282F30E040E0D8
:100FF00050E029833A834B835C8386E996E02EE6B2
:10100000E22E26E0F22E1AE7C12E16E0D12EBAE823
:10101000AB2EB6E0BB2E10E09E838D83F70161906E
:101020007190819091907F01F601219031904190D3
:1010300051906F01ED81FE81608171818281938188
:1010400029813A814B815C810E94D149CA01B90151
:101050000E944A46A40193010E948F47A201910178
:101060000E94CB44F50161937193819391935F0149
:10107000ED81FE811192119211921192FE83ED8306
:101080001F5F133059F61092A20626960FB6F894F9
:10109000DEBF0FBECDBFCF91DF911F91FF90EF90CC
:1010A000DF90CF90BF90AF909F908F907F906F9088
:1010B0005F904F903F902F900895AF92BF92CF9244
:1010C000DF92EF92FF920F931F93CF93DF93C0E0D5
:1010D000D0E007C00E94A20784EC99E00E94593A30
:1010E000219681E0C039D807A9F7CEE6D6E03AE8E4
:1010F000E32E36E0F32E06E916E0A990B990C990E8
:10110000D990F80160817181828193810E944A4661
:1011100020E030E048EC53E40E94AF45A601950181
:101120000E948F47F70161937193819391937F019F
:10113000F80111921192119211928F01F6E0CA37C3
:10114000DF07D9F61092A20680918A0690918B064D
:10115000A0918C06B0918D06B05880937A0690933A
:101160007B06A0937C06B0937D0680918E069091BD
:101170008F06A0919006B0919106B05880937E069C
:1011800090937F06A0938006B0938106E09092062C
:10119000F090930600919406109195066DE677EE17
:1011A0008CE191ECA80197010E94CA44C72ED82E69
:1011B000A92E762F272F3C2D4D2D5A2D20938206B8
:1011C000309383064093840650938506C801B70187
:1011D0000E94CB44E62EF72E082F192F20E030E096
:1011E000A9010E948447181624F017FB109517F9DF
:1011F0001095E0928606F092870600938806109379
:101200008906DF91CF911F910F91FF90EF90DF90B2
:10121000CF90BF90AF90089584E061E00E94393B89
:1012200084E060E00E945D3B8FE161E00E94393B19
:101230008FE160E00E945D3B81E260E00E94393B0B
:1012400082E260E00E94393B83E260E00E94393B29
:101250008BE261E00E94393B8CE261E00E94393B05
:101260008DE261E00E94393B8EE261E00E94393BF1
:101270008BE261E00E945D3B8CE261E00E945D3B9D
:101280008DE261E00E945D3B8EE261E00E945D3B89
:1012900080EB9CE00E9460428CE08093B80008954F
:1012A0000E94A2070E94C205089580E090E0DC0140
:1012B0008093A3069093A406A093A506B093A606D8
:1012C0008093A7069093A806A093A906B093AA06B8
:1012D0008093AB069093AC06A093AD06B093AE0698
:1012E0008093AF069093B006A093B106B093B20678
:1012F0008093B3069093B406A093B506B093B60658
:1013000008952F923F924F925F926F927F928F92A9
:101310009F92AF92BF92CF92DF92EF92FF920F9384
:101320001F93DF93CF93CDB7DEB7C855D0400FB62C
:10133000F894DEBF0FBECDBF69837A838B839C8315
:101340002D833E834F835887E986FA860B871C8757
:101350000BE017E083E090E0B801AE014F5F5F4F14
:101360002FEF36E00E94213883E090E067EB76E0D3
:10137000A80123EF36E00E9421380F2EF0E02F2E37
:10138000F0E03F2EF0E04F2EF0E05F2EF02D29AA86
:101390003AAA4BAA5CAA3501460197FA909497F8AD
:1013A0009094E090BF06F090C0060091C1061091A5
:1013B000C206C401B301A80197010E948F476DAB1B
:1013C0007EAB8FAB98AF8091BB069091BC06A0918D
:1013D000BD06B091BE0669968CAF9DAFAEAFBFAFF4
:1013E0006997C601B50169962CAD3DAD4EAD5FADB7
:1013F00069970E948F4769AF7AAF8BAF9CAFC601E8
:10140000B501A80197010E948F47FE01FD966083F8
:10141000718382839383FE01EF5BFF4F20823182D1
:1014200042825382E090B706F090B8060091B90668
:101430001091BA06C401B301A80197010E948F4719
:10144000FE01EB5BFF4F6083718382839383C40152
:10145000B30169962CAD3DAD4EAD5FAD69970E946D
:101460008F47FE01E75BFF4F608371838283938325
:10147000C601B501A80197010E948F47FE01E35BF9
:10148000FF4F6083718382839383FE01EF5AFF4F86
:101490002082318242825382ADE0CA2ED12CCC0E02
:1014A000DD1EFFECAF2EF6E0BF2E83E090E063E0A0
:1014B00070E043E050E096018501E1E3EE2EF12C6F
:1014C000EC0EFD1E0E94583883E090E063E070E06F
:1014D000A501950186010E941A39C85ADF4F0FB63F
:1014E000F894DEBF0FBECDBFCF91DF911F910F915A
:1014F000FF90EF90DF90CF90BF90AF909F908F9034
:101500007F906F905F904F903F902F9008958F92B3
:101510009F92AF92BF92CF92DF92EF92FF920F9382
:101520001F93DF93CF93CDB7DEB7A4970FB6F89490
:10153000DEBF0FBECDBF83E090E06FEC76E04BEDF9
:1015400056E00E94E736905820E030E040E05FE34C
:101550000E948F47B62EA72E982E892E83E090E00A
:101560006E010894C11CD11CB6014BED56E0D501AB
:10157000F4010B2F1A2F2F2F3E2F0E94B3372DE08F
:10158000E22EF12CEC0EFD1E83E090E0B7014FEC53
:1015900056E0D501F4010B2F1A2F2F2F3E2F0E945A
:1015A000B33786E090E0B601A6012FEC36E00E944A
:1015B000EA37CE014996B601A7010E943237EE24E0
:1015C000FF2446018701000F111F0E0D1F1D000F84
:1015D000111F000F111F6401C00ED11E83E090E0A7
:1015E000B601A6010E94E7369B01AC01BFECAB2E11
:1015F000B6E0BB2EA00EB11E60E070E080E490E487
:101600000E94CA4420E030E040E05FE30E948F4740
:101610008B019C0183E090E0B501A6010E94B337E5
:101620000894E11CF11C83E0E816F10459F6A49635
:101630000FB6F894DEBF0FBECDBFCF91DF911F91E3
:101640000F91FF90EF90DF90CF90BF90AF909F9061
:101650008F9008952F923F924F925F926F927F9258
:101660008F929F92AF92BF92CF92DF92EF92FF92B2
:101670000F931F93DF93CF93CDB7DEB7EC970FB6E1
:10168000F894DEBF0FBECDBF3B014C0119012A010A
:1016900069837A838B839C832D833E834F83588712
:1016A000E986FA860B871C87A40193010E948F4765
:1016B0003B014C01C201B101A20191010E948F477F
:1016C0009B01AC01C401B3010E94CB443B014C011E
:1016D000C801B701A80197010E948F479B01AC0187
:1016E000C401B3010E94CB440E944848A601950161
:1016F0000E94AF459B01AC0160E070E080E89FE391
:101700000E94CA446B017C017D2D9F2D20E030E0BA
:10171000A9010E9484471816D4F46C2D7D2D8E2DBE
:101720009F2D2C2D3D2D4E2D5F2D0E94CB449B01D6
:10173000AC0160E070E080E89FE30E94CA4420E0D2
:1017400030E0A9010E94A84587FF19C075C06C2D23
:101750007D2D8E2D9F2D2C2D3D2D4E2D5F2D0E94EC
:10176000CB4420E030E040E85FE30E94CB4420E03F
:1017700030E0A9010E94A84587FF1DC05DC06C2D07
:101780007D2D8E2D9F2D2C2D3D2D4E2D5F2D0E94BC
:10179000CB449B01AC0160E070E080E89FE30E94D5
:1017A000CA4420E030E040E85FE30E948447181616
:1017B0000CF447C019C06C2D7D2D8E2D9F2D2C2D26
:1017C0003D2D4E2D5F2D0E94CB4420E030E040E8BF
:1017D0005FE30E94CB4420E030E040E85FE30E94FA
:1017E0008447181674F113C06C2D7D2D8E2D9F2DFE
:1017F0002C2D3D2D4E2D5F2D0E94CB449B01AC0125
:1018000060E070E080E89FE30E94CA4410C06C2D45
:101810007D2D8E2D9F2D2C2D3D2D4E2D5F2D0E942B
:10182000CB4420E030E040E85FE30E94CB44F62E5A
:10183000E72ED82EC92E0BC0FF24EE24DD24CC24A5
:1018400006C0FF24EE24E0E8DE2E7FE3C72E6DE025
:10185000662E712C6C0E7D1EC301BE016F5F7F4F23
:1018600047EE56E00E943237A7019601652F7E2D84
:10187000832F9C2D2091170730911807409119074D
:1018800050911A070E948F478B019C0183E090E0E2
:1018900063EF76E0A3010E94B33751E3252E312C8C
:1018A0002C0E3D1EA7019601652F7E2D832F9C2DAA
:1018B00020911B0730911C0740911D0750911E0776
:1018C0000E948F478B019C0183E090E0B101A3014E
:1018D0000E94B33783E090E06FEF76E0AB019101B7
:1018E0000E94EA3749E1C42ED12CCC0EDD1E699648
:1018F0006CAD7DAD8EAD9FAD69972091CF063091D7
:10190000D0064091D1065091D2060E948F477B01AC
:101910008C0165966CAD7DAD8EAD9FAD65972091C8
:10192000DB063091DC064091DD065091DE060E9418
:101930008F479B01AC01C801B7010E94CA448B01CB
:101940009C0183E090E0B60147EE56E00E94B33779
:1019500035E2E32EF12CEC0EFD1E00911F071091D5
:101960002007209121073091220783E090E0B70102
:10197000A6010E94B33783E090E063EF76E0AB010D
:1019800097010E94EA3700912307109124072091C4
:1019900025073091260783E090E0B101A6010E945F
:1019A000B33783E090E06FEF76E0AB0191010E94E6
:1019B000EA37EC960FB6F894DEBF0FBECDBFCF91DD
:1019C000DF911F910F91FF90EF90DF90CF90BF902C
:1019D000AF909F908F907F906F905F904F903F90CF
:1019E0002F9008956091EB067091EC068091ED06C2
:1019F0009091EE062091EF063091F0064091F106AD
:101A00005091F2060E9455456093A3067093A40678
:101A10008093A5069093A6066091E7067091E8066C
:101A20008091E9069091EA060E942F4590586093B4
:101A3000A7067093A8068093A9069093AA066091C2
:101A4000DB067091DC068091DD069091DE06209128
:101A5000CF063091D0064091D1065091D2060E9417
:101A600055456093AB067093AC068093AD0690939A
:101A7000AE060895AF92BF92CF92DF92EF92FF929F
:101A80000F931F93DF93CF93CDB7DEB72C970FB68D
:101A9000F894DEBF0FBECDBF69837A838B839C83AE
:101AA0002D833E834F835887E986FA860B871C87F0
:101AB0000FEC16E083E090E0B8017E010894E11C91
:101AC000F11CA7010E94E7366093C3067093C40619
:101AD0008093C5069093C606B801645F7F4F83E08C
:101AE00090E0A7010E94E7366093C7067093C8068E
:101AF0008093C9069093CA06B801685E7F4F83E061
:101B000090E0A7010E94E736A60195010E94CB4410
:101B10006093CB067093CC068093CD069093CE064F
:101B20002C960FB6F894DEBF0FBECDBFCF91DF91DC
:101B30001F910F91FF90EF90DF90CF90BF90AF90EB
:101B40000895AF92BF92CF92DF92EF92FF920F93E0
:101B50001F935B016C0179018A010E94550980E0A5
:101B600090E0DC018093F3069093F406A093F506D1
:101B7000B093F6068093FF0690930007A0930107A9
:101B8000B09302078093F7069093F806A093F906A6
:101B9000B093FA068093030790930407A093050778
:101BA000B09306078093FB069093FC06A093FD0676
:101BB000B093FE068093070790930807A093090748
:101BC000B0930A07A092CF06B092D006C092D10679
:101BD000D092D206A801970150582093D306309393
:101BE000D4064093D5065093D6068093D70690939B
:101BF000D806A093D906B093DA06E092DB06F092FD
:101C0000DC060093DD061093DE06A092DF06B0929C
:101C1000E006C092E106D092E2068093E30690933C
:101C2000E406A093E506B093E6068093E70690935A
:101C3000E806A093E906B093EA068093EB0690933A
:101C4000EC06A093ED06B093EE0680E090E0A0E8ED
:101C5000BFE38093EF069093F006A093F106B09354
:101C6000F2068DEC9CECACECBDE3809317079093EF
:101C70001807A0931907B0931A0787E197EBA1E51E
:101C8000B9E380931B0790931C07A0931D07B093A3
:101C90001E078DEC9CECACECBDEB80931F07909382
:101CA0002007A0932107B093220787E197EBA1E5D6
:101CB000B9EB8093230790932407A0932507B09353
:101CC00026071F910F91FF90EF90DF90CF90BF906C
:101CD000AF9008952F923F924F925F926F927F92B2
:101CE0008F929F92AF92BF92CF92DF92EF92FF922C
:101CF0000F931F93DF93CF93CDB7DEB73501460126
:101D0000298C3A8C4B8C5C8CA9A4BAA4CBA4DCA4FF
:101D10000E9481090E94870A8DB79EB708970FB667
:101D2000F8949EBF0FBE8DBF89A19AA1ABA1BCA1A3
:101D3000EDB7FEB781839283A383B4838DA19EA167
:101D4000AFA1B8A585839683A783B087C401B301EB
:101D50002D893E894F89588D82017101AD8CBE8CD1
:101D6000CF8CD8A00E942A0B8DB79EB708960FB6CD
:101D7000F8949EBF0FBE8DBF0E94F20CC401B30148
:101D80002D893E894F89588DAD8CBE8CCF8CD8A0C3
:101D90000E943A0DCF91DF911F910F91FF90EF902C
:101DA000DF90CF90BF90AF909F908F907F906F907B
:101DB0005F904F903F902F900895909328078093C5
:101DC00027072CED35E030934407209343073093E9
:101DD000460720934507309348072093470728EE8E
:101DE00033E030934A072093490730934C07209300
:101DF0004B0730934E0720934D07309350072093A5
:101E00004F07309352072093510740E021E030E024
:101E100007C0EE0FFF1FED5AF84F318320834F5F4D
:101E2000E42FF0E0E817F907A4F32CED35E0309348
:101E30003E0720933D073093400720933F073093A0
:101E400042072093410760E020E030E040E85FE394
:101E50000BC0EE0FFF1FEE0FFF1FED59F84F208351
:101E60003183428353836F5FE62FF0E0E817F90771
:101E700084F360E020E030E040E85FE30BC0EE0F69
:101E8000FF1FEE0FFF1FED57F84F20833183428372
:101E900053836F5FE62FF0E0E817F90784F360E003
:101EA00020E030E040E85FE30BC0EE0FFF1FEE0FD5
:101EB000FF1FED55F84F20833183428353836F5FBB
:101EC000E62FF0E0E817F90784F3089590E0880F13
:101ED000991FFC01ED5BF84F835C984F6081718125
:101EE000FC0180819181681B790B882777FD8095A3
:101EF000982F0E944A462BE037ED43EA5BE30E94AD
:101F00008F4708951F920F920FB60F920BB60F9244
:101F100011245F926F927F928F929F92AF92BF92A5
:101F2000CF92DF92EF92FF920F931F932F933F93E5
:101F30004F935F936F937F938F939F93AF93BF93D1
:101F4000CF93DF93EF93FF93EBE8F2E085919491C9
:101F5000FC0180811091C10918278093C1098091EB
:101F60006D00182309F479C00E940C3AA0E0B0E09B
:101F700021E0622E712CCBE0D0E000E2802E01ED5A
:101F8000902E0FEFA02E0FEFB02E552453949301F7
:101F90000A2E02C0220F331F0A94E2F7322F312398
:101FA00009F456C03091C109322339F1AC9FF001D8
:101FB000AD9FF00DBC9FF00D1124E25AF64F258124
:101FC0003681478150856183728383839483750151
:101FD0006401C21AD30AE40AF50AA7019601260F82
:101FE000371F481F591F213E0EE2300700E040070F
:101FF00000E0500760F550822BC0AC9FF001AD9F10
:10200000F00DBC9FF00D1124E25AF64F2181328170
:10201000438154816B017C01C21AD30AE40AF50A98
:102020006583768387839087A7019601265B33407B
:1020300040405040263604E0300700E0400700E012
:10204000500730F42081213019F4D286C1861082E5
:102050001196A830B10509F09ACFFF91EF91DF9169
:10206000CF91BF91AF919F918F917F916F915F9130
:102070004F913F912F911F910F91FF90EF90DF9023
:10208000CF90BF90AF909F908F907F906F905F9018
:102090000F900BBE0F900FBE0F901F9018950E94CF
:1020A000DD0E109207011092080120916D0081E071
:1020B00090E00090270702C0880F991F0A94E2F76A
:1020C0008150822B80936D008091680084608093A2
:1020D0006800409127075091280760E02BE030E02E
:1020E00010C0815D9B4FFC01808190E0829FF001D8
:1020F000839FF00D929FF00D1124E25AF64F10824B
:102100006F5F862F90E0841795075CF30895EFE2E8
:10211000F4E0E80FF11D20814FB7F89430E08BE038
:1021200090E0289FF001299FF00D389FF00D1124B9
:10213000E25AF64F218532854FBFC90108952F928B
:102140003F924F925F926F927F928F929F92AF9247
:10215000BF92CF92DF92EF92FF920F931F93CF9394
:10216000DF93DD2453C08E01000F111F000F111FDC
:10217000F801ED59F84F80809180A280B3808D2DB9
:102180000E9487109C01B901882777FD8095982FC0
:102190000E944A469B01AC01C501B4010E948F47D1
:1021A000F801ED57F84F20813181428153810E941F
:1021B000CB440E941746CC0FDD1FFE01E35DF84FB4
:1021C00071836083882777FD8095982F0E944A4607
:1021D0004B015C01CD5AD84F68817981882777FD02
:1021E0008095982F0E944A469B01AC01F801ED555D
:1021F000F84FE080F18002811381C501B4010E9493
:1022000090360E94174679836883D394CD2DD0E011
:102210006090270770902807C615D7050CF4A3CF48
:102220002090290730902A0740902B0750902C07C8
:10223000C3E5D7E05DE3E52E57E0F52E43E4C42E79
:1022400047E0D42E69917991D7010D911D917D01BF
:10225000601B710B882777FD8095982F0E944A4656
:10226000A20191010E948F474B015C01B8018827B0
:1022700077FD8095982F0E944A469B01AC01C501CD
:10228000B4010E94CB440E941746F60161937193FA
:102290006F01F7E0C935DF07A9F623E00EC0880F0C
:1022A000991FFC01ED5BF84F8D5A984FDC018D9121
:1022B0009C911197918380832F5F822F90E08615E8
:1022C00097056CF3DF91CF911F910F91FF90EF90E5
:1022D000DF90CF90BF90AF909F908F907F906F9046
:1022E0005F904F903F902F9008958091C5079091F7
:1022F000C607880F991F90939B0080939A00809146
:10230000C7079091C807880F991F90939D008093ED
:102310009C008091C9079091CA07880F991F9093DC
:102320009900809398008091CB079091CC07880FFB
:10233000991F9093A9008093A80080911203909117
:1023400013038630910519F08830910559F52091D5
:10235000CD073091CE07220F331F3093AB0020936F
:10236000AA002091CF073091D007220F331F30935E
:10237000AD002093AC0088309105A1F48091D10785
:102380009091D207880F991F9093890080938800BD
:102390008091D3079091D407880F991F90938B0059
:1023A00080938A000895880F991F90939B008093D3
:1023B0009A0090939D0080939C0090939900809345
:1023C00098009093A9008093A80020911203309167
:1023D00013032630310519F02830310599F4909314
:1023E000AB008093AA009093AD008093AC0028309E
:1023F000310541F4909389008093880090938B007D
:1024000080938A00089590931303809312032DB153
:1024100028632DB98430910521F4809101018860F1
:1024200006C08630910531F4809101018863809364
:1024300001010BC08830910541F48091010188634E
:102440008093010184B1806684B988EE93E00E9494
:10245000D3118AEA809390004AE1409391002AE0E8
:102460003AE1309397002093960080911203909167
:1024700013038430910551F482E88093A0004093C7
:10248000A1003093A7002093A60012C086309105CA
:1024900019F08830910561F48AEA8093A0008AE1FE
:1024A0008093A1008AE09AE19093A7008093A60010
:1024B00080911203909113038830910561F482EAB0
:1024C000809380008AE1809381008AE09AE1909372
:1024D00087008093860008950F931F93082F10E0C4
:1024E00015C08CE494E00E94D3116AEF70E080E0A4
:1024F00090E00E94323A88EE93E00E94D3116AEF96
:1025000070E080E090E00E94323A1F5F101748F3BD
:102510001F910F910895882349F47091D507609118
:10252000D6079091D7078091D80708C07091D90736
:102530006091DA079091DB078091DC07AB019C0189
:10254000652F742F832F922F0895CF93DF93EC0183
:102550000E9404369C01B901882777FD8095982F49
:102560000E944A46688379838A839B830E9404364B
:1025700066277727681B790B882777FD8095982F2A
:102580000E944A466C837D838E839F830E9404361B
:1025900066277727681B790B882777FD8095982F0A
:1025A0000E944A46688779878A879B87DF91CF9107
:1025B00008952F923F924F925F926F927F928F92E7
:1025C0009F92AF92BF92CF92DF92EF92FF920F93C2
:1025D0001F93DF93CF93CDB7DEB766970FB6F8940E
:1025E000DEBF0FBECDBF7B018C0159016A018EE1B8
:1025F00090E063E00E94BF3580EB9CE06EE170E00C
:1026000046E050E00E94784289EE97E00E94A512D1
:102610008EE190E062E041E00E946A366091E90755
:102620007091EA078091EB079091EC072091F507F4
:102630003091F6074091F7075091F8070E94CB447C
:10264000562E472E382E292EA2019101852F942F28
:10265000A32FB22F8093DD079093DE07A093DF07AF
:10266000B093E0076091ED077091EE078091EF075E
:102670009091F0072091F9073091FA074091FB07FC
:102680005091FC070E94CB4469837D8389879A8798
:10269000472F382F292F862F942FA32FB22F8093C7
:1026A000E1079093E207A093E307B093E4076091FA
:1026B000F1077091F2078091F3079091F407209150
:1026C000FD073091FE074091FF07509100080E94DE
:1026D000CB446B877C878D879E87472F382F292F88
:1026E000862F942FA32FB22F8093E5079093E607B0
:1026F000A093E707B093E807C801B7010E94AC4573
:102700006F87788B898B9A8BC801B7010E943E48EE
:102710006B8B7C8B8D8B9E8BC601B5010E94AC456B
:102720003B014C01C601B5010E943E487B018C0172
:10273000A2019101652F742F832F922FA401930181
:102740000E948F475B016C0159814D8139852A8533
:10275000652F742F832F922F2B893C894D895E8999
:102760000E948F47A80197010E948F479B01AC01EF
:10277000C601B5010E94CB445B016C015B854C85B1
:102780003D852E85652F742F832F922F2F853889B5
:1027900049895A890E948F47A80197010E948F4753
:1027A0009B01AC01C601B5010E94CB44662ED72E19
:1027B000582EC92E59814D8139852A85652F742F50
:1027C000832F922F2F85388949895A890E948F47F4
:1027D0007B018C015B854C853D852E85652F742F93
:1027E000832F922F2B893C894D895E890E948F47C8
:1027F0009B01AC01C801B7010E94CA44162FA72E45
:10280000E82E092F862F9A2DAE2DB02F89839A831B
:10281000AB83BC83662D7D2D852D9C2D262D3D2DD6
:10282000452D5C2D0E948F476D837E838F83988713
:10283000612F7A2D8E2D902F212F3A2D4E2D502F36
:102840000E948F479B01AC016D817E818F819885AD
:102850000E94CB440E9448487B018C01662D7D2D4F
:10286000852D9C2DA80197010E94AF456093D50747
:102870007093D6078093D7079093D80769817A81A0
:102880008B819C819058A80197010E94AF4560936D
:10289000D9077093DA078093DB079093DC0766967D
:1028A0000FB6F894DEBF0FBECDBFCF91DF911F9161
:1028B0000F91FF90EF90DF90CF90BF90AF909F90DF
:1028C0008F907F906F905F904F903F902F900895E2
:1028D0006AE070E080E090E00E94323A8EE190E0A1
:1028E0000E944436803189F480913F0690914006E1
:1028F000A0914106B0914206846080933F06909378
:102900004006A0934106B09342068EE190E061E05C
:1029100040E20E946A3664E170E080E090E00E944C
:10292000323A8EE190E062E041E00E946A3664E172
:1029300070E080E090E00E94323A60E070E0CB010D
:102940009B01AC010E94D912089560910108709119
:1029500002088091030890910408209109083091A1
:102960000A0840910B0850910C080E94CA4408952F
:10297000409118034295440F440F407C4C5C87E71C
:1029800090E064EF0E946A360895EF92FF920F93F1
:102990001F93CF93DF9387E790E066EF0E94BF35E8
:1029A000C0EBDCE0CE0167E770E043E050E00E945E
:1029B0007842CE010E94D9417C01CE010E94D941CA
:1029C0008C01CE010E94D9419701442737FD4095E3
:1029D000542FA90133272227B8017B010027F7FCD8
:1029E0000095102F102F0F2DFE2CEE242E293F299D
:1029F000402B512BAA2797FDA095BA2F282B392BB6
:102A00004A2B5B2B6091180388E090E0861B9109AC
:102A100004C056954795379527958A95D2F7B90101
:102A2000CA01DF91CF911F910F91FF90EF90089510
:102A300087E790E064EF4EE20E946A36089587E7E8
:102A400090E066EF0E94BF3587E790E00E941E3657
:102A50000895EF92FF920F931F938091300888237F
:102A600091F1E0903108F090320800913308109114
:102A700034080E94C5140E944A469B01AC01C8015B
:102A8000B7010E94CB446093310870933208809361
:102A9000330890933408809135088F5F8093350810
:102AA00080912F08843039F40E94181510922F0855
:102AB0001092300802C00E94B81480912F088F5FD6
:102AC00080932F0811C00E941F15A0E0B0E08093F2
:102AD0002B0890932C08A0932D08B0932E080E94E9
:102AE000B81481E0809330081F910F91FF90EF9010
:102AF00008955F926F927F928F929F92AF92BF9252
:102B0000CF92DF92EF92FF920F931F93DF93CF93B9
:102B100000D000D0CDB7DEB740912B0850912C08E3
:102B200060912D0870912E088091170890911808D7
:102B3000209115083091160860901F0870902008A9
:102B40008090210890902208E0903508EE2009F44A
:102B5000E1C1A0E0B0E05A016B01A81AB90ACA0AA3
:102B6000DB0AC601B50140E050E00E947D495B01EF
:102B70006C017FE0D594C794B794A7947A95D1F768
:102B8000FF24B701882777FD8095982F0E944A4639
:102B90009B01AC016091310870913208809133083B
:102BA000909134080E94AF450E94174669837A834A
:102BB0008B839C836093270870932808809329084F
:102BC00090932A0880E090E0DC0180933108909394
:102BD0003208A0933308B09334081092350860E6A9
:102BE000E62E60EFF62E6FEF062F6FEF162FEA0C32
:102BF000FB1C0C1D1D1DB301882777FD8095982FA8
:102C00005BE0660F771F881F991F5A95D1F79401D3
:102C1000442737FD4095542F2A0D3B1D4C1D5D1D4B
:102C20000E94D149E20EF31E041F151FC801B7010F
:102C3000A80197010E947D493B014C014CE095940D
:102C40008794779467944A95D1F720910F08309133
:102C50001008442737FD4095542FC801B7010E9442
:102C60007D495B016C013BE0D594C794B794A79470
:102C70003A95D1F780910D0890910E08AA2797FDFB
:102C8000A095BA2F22E0880F991FAA1FBB1F2A9573
:102C9000D1F7A80EB91ECA1EDB1E20911B08309169
:102CA0001C08442737FD4095542FC401B3010E94EE
:102CB0007D49ABE09595879577956795AA95D1F76E
:102CC000A60EB71EC81ED91E5090180320911108D9
:102CD00030911208442737FD4095542FC801B701A1
:102CE0000E947D497B018C01FDE015950795F794C5
:102CF000E794FA95D1F782E090E0A0E0B0E0E80E2A
:102D0000F91E0A1F1B1F2091190830911A08442729
:102D100037FD4095542FC401B3010E947D49BC0189
:102D2000992777FD9095892FE60EF71E081F191F2A
:102D300052E015950795F794E7945A95D1F780E0FE
:102D400090E8A0E0B0E0E80EF91E0A1F1B1F2091DA
:102D500013083091140840E050E0C801B7010E9408
:102D60007D497B018C014FE016950795F794E79418
:102D70004A95D1F7052C04C0AA0CBB1CCC1CDD1C49
:102D80000A94D2F782E090E0A0E0B0E0A80EB91E6D
:102D9000CA1EDB1E32E0D594C794B794A7943A9527
:102DA000D1F769817A818B819C816A197B098C09B1
:102DB0009D0920E533EC40E050E004C0559547956F
:102DC000379527955A94D2F70E947D4997FD0BC0FD
:102DD000660F771F881F991FA80197010E94AF49AE
:102DE00079018A010AC0A80197010E94AF497901BF
:102DF0008A01EE0CFF1C001F111F552717FD5A9565
:102E0000412F302F2F2DCA01B9010E947D492EED8F
:102E10003BE040E050E00E947D495B016C01C8014D
:102E2000B70123E433EE4FEF5FEF0E947D49BC0111
:102E3000992777FD9095892F6153714F8F4F9F4F41
:102E40005601DD24B7FCD094CD2C6A0D7B1D8C1D62
:102E50009D1DE4E09595879577956795EA95D1F75F
:102E60006E0D7F1D801F911F6093230870932408AF
:102E700080932508909326080E944A4620E836EE63
:102E800045EC57E40E94AF452091190330911A0395
:102E900040911B0350911C030E94F247562F472F6D
:102EA000382F292F60E070E080E89FE3DA01F90114
:102EB0002B2F3A2F4F2F5E2F0E94CA4420E03AE278
:102EC0004DE257E40E948F47262F372F482F592F66
:102ED000209305083093060840930708509308088C
:102EE0002091010830910208409103085091040894
:102EF000E0901403F090150300911603109117034E
:102F00000E94903660930108709302088093030832
:102F1000909304080F900F900F900F90CF91DF9136
:102F20001F910F91FF90EF90DF90CF90BF90AF90E7
:102F30009F908F907F906F905F9008950E942915C9
:102F40000E9479150895EF92FF920F931F93CF93EC
:102F5000DF93C9E1D0E0EE24FF2400E010E00E94FE
:102F60009E176E2D7F2D802F912F20910508309177
:102F7000060840910708509108080E94CB447B0145
:102F80008C016CE070E080E090E00E94323A219782
:102F900031F76E2D7F2D802F912F20E030E048EC0F
:102FA00051E40E94AF456093090870930A0880932A
:102FB0000B0890930C08DF91CF911F910F91FF9018
:102FC000EF900895AF92BF92CF92DF92EF92FF926F
:102FD0000F931F9381E0809318031092230810929F
:102FE0002408109225081092260880E090E0DC0169
:102FF0008093090890930A08A0930B08B0930C08DB
:103000008EEA9CEDA2E4BEE38093190390931A0329
:10301000A0931B03B0931C0387E790E00E94443603
:10302000882389F480913F0690914006A091410643
:10303000B0914206886080933F0690934006A0932B
:103040004106B093420687E790E06AEA0E94BF35E6
:1030500080EB9CE067E770E046E150E00E94784238
:103060000E94043690930E0880930D080E94043647
:103070009093100880930F080E94043690931208D2
:10308000809311080E94E5359093140880931308EB
:103090000E94E53590931608809315080E94E53547
:1030A00090931808809317080E94043690931A088A
:1030B000809319080E94043690931C0880931B0883
:1030C0000E94043690931E0880931D080E940436C7
:1030D0009093200880931F080E9404369093220842
:1030E000809321080E9418151092300810922F0822
:1030F0000E949E1765E070E080E090E00E94323A06
:103100000E949E176AE070E080E090E004C06AE1EF
:1031100070E080E090E00E94323A0E94A317A090F5
:103120000908B0900A08C0900B08D0900C08609174
:103130000508709106088091070890910808A6017B
:1031400095010E94CA447B018C017F2D912F20E0C4
:1031500030E0A9010E94844718166CF46E2D7F2D73
:10316000802F912F20E030E040E251E40E9484471C
:1031700018166CF20CC06E2D7F2D802F912F20E041
:1031800030E040E251EC0E94A84587FDC0CFA092FC
:103190000108B0920208C0920308D09204081F915F
:1031A0000F91FF90EF90DF90CF90BF90AF90089578
:1031B000EF92FF920F931F937B018C0120E030E090
:1031C00048EC52E40E948F470E941C4670931E03F5
:1031D00060931D03C801B7012DEC3CEC4CE85FE3A4
:1031E0000E948F4720E030E048EC52E40E948F4775
:1031F0000E941C467093200360931F031F910F9140
:10320000FF90EF900895909136088917E0F490E0D0
:1032100027E130E0829FF001839FF00D929FF00D37
:103220001124EF5DFC4F80EB94E0978386838CEA5A
:1032300096E291878087108A1786128A118A138AEC
:10324000148A158A168A089590E027E130E0829F5B
:10325000F001839FF00D929FF00D1124EF5DFC4F64
:103260008181882379F48681978121E0843F9207C8
:1032700030F023E08C35920720F482E0089581E05D
:10328000089583E008951F93182F0E942419412F59
:1032900050E027E130E0429FF001439FF00D529F44
:1032A000F00D1124EF5DFC4F90E040911D03509113
:1032B0001E03849F9001859F300D949F300D112433
:1032C00081E0468157814217530708F080E01F9143
:1032D00008951F93182F0E942419412F50E027E1D1
:1032E00030E0429FF001439FF00D529FF00D1124FA
:1032F000EF5DFC4F90E040911F0350912003849FAD
:103300009001859F300D949F300D112481E04681FE
:1033100057814217530708F080E01F9108952F92BC
:103320003F924F925F926F927F929F92AF92BF9225
:10333000CF92DF92EF92FF920F931F93DF93CF9381
:1033400000D000D0CDB7DEB7109237081092380801
:1033500021E233E000E010E0A12C44E0B42EC12CC7
:10336000D12C2C0166247724992493941901498245
:103370005A826B827C829AC0F10180810E949139CD
:103380009C01B901882777FD8095982FF101228152
:103390003381442737FD4095542F0E947D49A60173
:1033A00095010E94D149F10184819581820F931F7B
:1033B00097838683208531858217930710F4918740
:1033C0008087F10182858F3F09F45BC00E949139AB
:1033D0007C01F10163857485882777FD8095982F9E
:1033E0002AE030E040E050E00E947D499701442708
:1033F00037FD4095542F0E947D49A60195010E94FA
:10340000D14929013A01F10125853685C901880F85
:10341000991FA3E0220F331FAA95E1F7820F931F94
:10342000840D951D908B878721893289281739074C
:1034300014F4928B818BF10167857089882777FD61
:103440008095982F2BE530E040E050E00E947D49C8
:1034500029813A814B815C810E947D4920E030E8DE
:1034600040E050E00E94D149F10183899489A58907
:10347000B689820F931FA41FB51F838B948BA58BD6
:10348000B68BE02E802F0E944319882311F0909272
:1034900037088E2D0E946919882311F09092380800
:1034A0000F5F1F4F27E130E0220E331E8091360858
:1034B00090E0081719070CF45FCF0F900F900F9052
:1034C0000F90CF91DF911F910F91FF90EF90DF90C0
:1034D000CF90BF90AF909F907F906F905F904F90F4
:1034E0003F902F900895CF93DF9380933608CB01C0
:1034F000BA010E94D818C0E0D0E004C08C2F0E940E
:10350000031921968091360890E0C817D907B4F3C3
:1035100080E090E00E948F19DF91CF910895CF93C2
:10352000DF93E0910203F091030320913D08309175
:103530003E082230310524F0B9017595679508C021
:10354000C90162E070E00E949C49709561957F4FCF
:10355000E61BF70B60913B0870913C08DF01A61B4E
:10356000B70B4091390850913A0880913803C82F21
:10357000D0E0C29FC001C39F900DD29F900D112437
:103580009A01281B390B2A0F3B1F3093C607209343
:10359000C5079C01241B350B2A0F3B1F3093C8071E
:1035A0002093C707E60FF71F9C01240F351F2E0F2E
:1035B0003F1F3093CC072093CB07E41BF50BE81B90
:1035C000F90BF093CA07E093C907DF91CF910895F3
:1035D0004F925F926F927F928F929F92AF92BF9223
:1035E000CF92DF92EF92FF920F931F93DF93CF93CF
:1035F00000D000D0CDB7DEB78C011A821982B3E0BB
:10360000CB2ED12CC80ED91EDC01A450BF4F8C91FB
:10361000813009F49CC1A2E0EA2EF12CE00EF11EEB
:10362000662309F46FC0613009F069C1D8011396AF
:103630006C9313978091880414968C9314978091BF
:10364000890415968C93159780918A0416968C930D
:10365000609105087091060880910708909108080C
:1036600020E030E048EC52E40E948F470E941C4664
:103670007C836B83F80167838C818087609101086C
:1036800070910208809103089091040820E030E0D6
:1036900048EC52E40E948F470E941C467C836B8357
:1036A000D80119966C9319978C811A968C93609116
:1036B000CB067091CC068091CD069091CE0620E08D
:1036C00030E04AE754E40E948F470E941C467C8306
:1036D0006B83F80163878C818487809102038587DF
:1036E0008091030386878091C50787878091C607ED
:1036F000808B8091A104818BF2E1CF2ED12CC00E62
:10370000D11EFFC0EDEFCE2ED12CC00ED11EF60182
:10371000A081B181ED91FC9111970280F381E02DA0
:10372000CD01B70141E050E00995D6018D919C9102
:10373000DC01ED91FC910190F081E02D60E00995B4
:103740007AE3A72E73E0B72ED5010D900020E9F79C
:10375000F501759601900020E9F789819A81A80FFB
:10376000B91FA853B340EA0FFB1F84EB93E0DC01C1
:103770000D900020E9F7CD01855B9340A9ECB3E003
:103780000D900020E9F7AA5CB340ED54F340E80F38
:10379000F91FEA0FFB1FFA83E983F601A081B181CB
:1037A000ED91FC9111970280F381E02DCD01BE01D6
:1037B0006F5F7F4F42E050E00995E980FA8000E0BA
:1037C00010E083EA90E0A0E0B0E0E80EF91E0A1FE6
:1037D0001B1F4501089481089108AA24BB246AE7AD
:1037E000462E512CD6018D919C91DC01ED91FC91DE
:1037F0000190F081E02DD4016C910995F401808154
:10380000E80EF11C011D111DA49CB001A59C700DBA
:10381000B49C700D1124665C7C4FFB0104C0E80E63
:10382000F11C011D111DAF0181918823C1F7F60123
:10383000A081B181ED91FC911197A49C3001A59CD0
:10384000700CB49C700C1124C301865C9C4F481B07
:10385000590B0280F381E02DCD010995D6018D91A0
:103860009C91DC01ED91FC910190F081E02D60E0F4
:103870000995B301615B7C4FFB0104C0E80EF11CAC
:10388000011D111DAF0181918823C1F7F601A081AF
:10389000B181ED91FC911197A49CC001A59C900D64
:1038A000B49C900D1124815B9C4F481B590B0280E6
:1038B000F381E02DCD010995D6018D919C91DC011C
:1038C000ED91FC910190F081E02D60E00995089464
:1038D000A11CB11CEAE7F0E08E0E9F1EF2E0AF16CD
:1038E000B10409F07FCFD6018D919C91DC01ED915F
:1038F000FC910190F081E02D6E2D099528C0662382
:1039000031F1970180E090E0DC0107C0F9014191BD
:103910009F01840F911DA11DB11D2C153D05B0F314
:10392000F6018083D801A350BF4F0D90BC91A02D0C
:103930008D919C911197A801409550954C0D5D1D5E
:10394000FC0122813381CD01B701F90109950F9066
:103950000F900F900F90CF91DF911F910F91FF90DB
:10396000EF90DF90CF90BF90AF909F908F907F901F
:103970006F905F904F900895CF93DF93EC0180E2BA
:1039800060E00E945D3B61E070E080E090E00E94BA
:10399000323A80E261E00E945D3B68E978E080E0D5
:1039A00090E00E94323AFE01E450FF4F1082CE01B7
:1039B00060E00E94E81A6AE070E080E090E00E9417
:1039C000323ADF91CF910895CF93DF93EC01862FA8
:1039D000BA01A90193EA9A83FE01E450FF4F1082D5
:1039E000813071F0813040F0823081F0FE01E3508F
:1039F000FF4F8330A1F410C0FE01E350FF4F0FC012
:103A0000FE01E350FF4F8CE09CE00BC0FE01E35051
:103A1000FF4F8BE29CE005C08AE49CE002C08DEE83
:103A20009BE091838083FE01E350FF4F8081918171
:103A30000E944E3ECE010E94BC1CDF91CF910895A2
:103A4000CF92DF92EF92FF920F931F93CF93DF936A
:103A50008091A104813009F08BC00E94A5147B01E4
:103A60008C0120E030E04AE754EC0E94A84588230E
:103A700009F47EC060919C0470919D0480919E0425
:103A800090919F04A801970103E815E00E940202AB
:103A90000E941746C0910A03D0910B036C177D0753
:103AA0004CF020910C0330910D03EB0126173707E2
:103AB0000CF4E9010091080310910903E090490713
:103AC000F0904A07C8018E199F0997FF03C090958F
:103AD00081959F4F209106033091070328173907DE
:103AE00024F482E08093A1043CC0C0900403D090F1
:103AF0000503C601800F911F8E159F05B4F46091D8
:103B00009C0470919D0480919E0490919F042AE0F2
:103B100037ED43E25CE30E94CB4460939C047093D6
:103B20009D0480939E0490939F04C8018C199D0965
:103B3000E816F906B4F460919C0470919D0480919C
:103B40009E0490919F042AE037ED43E25CE30E94DB
:103B5000CA4460939C0470939D0480939E04909348
:103B60009F04C00FD11FD0930303C093020308C06A
:103B70008091490790914A07909303038093020331
:103B8000DF91CF911F910F91FF90EF90DF90CF9039
:103B900008958F929F92AF92BF92CF92DF92EF9251
:103BA000FF920F931F9380916D04813009F07BC0C9
:103BB000609143077091440780913D0790913E07C3
:103BC000681B790B882777FD8095982F0E944A46BD
:103BD00026EA3BE944EC5AE30E948F472091A30672
:103BE0003091A4064091A5065091A60607EF14E077
:103BF0000E9402026B017C016091450770914607AB
:103C000080913F0790914007681B790B882777FDCB
:103C10008095982F0E944A4626EA3BE944EC5AE3F5
:103C20000E948F472091A7063091A8064091A906CF
:103C30005091AA06505803E115E00E9402024B0180
:103C40005C01609143067091440680914506909115
:103C500046062AE939E949E95FE30E948F479B015B
:103C6000AC01C701B6010BE415E00E9402020E94FC
:103C7000174670933A08609339086091470670912F
:103C800048068091490690914A0690582AE939E9F8
:103C900049E95FE30E948F479B01AC01C501B40174
:103CA00007E615E03BC080E00E94660F7B018C01B7
:103CB00060914306709144068091450690914606B6
:103CC0002DEC3CEC4CE45FE30E948F479B01AC0180
:103CD000C801B70103EA14E00E9402020E941746DD
:103CE00070933A086093390881E00E94660F7B0167
:103CF0008C01609147067091480680914906909129
:103D00004A0690582DEC3CEC4CE45FE30E948F4750
:103D10009B01AC01C801B7010FEB14E00E94020245
:103D20000E94174670933C0860933B081F910F91C7
:103D3000FF90EF90DF90CF90BF90AF909F908F90CB
:103D4000089580916C048330D1F08530A1F18130E9
:103D500019F480ED97E002C088EE93E09093C607D7
:103D60008093C5079093C8078093C7079093CA07AD
:103D70008093C9079093CC078093CB0738C080917C
:103D8000FC029091FD029C0144E0813B940714F0F9
:103D900020EB34E0E5ECF7E043E0883E940714F0D4
:103DA000A90102C048EE53E04193519347E0ED3C36
:103DB000F40791F71CC0EFE4F8E0A5ECB7E08191BF
:103DC000919123E0883E92073CF044E0813B9407C8
:103DD0002CF080EB94E002C088EE93E08D939D93ED
:103DE00088E0E735F80759F781E0809375040E9471
:103DF000751108956F927F928F929F92AF92BF92AA
:103E0000CF92DF92EF92FF920F931F93CF93DF93A6
:103E1000C0910203D09103036091A3067091A406A0
:103E20008091A5069091A60625E33AEF4EE85CE363
:103E30000E948F470E94AC455B016C016091A70610
:103E40007091A8068091A9069091AA0625E33AEF01
:103E50004EE85CE30E948F470E94AC457B018C01D9
:103E6000BE01882777FD8095982F0E944A463B0126
:103E70004C01C601B501A80197010E948F479B0123
:103E8000AC01C401B3010E94AF450E9417466C1BF0
:103E90007D0B613A710514F060EA70E080916A046C
:103EA00090916B048C0F9D1F77FF02C060E070E063
:103EB000680F791F83E0683E78073CF087E06B333A
:103EC00078072CF06AE377E002C068EE73E0709345
:103ED000030360930203DF91CF911F910F91FF9035
:103EE000EF90DF90CF90BF90AF909F908F907F909A
:103EF0006F9008952F923F924F925F926F927F92B0
:103F00008F929F92AF92BF92CF92DF92EF92FF92E9
:103F10000F931F93DF93CF93CDB7DEB727970FB6DD
:103F2000F894DEBF0FBECDBF8091720490917304F0
:103F3000E5ECF7E0DF0140E050E02D913D9161E0DC
:103F400077E0203D37070CF460E0562B61E08217E4
:103F500093070CF460E0462B27E0AD3CB20769F70D
:103F60005523B1F420917604222391F090934808D0
:103F70008093470890934A088093490890934C088F
:103F800080934B0890934E0880934D0810927604CE
:103F90004423C1F4809177048823A1F080ED97E059
:103FA0009093400880933F08909342088093410883
:103FB0009093440880934308909346088093450863
:103FC000109277042090C5073090C6074090C7072D
:103FD0005090C8076090C9077090CA078090CB07BF
:103FE0009090CC0740917204509173045C834B8392
:103FF00030917604A0904708B0904808C0904908D6
:10400000D0904A08E0904B08F0904C0800914D0881
:1040100010914E082091770490913F0850914008EC
:104020005D8370914108609142085091430840912E
:104030004408809145088983A0914608AA83B92F36
:10404000AD815F834E838191919147E0803D9407DC
:104050003CF0332329F4840173016201510131E002
:104060004B815C81481759075CF0222349F489820F
:104070009A826F827E82742D652DB22DA32D21E050
:1040800057E0ED3CF507F9F65F814E8130937604F9
:10409000A0924708B0924808E9E4F8E0C0924908C5
:1040A000D182E0924B08F38200934D081583209350
:1040B0007704B0933F08A0934008E1E4F8E07093E0
:1040C0004108618350934308438379817093450885
:1040D0008A81858327960FB6F894DEBF0FBECDBFC9
:1040E000CF91DF911F910F91FF90EF90DF90CF90D4
:1040F000BF90AF909F908F907F906F905F904F9008
:104100003F902F9008956F927F928F929F92AF92DF
:10411000BF92CF92DF92EF92FF920F931F93809105
:104120005C04813009F067C16091AB067091AC0608
:104130008091AD069091AE0621EE3EE245E652E456
:104140000E948F477B018C01862F9F2DA02FB12FBE
:104150008093610490936204A0936304B093640419
:10416000A0905609B0905709C0905809D0905909AD
:104170006E2D7F2D802F912FA60195010E94CA449C
:10418000962E872E782E692EA4019301852F942FC9
:10419000A32FB22F8093650490936604A0936704C5
:1041A000B0936804C601B50120E030E044E353E475
:1041B0000E94CA449B01AC016E2D7F2D802F912F50
:1041C0000E94A8451816A4F0A4019301652F742F2E
:1041D000832F922F20E030E044EB53E40E94CB4445
:1041E00060936504709366048093670490936804F9
:1041F000C601B50120E030E044E353E40E94CB4423
:104200009B01AC016E2D7F2D802F912F0E94844742
:1042100087FD16C060916504709166048091670403
:104220009091680420E030E044EB53E40E94CA44DB
:1042300060936504709366048093670490936804A8
:104240008091490790914A0724E08D3492070CF43D
:10425000B3C08091470790914807835C95408333B2
:10426000910510F18E2D9F2DA02FB12F809356090F
:1042700090935709A0935809B093590980E090E0B2
:10428000DC0180935D0490935E04A0935F04B0937F
:1042900060048093430590934405A0934505B09333
:1042A00046051092690477C0A0906504B09066043A
:1042B000C0906704D0906804C601B50120E030E0EA
:1042C00040E85EE30E94A84587FF0BC0C601B50128
:1042D00020E030E040E85EEB0E94844718160CF4C2
:1042E00077C080916904882309F044C080918804D4
:1042F00090918904A0918A04B0918B0420915A096D
:1043000030915B0940915C0950915D095C016D0140
:10431000A21AB30AC40AD50AA6019501213261EA9C
:10432000360767E0460760E0560708F464C021E0FE
:104330002093690480935A0990935B09A0935C09C8
:10434000B0935D098E2D9F2DA02FB12F809356091C
:1043500090935709A0935809B093590980E090E0D1
:10436000DC0180935D0490935E04A0935F04B0939E
:10437000600441C060E070E0CB01A60195010FE24E
:1043800015E00E94020260935D0470935E048093C6
:104390005F04909360048091880490918904A091B7
:1043A0008A04B0918B0480935A0990935B09A0937F
:1043B0005C09B0935D091FC08E2D9F2DA02FB12FDA
:1043C0008093560990935709A0935809B0935909BF
:1043D00080E090E0DC0180935D0490935E04A09304
:1043E0005F04B09360048093430590934405A093C9
:1043F0004505B093460582E00E94660F7B018C0163
:1044000060915D0470915E0480915F0490916004FE
:1044100025E33AEF4EE85CE30E948F479B01AC0135
:10442000C801B7010E94CB44F62E072F182FE92EA2
:104430002BED3FE049E450EC0E94A84587FD13C0F6
:104440006F2D702F812F9E2D2BED3FE049E450E41E
:104450000E94844718166CF43BEDF32E0FE019E42C
:1044600020E4E22E06C09BEDF92E0FE019E480EC6B
:10447000E82E20914B0630914C0640914D0650910C
:104480004E066F2D702F812F9E2D0BED14E00E9494
:1044900002020E94174670933E0860933D081F91E8
:1044A0000F91FF90EF90DF90CF90BF90AF909F90D3
:1044B0008F907F906F900895CF93DF930E94C91DD6
:1044C0000E94832080916E0480FD04C00E94201D04
:1044D0000E94FA1E80917404882331F08091750443
:1044E000882311F00E948F1A0E947A1F8091490739
:1044F00090914A0724E08C349207A4F480917204CE
:10450000909173049093400880933F0890934208E1
:104510008093410890934408809343089093460801
:1045200080934508C7E4D8E0A5ECB7E0EFE3F8E0F6
:104530002D913C911197899199912817390734F061
:1045400080819181281739070CF4C9018D939D93BF
:10455000329688E0CF34D80759F7809174048823C5
:1045600011F40E94A11E80917404813031F4809175
:104570007504813011F40E947511DF91CF91089577
:10458000CF92DF92EF92FF920F931F93DF93CF931F
:1045900000D000D0CDB7DEB7C82ED92E8E010F5F68
:1045A0001F4F45E0E42EF12CEC0EFD1E89E69CE049
:1045B000B6010E94C741F80181938F010894C11C84
:1045C000D11CEE15FF0591F759814A813B812C8161
:1045D000652F742F832F922F0F900F900F900F90B5
:1045E000CF91DF911F910F91FF90EF90DF90CF90CF
:1045F0000895CF92DF92EF92FF920F931F93DF9374
:10460000CF9300D000D0CDB7DEB769837A838B8398
:104610009C838E010F5F1F4FE42EF52E55E0C52EB3
:10462000D12CCC0EDD1EF80141918F0189E69CE072
:10463000B7010E94CB410894E11CF11C0C151D052B
:1046400091F70F900F900F900F90CF91DF911F91E6
:104650000F91FF90EF90DF90CF900895EF92FF922F
:104660000F931F93CF93DF938B01E82EFF24CB0191
:104670000E94C0222CE130E0E29EE001E39ED00DDA
:10468000F29ED00D1124CD55DB4F688379838A8348
:104690009B83C80104960E94C0226C837D838E8315
:1046A0009F83C80108960E94C022688779878A87FD
:1046B0009B8780E090E0DC018C879D87AE87BF8779
:1046C0008C8B9D8BAE8BBF8BDF91CF911F910F9108
:1046D000FF90EF9008950F931F93CF93DF938B017B
:1046E00090E02CE130E0829FE001839FD00D929F0B
:1046F000D00D1124CD55DB4F688179818A819B8152
:10470000A8010E94F9226C817D818E819F81A80180
:104710004C5F5F4F0E94F922688579858A859B8569
:10472000A801485F5F4F0E94F922DF91CF911F914E
:104730000F910895AF92BF92CF92DF92EF92FF92C6
:104740000F931F93CF93DF930F2EF0E0EF2EF0E047
:10475000FF2EF8EC0F2FF2E41F2FF02DE092A304B0
:10476000F092A4040093A5041093A60480E090E0C6
:10477000DC018093A7049093A804A093A904B093AC
:10478000AA0420E030E046E953EC2093AB043093D8
:10479000AC044093AD045093AE04E092BF04F09299
:1047A000C0040093C1041093C2048093C304909387
:1047B000C404A093C504B093C6042093C7043093E7
:1047C000C8044093C9045093CA040F2EF0E0AF2EE2
:1047D000F0E0BF2EF8E4CF2EF3E4DF2EF02DA09210
:1047E000DB04B092DC04C092DD04D092DE040F2E14
:1047F000F0E0AF2EF0E0BF2EF0EACF2EF0E4DF2E97
:10480000F02DA092DF04B092E004C092E104D092B7
:10481000E2048093E3049093E404A093E504B0934E
:10482000E6040F2EF0E0AF2EF0E0BF2EF0E8CF2E22
:10483000F0E4DF2EF02DA092F704B092F804C092BD
:10484000F904D092FA048093FB049093FC04A093A3
:10485000FD04B093FE048093FF0490930005A093A1
:104860000105B0930205A0921305B0921405C09201
:104870001505D09216058093170590931805A093FF
:104880001905B0931A0580931B0590931C05A093FE
:104890001D05B0931E050F2EF0E0AF2EF0E0BF2EE9
:1048A000F0E4CF2EF0E4DF2EF02DA0922F05B09291
:1048B0003005C0923105D09232050F2EFDECAF2E9F
:1048C000FCECBF2EFCECCF2EFDE3DF2EF02DA092F2
:1048D0003305B0923405C0923505D09236058093E9
:1048E000370590933805A0933905B0933A05E092C7
:1048F0004B05F0924C0500934D0510934E058093A7
:104900004F0590935005A0935105B0935205209305
:104910005305309354054093550550935605E09246
:104920006705F09268050093690510936A05809306
:104930006B0590936C05A0936D05B0936E05209365
:104940006F0530937005409371055093720520E018
:1049500030E048EC51E42093830530938405409384
:104960008505509386050F2EFAE9EF2EF9E9FF2E03
:10497000F9E10F2FFFE31F2FF02DE0928705F09252
:1049800088050093890510938A0580938B05909381
:104990008C05A0938D05B0938E0520939B053093D5
:1049A0009C0540939D0550939E0580939F05909391
:1049B000A005A093A105B093A2058093A3059093B1
:1049C000A405A093A505B093A6058093A705909391
:1049D000A805A093A905B093AA052EEC3FEF30934C
:1049E0000B0320930A0322E330E030930D0320935E
:1049F0000C03A0921403B0921503C0921603D09238
:104A000017032AE530E030930503209304032AEFCF
:104A100030E0309307032093060320E030E040E8C5
:104A20005FE320936E0630936F06409370065093B9
:104A3000710680937A0690937B06A0937C06B093D0
:104A40007D0620937206309373064093740650934C
:104A5000750680937E0690937F06A0938006B093A0
:104A6000810620937606309377064093780650931C
:104A700079068093820690938306A0938406B09370
:104A800085068093F5079093F607A093F707B093F8
:104A9000F8078093F9079093FA07A093FB07B09368
:104AA000FC078093FD079093FE07A093FF07B09348
:104AB000000880E090E0AAE7B4E48093BB059093FF
:104AC000BC05A093BD05B093BE058093BB04909335
:104AD000BC04A093BD04B093BE048093D70490930C
:104AE000D804A093D904B093DA048093F30490938C
:104AF000F404A093F504B093F60480930F0590930B
:104B00001005A0931105B093120580932B05909387
:104B10002C05A0932D05B0932E0580934705909307
:104B20004805A0934905B0934A0580936305909387
:104B30006405A0936505B093660580937F05909307
:104B40008005A0938105B09382058093B70590936B
:104B5000B805A093B905B093BA05209329073093FF
:104B60002A0740932B0750932C078EE794E09093ED
:104B700073048093720420930E0330930F034093C9
:104B80001003509311038AE098EEACE1B1EC8093EE
:104B9000860690938706A0938806B0938906E3E67D
:104BA000F7E063E877E0A3EAEA2EA7E0FA2EDA015D
:104BB000C90120E030E0A90181939193A193B193C1
:104BC000EB012993399349935993BE01E7018993E6
:104BD0009993A993B9937E0117E0EB37F10761F739
:104BE00080E090E0A0E0BFE38093AB079093AC0738
:104BF000A093AD07B093AE0710926D0481E080934F
:104C00005C0480E090E0A0EAB0E4809358049093C4
:104C10005904A0935A04B0935B0488EB9EE1A5E588
:104C2000B0E48093F2029093F302A093F402B09365
:104C3000F5028AEA95E09093F7028093F60280E607
:104C40009AEEA0E0B0E08093F8029093F902A0936E
:104C5000FA02B093FB02DF91CF911F910F91FF9069
:104C6000EF90DF90CF90BF90AF90089580E060E02C
:104C700070E00E942E2381E064E270E00E942E2307
:104C800082E068E170E00E942E2383E06CE070E037
:104C90000E942E2384E060E370E00E942E2385E0D2
:104CA0006CE370E00E942E2386E068E470E00E94CE
:104CB0002E2387E064E570E00E942E2388E060E602
:104CC00070E00E942E2380EF90E00E94C02260934B
:104CD0009B0570939C0580939D0590939E0588EE9F
:104CE00090E00E94C0220E94174670930B036093CD
:104CF0000A0384EE90E00E94C0220E94174670933F
:104D00000D0360930C038CEE90E00E94C022609330
:104D1000140370931503809316039093170384EF85
:104D200090E00E94C0220E94174670930503609392
:104D3000040388EF90E00E94C0220E9417467093FF
:104D400007036093060389E06CE670E00E942E235F
:104D500084E191E00E94C02260936E0670936F061A
:104D6000809370069093710680E191E00E94C022CA
:104D700060937A0670937B0680937C0690937D0601
:104D80008CE191E00E94C0226093720670937306DA
:104D9000809374069093750688E191E00E94C0228A
:104DA00060937E0670937F068093800690938106C1
:104DB00084E291E00E94C0226093760670937706A9
:104DC000809378069093790680E291E00E94C02259
:104DD0006093820670938306809384069093850681
:104DE00088E291E00E94C0226093F5077093F60775
:104DF0008093F7079093F8078CE291E00E94C0221D
:104E00006093F9077093FA078093FB079093FC0770
:104E100080E391E00E94C0226093FD077093FE073B
:104E20008093FF079093000884E391E00E94C022E2
:104E30006093F2027093F3028093F4029093F50270
:104E400088E391E00E94C0220E9417467093F70207
:104E50006093F6028CE391E00E94C0220E941C46FF
:104E60006093F8027093F9028093FA029093FB0228
:104E700084EC90E00E94C0226093BB057093BC0557
:104E80008093BD059093BE056093BB047093BC04F2
:104E90008093BD049093BE046093D7047093D804AC
:104EA0008093D9049093DA046093F3047093F4042C
:104EB0008093F5049093F60460930F0570931005AA
:104EC000809311059093120560932B0570932C0528
:104ED00080932D0590932E056093470570934805A8
:104EE0008093490590934A05609363057093640528
:104EF000809365059093660560937F0570938005A8
:104F000080938105909382056093B7057093B805EF
:104F10008093B9059093BA058CEC90E00E94C02272
:104F20000E941746709373046093720484ED90E0BE
:104F30000E94C022609358047093590480935A04CD
:104F400090935B0488ED90E00E94C0220E941C4672
:104F500060936D0480EE90E00E94C022609386060C
:104F60007093870680938806909389068CED90E075
:104F70000E94C0220E941C4660935C040895AF9278
:104F8000BF92CF92DF92EF92FF920F931F93CF9336
:104F9000DF93F89480E060E070E00E946B2381E092
:104FA00064E270E00E946B2383E06CE070E00E949A
:104FB0006B2384E060E370E00E946B2382E068E191
:104FC00070E00E946B2385E06CE370E00E946B232D
:104FD00086E068E470E00E946B2387E064E570E09F
:104FE0000E946B2388E060E670E00E946B23609172
:104FF0009B0570919C0580919D0590919E0540EFC9
:1050000050E00E94F92260910A0370910B038827F7
:1050100077FD8095982F0E944A4648EE50E00E9406
:10502000F92260910C0370910D03882777FD80951C
:10503000982F0E944A4644EE50E00E94F922609167
:1050400014037091150380911603909117034CEE91
:1050500050E00E94F92260910403709105038827B3
:1050600077FD8095982F0E944A4644EF50E00E94B9
:10507000F9226091060370910703882777FD8095D8
:10508000982F0E944A4648EF50E00E94F92289E09A
:105090006CE670E00E946B2360916E0670916F0663
:1050A000809170069091710644E151E00E94F922CE
:1050B00060917A0670917B0680917C0690917D06C6
:1050C00040E151E00E94F9226091720670917306EE
:1050D00080917406909175064CE151E00E94F9228E
:1050E00060917E0670917F06809180069091810686
:1050F00048E151E00E94F9226091760670917706AE
:10510000809178069091790644E251E00E94F9225C
:105110006091820670918306809184069091850645
:1051200040E251E00E94F9226091F5077091F60784
:105130008091F7079091F80748E251E00E94F92228
:105140006091F9077091FA078091FB079091FC0735
:105150004CE251E00E94F9226091FD077091FE0738
:105160008091FF079091000840E351E00E94F922EE
:105170006091BB057091BC058091BD059091BE0505
:1051800044EC50E00E94F9226091290770912A07AF
:1051900080912B0790912C0748EC50E00E94F92257
:1051A00060910E0370910F03809110039091110391
:1051B00040ED50E00E94F92253E6E52E57E0F52E2F
:1051C00043E8C42E47E0D42E33EAA32E37E0B32EB3
:1051D00000E010E0F70161917191819191917F015F
:1051E000E801CC0FDD1FC00FD11FCC0FDD1FCC0F8E
:1051F000DD1FAE0148585F4F0E94F922F601619110
:105200007191819191916F01AE0144585F4F0E945D
:10521000F922F50161917191819191915F01AE0146
:1052200040585F4F0E94F9220F5F1F4F0630110553
:1052300089F66091720470917304882777FD8095D8
:10524000982F0E944A464CEC50E00E94F92260914F
:1052500058047091590480915A0490915B0444ED74
:1052600050E00E94F92260916D0470E080E090E0CF
:105270000E94484648ED50E00E94F92260915C048B
:1052800070E080E090E00E9448464CED50E00E94C3
:10529000F922609186067091870680918806909128
:1052A000890640EE50E00E94F92260E070E080E460
:1052B00090E440EC50E00E94F9226091F20270917B
:1052C000F3028091F4029091F50244E351E00E94D0
:1052D000F9226091F6027091F702882777FD809598
:1052E000982F0E944A4648E351E00E94F9226091BB
:1052F000F8027091F9028091FA029091FB020E94EB
:1053000048464CE351E00E94F92260E070E0CB0196
:1053100040E451E00E94F92260E070E0CB0144E4F7
:1053200051E00E94F9227894DF91CF911F910F9163
:10533000FF90EF90DF90CF90BF90AF90089584E002
:1053400091E00E94C0220E9417467093500660931D
:105350004F0688E091E00E94C0220E941746709399
:105360005206609351068CE091E00E94C0220E9498
:105370001746709354066093530680ED90E00E94A8
:10538000C02260930E0370930F03809310039093D9
:10539000110380EE90E00E94C02260938606709315
:1053A00087068093880690938906089560914F063A
:1053B00070915006882777FD8095982F0E944A4665
:1053C00044E051E00E94F92260915106709152062A
:1053D000882777FD8095982F0E944A4648E051E043
:1053E0000E94F9226091530670915406882777FD38
:1053F0008095982F0E944A464CE051E00E94F92285
:1054000060910E0370910F0380911003909111032E
:1054100040ED50E00E94F922609186067091870667
:10542000809188069091890640EE50E00E94F92212
:1054300008951F930E949F108091490790914A07F9
:1054400024E08C3492070CF06AC00E940A03809119
:1054500047079091480724E08C34920774F48091B8
:105460007404813051F488EE93E00E94D31184E0FB
:1054700060E00E945D3B1092740480914707909118
:10548000480724E08C349207DCF480914307909124
:10549000440727E08D3692079CF080914507909154
:1054A000460724E08C3492075CF40E94F6060E94C2
:1054B0005D080E94D6290E940A0383E00E946C12B4
:1054C000809147079091480727E08D369207A4F016
:1054D00080917404882381F410917504113061F473
:1054E0000E940A038CE494E00E94D31184E061E0FE
:1054F0000E945D3B10937404809147079091480788
:1055000024E08D3492071CF081E080937504809133
:105510007404813021F48CE494E00E94D3118091D2
:105520004B0790914C0725E08D3D920724F081E0D8
:1055300080936D0402C010926D0480914D0790918C
:105540004E0726E0863D92079CF58091A1048230AB
:10555000A1F18091A004882339F10E94A5146093E1
:105560009C0470939D0480939E0490939F042091CB
:10557000490730914A07309309032093080320E03C
:1055800030E0A90120939705309398054093990541
:1055900050939A0560938F057093900580939105C1
:1055A000909392051092A00481E08093A10405C01D
:1055B00081E08093A0041092A1041F910895AF92FE
:1055C000BF92CF92DF92EF92FF920F931F93CF93F0
:1055D000DF9388EC90E00E94C022609329077093CB
:1055E0002A0780932B0790932C07A3E6EA2EA7E0C7
:1055F000FA2EF3E8CF2EF7E0DF2EE3EAAE2EE7E057
:10560000BE2E00E010E0E801CC0FDD1FC00FD11F5F
:10561000CC0FDD1FCC0FDD1FCE0188589F4F0E949D
:10562000C022F70161937193819391937F01CE0121
:1056300084589F4F0E94C022F60161937193819319
:1056400091936F01CE0180589F4F0E94C022F501B7
:1056500061937193819391935F010F5F1F4F0630A8
:10566000110589F6DF91CF911F910F91FF90EF9077
:10567000DF90CF90BF90AF900895EF92FF920F937D
:105680001F93DF93CF93CDB7DEB72F970FB6F89464
:10569000DEBF0FBECDBF19821A821B821C82FE01A3
:1056A00035968BE0DF011D928A95E9F7EE24FF2401
:1056B0008E010F5F1F4F8DEE9BE00E94953B009780
:1056C00041F46AE070E080E090E00E94323AE394B6
:1056D0000AC08DEE9BE00E94C43BF801EF0DF11D66
:1056E0008083F394EE24FF2031F0FE01EF0DF11DD5
:1056F00080818B3331F0BE2DBA3018F48F2D8E306F
:10570000D0F2CE010196FC01EF0DF11D10820E9436
:10571000044A2F960FB6F894DEBF0FBECDBFCF91CF
:10572000DF911F910F91FF90EF9008950F931F93BA
:10573000CF93DF93082F10E00E943D2B2CE130E047
:10574000029FE001039FD00D129FD00D1124CD5573
:10575000DB4F688379838A839B830E943D2B6C8314
:105760007D838E839F830E943D2B688779878A87FC
:105770009B8780E090E0DC018C879D87AE87BF87A8
:105780008C8B9D8BAE8BBF8BDF91CF911F910F9137
:1057900008951F93182F0E943D2B26E636EE46EF04
:1057A00052E40E94A845882331F4109274041093A7
:1057B0006C0481E009C010926C0488EE93E0909331
:1057C000FD028093FC0280E01F9108951F93CF9308
:1057D000DF938DEE9BE00E94953B009709F4E6C1B4
:1057E0008DEE9BE00E94C43B80932D04992787FD9A
:1057F0009095A92FB92FC1978A32910508F0D6C18B
:105800008E589F4FFC01EE0FFF1F0590F491E02D85
:10581000099480E00E94962B81E077C083E00E948B
:10582000962B84E00E94962B86E00E94962B87E0C0
:105830000E94962B0E943D2B6093BB057093BC0584
:105840008093BD059093BE05B1C182E00E94962B66
:1058500085E00E94962B0E943D2B0E941C4660937F
:105860005C0480E090E0DC0180936104909362042A
:10587000A0936304B09364048093650490936604DA
:10588000A0936704B093680480935D0490935E04D2
:10589000A0935F04B093600489C188E00E94962BB6
:1058A0000E943D2B60939B0570939C0580939D0502
:1058B00090939E050E943D2B0E941746709305030E
:1058C000609304030E943D2B0E94174670930703C8
:1058D000609306030E943D2B0E94174670930B03B2
:1058E00060930A030E943D2B0E94174670930D039C
:1058F00060930C030E943D2B609314037093150377
:10590000809316039093170389E00E94962B4EC153
:105910000E943D2B60930E0370930F03809310033E
:10592000909311030E943D2B609358047093590487
:1059300080935A0490935B040E943D2B0E9417466B
:10594000709373046093720431C10E943D2B609385
:10595000290770932A0780932B0790932C07C3EA9B
:10596000D7E00E943D2B6993799389939993F7E04F
:10597000CB3BDF07B1F71AC10E943D2B0E941746AF
:10598000EB017093C4076093C3070E943D2BCC0FBB
:10599000DD1FCC0FDD1FCD59D84F11C00E943D2B0C
:1059A0000E941746EB017093C4076093C3070E94DF
:1059B0003D2BCC0FDD1FCC0FDD1FCD57D84F68839B
:1059C00079838A839B83F2C00E949A230E94BF2717
:1059D0000E94F6060E945D080E940A030E94681455
:1059E0000E94E217E3C00E94F60641C00E943D2BD0
:1059F00060936E0670936F068093700690937106A5
:105A00000E943D2B60937A0670937B0680937C0600
:105A100090937D060E943D2B6093720670937306EF
:105A200080937406909375060E943D2B60937E06CA
:105A300070937F0680938006909381060E943D2B91
:105A40006093760670937706809378069093790634
:105A50000E943D2B60938206709383068093840698
:105A6000909385060E94BF27A1C00E945D080E94F6
:105A7000D6299CC00E943D2B6093F5077093F607D2
:105A80008093F7079093F8070E943D2B6093F907E6
:105A90007093FA078093FB079093FC070E943D2BBD
:105AA0006093FD077093FE078093FF0790930008B3
:105AB0007DC00E943D2B6093F2027093F3028093AD
:105AC000F4029093F5020E943D2B0E9417467093BA
:105AD000F7026093F6020E943D2B0E941C466093E1
