:100000000C94D1010C9400020C9400020C94000298
:100010000C9400020C9400020C9400020C94000258
:100020000C9400020C9400020C9400020C94820FB9
:100030000C9400020C9400020C9400020C94000238
:100040000C9400020C9400020C9400020C94000228
:100050000C9400020C9400020C9400020C945E3785
:100060000C9400020C94E8390C94BC3A0C940002F5
:100070000C9400020C9400020C9400020C940002F8
:100080000C9400020C9400020C9400020C940002E8
:100090000C94153A0C94073B0C9400020C940A4102
:1000A0000C9400020C9400020C9400020C940002C8
:1000B0000C9400020C9400020C9400020C940002B8
:1000C0000C9400020C9400020C9400020C94423A2E
:1000D0000C94523B0C9400020C946F3A0C949D3B90
:1000E0000C9400023B2B3D2B412B4F2B5D2B7F2B88
:1000F0007F2B7F2B7F2B7F2B7F2B7F2B7F2B7F2BB0
:100100007F2B7F2BB229B729CE29F629312A4E2AF7
:10011000652A772A8D2A9C2A9F2ADE2AE32A022B27
:100120007F2B2B2B7F2B7F2B7F2B7F2B312B7F2B21
:10013000362B7F2B7F2B6F2B036EDB363D9A9999E5
:10014000993DABAAAA2A3E000000803F084AD73B4F
:100150003BCE016E84BCBFFDC12F3D6C74319ABD96
:1001600056833DDA3D00C77F11BED9E4BB4C3E91BA
:100170006BAAAABE000000803F072C7AA5BA6CC506
:1001800090DA3B9365FC8BBC53F810FD3C56928390
:100190004DBD879D3AB63DCBC9BF5BBE73DA0FC973
:1001A0003F05A84CCDB2D44EB93836A9020C50B98F
:1001B000918688083CA6AAAA2ABE000000803F07B4
:1001C000634236B79BD8A71A39685618AEBAAB55F2
:1001D0008C1D3CB7CC5763BD6DEDFD753EF61772B7
:1001E00031BF000000803F08000000BE9224491289
:1001F0003EABAAAA2ABECDCCCC4C3E00000080BEAD
:10020000ABAAAAAA3E00000000BF000000803F0089
:1002100000000000084178D3BB4387D1133D190E7D
:100220003CC3BD4282AD2B3E68EC8276BED98FE1E5
:10023000A93E4C80EFFFBE01C4FF7F3F00000000DD
:100240000000002100240027002A002D0030003388
:100250000001010000040107010A0100002200253D
:100260000028002B002E00310034000201000005A0
:100270000108010B01000020002300260029002CAA
:10028000002F0032000001000003010601090105F2
:10029000050505070508080808020202020A0A08FF
:1002A0000804040404010101010101010103030325
:1002B0000303030303040707070C0C0C0C0C0C0CC2
:1002C0000C0202020206060606060606060B0B0BC9
:1002D0000B0B0B0B0B010210202008081020401004
:1002E00020408002010201080402010102040810FA
:1002F0002040808040201008040201800402018018
:100300004020100804020108040201010204081040
:1003100020408001020408102040800000090A02E9
:10032000080B0C0D0706030401000000000000008C
:1003300000000000000000000000000000000000BD
:100340000000000000000011100F0000000000007D
:10035000000000000000000000000000000000009D
:1003600000494E46494E4954594E414ECDCCCC3DA4
:100370000AD7233C17B7D13877CC2B329595E62492
:100380001FB14F0A000020410000C84200401C4637
:1003900020BCBE4CCA1B0E5AAEC59D744E33663C83
:1003A000324011241FBECFEFD1E2DEBFCDBF13E03C
:1003B000A0E0B2E0E6EDF2E900E00BBF02C007907A
:1003C0000D92A236B107D9F71BE0A2E6B3E001C057
:1003D0001D92A533B107E1F713E0C2EAD3E000E0D4
:1003E00006C022970109FE010BBF0E949A47CC3933
:1003F000D10780E00807A9F70E943C3D0C946949A9
:100400000C9400002F923F924F925F926F927F92D6
:100410008F929F92AF92BF92CF92DF92EF92FF9214
:100420000F931F93DF93CF93CDB7DEB72A970FB605
:10043000F894DEBF0FBECDBF5B016C0119012A012C
:100440001A870987609192037091930380919403B6
:10045000909195030E94E2437B018C01E985FA8526
:1004600020893189428953890E94644220E034E224
:1004700044E759E40E94494369837A838B839C83D0
:10048000E985FA85E08AF18A028B138BC601B501F2
:10049000A20191010E9464426D837E838F839887BD
:1004A000B981AA811B810C812B2F3A2F412F502F0C
:1004B0000E942945E985FA85248935894689578925
:1004C0000E9465428B01F82EE92EE985FA85A08C01
:1004D000B18CC28CD38C3501460197FA909497F871
:1004E00090949701712F832F922FA40193010E9462
:1004F000424387FD0FC09701602F712F832F922FEA
:10050000A60195010E941E4518163CF48501FC2C9D
:10051000ED2C03C08301F82CE92C9701802F912F3B
:10052000A32FBE2DE985FA85848B958BA68BB78B7F
:10053000C201B10124853585468557850E946442F4
:10054000E985FA8520853185428553850E942945B4
:100550005B016C0159814A813B812C81652F742F8D
:10056000832F922F20E030E048EC52E40E9429458E
:100570009B01AC01C601B5010E944943662E972E2E
:10058000882E792EE985FA85248635864686578613
:100590005D814E813F812885652F742F832F922F97
:1005A00020813181428153810E9429455B016C0188
:1005B0009701602F712F832F9E2DE985FA85248165
:1005C0003581468157810E9429459B01AC01C601B6
:1005D000B5010E946542262D392D482D572D0E94C8
:1005E00065422A960FB6F894DEBF0FBECDBFCF91FD
:1005F000DF911F910F91FF90EF90DF90CF90BF9010
:10060000AF909F908F907F906F905F904F903F90B2
:100610002F900895609192037091930380919403B9
:10062000909195030E94E24320E030E0A9012093DD
:10063000C1033093C2034093C3035093C403609338
:10064000BD037093BE038093BF039093C0032093B8
:10065000DD033093DE034093DF035093E0036093A8
:10066000D9037093DA038093DB039093DC03209328
:10067000F9033093FA034093FB035093FC03609318
:10068000F5037093F6038093F7039093F803209398
:100690001504309316044093170450931804609384
:1006A0001104709312048093130490931404209304
:1006B00031043093320440933304509334046093F4
:1006C0002D0470932E0480932F049093300408958A
:1006D0002F923F924F925F926F927F928F929F9252
:1006E000AF92BF92CF92DF92EF92FF920F931F9340
:1006F000DF93CF93CDB7DEB762970FB6F894DEBF26
:100700000FBECDBF6D877E878F87988B5A8B498BA5
:10071000DA012D903D904D905C90139714966D905A
:100720007D908D909C9017971896AD90BD90CD9030
:10073000DC901B9750962D913D914D915C91539774
:1007400029833A834B835C8354962D913D914D913F
:100750005C9157972D833E834F83588758962D91F0
:100760003D914D915C915B9729873A874B875C87D8
:1007700029E732E348EF5AE30E9429457B018C01C7
:10078000C201B10125ED31E841E15BEB0E94294551
:100790009B01AC01C801B7010E9465427B018C013D
:1007A000C401B3012AE13BE14EE55BE30E94294528
:1007B0009B01AC01C801B7010E9465427B018C011D
:1007C000C601B50125ED31E841E15BEB0E94294509
:1007D0009B01AC01C801B7010E9465427B018C01FD
:1007E000E989FA89648575858685978529E732E3E5
:1007F00048EF5AE30E9429459B01AC01C801B701AB
:100800000E9465427B018C0169817A818B819C8188
:1008100028E33FE247E550E40E9429459B01AC01F3
:10082000C801B7010E9465427B018C016D817E8108
:100830008F81988520E23BE049E850E40E942945F9
:100840009B01AC01C801B7010E9464427B018C018D
:1008500069857A858B859C852AE037E74CE150E4F1
:100860000E9429459B01AC01C801B7010E94654265
:100870007B018C01A989BA895C966D917D918D91DE
:100880009C915F972CE433EF46E05FE30E9429459B
:100890009B01AC01C801B7010E946442E989FA8951
:1008A000A486B586C686D78660867186828693863C
:1008B00024823582468257822D853E854F85588910
:1008C000208331834283538329853A854B855C8518
:1008D000248F358F468F578F2D813E814F815885CC
:1008E000208F318F428F538F29813A814B815C81D8
:1008F000248B358B468B578B262F372F482F592F1C
:10090000E989FA89208B318B428B538B62960FB623
:10091000F894DEBF0FBECDBFCF91DF911F910F9135
:10092000FF90EF90DF90CF90BF90AF909F908F900F
:100930007F906F905F904F903F902F90089580E050
:1009400090E0DC018093C9049093CA04A093CB0487
:10095000B093CC048093CD049093CE04A093CF04A5
:10096000B093D0048093D1049093D204A093D30485
:10097000B093D4048093D5049093D604A093D70465
:10098000B093D8048093D9049093DA04A093DB0445
:10099000B093DC048093DD049093DE04A093DF0425
:1009A000B093E0048093E1049093E204A093E30405
:1009B000B093E4048093E5049093E604A093E704E5
:1009C000B093E8048093E9049093EA04A093EB04C5
:1009D000B093EC048093ED049093EE04A093EF04A5
:1009E000B093F0048093F1049093F204A093F30485
:1009F000B093F4048093F5049093F604A093F70465
:100A0000B093F8048093F9049093FA04A093FB0444
:100A1000B093FC048093FD049093FE04A093FF0424
:100A2000B09300058093010590930205A093030500
:100A3000B09304058093050590930605A0930705E0
:100A4000B09308058DE697EEACE1B1EC8093090513
:100A500090930A05A0930B05B0930C0580930D05A8
:100A600090930E05A0930F05B09310058093110588
:100A700090931205A0931305B09314058093150568
:100A800090931605A0931705B09318058093190548
:100A900090931A05A0931B05B0931C0580931D0528
:100AA00090931E05A0931F05B09320058093210508
:100AB00090932205A0932305B093240580932505E8
:100AC00090932605A0932705B0932805089589E6FD
:100AD00090E00E94DE33893689F480914905909137
:100AE0004A05A0914B05B0914C0581608093490562
:100AF00090934A05A0934B05B0934C0589ED93E282
:100B0000AFE9BAE380936B0590936C05A0936D05F4
:100B1000B0936E0589E690E06EE340E80E940434ED
:100B200089E690E066E14DE10E94043489E690E0B8
:100B30006EE341E00E9404340895EF92FF920F9318
:100B40001F93CF93DF93CFE5D5E0E880F9800A814A
:100B50001B810E949E33AA2797FDA095BA2F8E0D68
:100B60009F1DA01FB11F89939993A993B99385E005
:100B7000CB36D80751F7DF91CF911F910F91FF909E
:100B8000EF90089589E690E06DE10E9459338BEB78
:100B90009AE069E670E046E050E00E9412400E9450
:100BA0009D05809177058F5F809377050895CF939A
:100BB000DF93EC012091770530E040E050E0609158
:100BC0005F057091600580916105909162050E94BA
:100BD0006B478091590590915A05281B390B398331
:100BE00028832091770530E040E050E06091630574
:100BF0007091640580916505909166050E946B4730
:100C000080915B0590915C05821B930B9B838A838B
:100C10002091770530E040E050E0609167057091E9
:100C200068058091690590916A050E946B478091E3
:100C30005D0590915E05821B930B9D838C83DF91F4
:100C4000CF9108958F929F92AF92BF92CF92DF92F1
:100C5000EF92FF920F931F93DF93CF9300D000D0BA
:100C600000D0CDB7DEB76E010894C11CD11CC601FF
:100C70000E94D70510925F051092600510926105E1
:100C8000109262051092630510926405109265053A
:100C9000109266051092670510926805109269051A
:100CA00010926A05109277053DE4A32E35E0B32E2D
:100CB00027E0822E912C8C0E9D1EF6016191719180
:100CC0006F01882777FD8095982F0E94E44320913B
:100CD0006B0530916C0540916D0550916E050E9439
:100CE0002945F5012081318142815381E0900E0335
:100CF000F0900F0300911003109111030E942A3409
:100D0000F50161937193819391935F01C814D904A4
:100D1000A1F60E94A6375B016C01E0905505F090AA
:100D200056050091570510915805C801B70125E3F4
:100D30003AEF4EE85CE30E941E45181654F0C801D5
:100D4000B70125E33AEF4EE85CEB0E94424387FF90
:100D500032C08091730590917405A0917505B09192
:100D60007605A6019501281B390B4A0B5B0BCA01BE
:100D7000B9010E94E24320E034E244E759E40E94D2
:100D800049439B01AC01C801B7010E9429459B0161
:100D9000AC0160916F057091700580917105909123
:100DA00072050E94654260936F0570937005809391
:100DB000710590937205A0927305B0927405C0926C
:100DC0007505D092760526960FB6F894DEBF0FBE55
:100DD000CDBFCF91DF911F910F91FF90EF90DF90EA
:100DE000CF90BF90AF909F908F900895AF92BF9299
:100DF000CF92DF92EF92FF920F931F93DF93CF93E7
:100E0000CDB7DEB7C356D0400FB6F894DEBF0FBEE5
:100E1000CDBF59E5C52E55E0D52E2DE17E010894B4
:100E2000E11CF11C43E6A42EB12CAC0EBD1E2BC060
:100E300089E690E0622FA4962FAFA4970E945933C1
:100E400089E690E00E949433F801819391938F0199
:100E50006AE070E080E090E00E94CC37A4962FAD6D
:100E6000A4970A151B0521F7C70161E370E00E94F2
:100E7000EF36F601819391936F01A4962FADA4975D
:100E80002E5F233211F08701D3CFCD59DF4F0FB63C
:100E9000F894DEBF0FBECDBFCF91DF911F910F91B0
:100EA000FF90EF90DF90CF90BF90AF90089580E4D7
:100EB00090E00E94DE33833089F48091490590915F
:100EC0004A05A0914B05B0914C058260809349057D
:100ED00090934A05A0934B05B0934C0580E490E0B5
:100EE00060E146EB0E9404346AE070E080E090E04C
:100EF0000E94CC3780E490E06DE040E10E94043431
:100F000080E490E060E20E94593380E490E00E9427
:100F10006F33482F4F7780E490E060E20E94043402
:100F200080E490E065E30E94593380E490E00E9401
:100F30006F33482F417F486080E490E065E30E9472
:100F400004340895EF92FF920F931F93CF93DF9392
:100F500080E490E062E00E9459338BEB9AE060E419
:100F600070E046E050E00E941240C0EAD5E0E88020
:100F7000F9800A811B810E94A133959587959595EB
:100F80008795AA2797FDA095BA2F8E0D9F1DA01FAC
:100F9000B11F89939993A993B99385E0CC3AD80767
:100FA00031F78091AC058F5F8093AC05DF91CF91D5
:100FB0001F910F91FF90EF9008952F923F924F92C3
:100FC0005F926F927F928F929F92AF92BF92CF92D9
:100FD000DF92EF92FF921F93DF93CF9300D000D068
:100FE00000D0CDB7DEB78091AC05282F30E040E0CF
:100FF00050E029833A834B835C8380EA95E028E7BD
:10100000E22E25E0F22E14E8C12E15E0D12EB4E92F
:10101000AB2EB5E0BB2E10E09E838D83F70161906F
:101020007190819091907F01F601219031904190D3
:1010300051906F01ED81FE81608171818281938188
:1010400029813A814B815C810E946B47CA01B901B9
:101050000E94E443A40193010E942945A201910149
:101060000E946542F50161937193819391935F01B1
:10107000ED81FE811192119211921192FE83ED8306
:101080001F5F133059F61092AC0526960FB6F894F0
:10109000DEBF0FBECDBFCF91DF911F91FF90EF90CC
:1010A000DF90CF90BF90AF909F908F907F906F9088
:1010B0005F904F903F902F900895AF92BF92CF9244
:1010C000DF92EF92FF920F931F93CF93DF93C0E0D5
:1010D000D0E007C00E94A20784EC99E00E94F33799
:1010E000219681E0C039D807A9F7C8E7D5E034E9EF
:1010F000E32E35E0F32E00EA15E0A990B990C990EF
:10110000D990F80160817181828193810E94E443CA
:1011100020E030E048EC53E40E944943A6019501E9
:101120000E942945F70161937193819391937F0107
:10113000F80111921192119211928F01F5E0C438C9
:10114000DF07D9F61092AC05809194059091950532
:10115000A0919605B0919705B0588093840590931F
:101160008505A0938605B093870580919805909199
:101170009905A0919A05B0919B05B0588093880578
:1011800090938905A0938A05B0938B05E0909C0508
:10119000F0909D0500919E0510919F056DE677EEFC
:1011A0008CE191ECA80197010E946442C72ED82ED1
:1011B000A92E762F272F3C2D4D2D5A2D20938C05AF
:1011C00030938D0540938E0550938F05C801B7016C
:1011D0000E946542E62EF72E082F192F20E030E0FE
:1011E000A9010E941E45181624F017FB109517F947
:1011F0001095E0929005F09291050093920510935E
:101200009305DF91CF911F910F91FF90EF90DF90A9
:10121000CF90BF90AF90089584E061E00E94D338F2
:1012200084E060E00E94F7388FE161E00E94D338EB
:101230008FE160E00E94F73881E260E00E94D338DD
:1012400082E260E00E94D33883E260E00E94D338FB
:101250008BE261E00E94D3388CE261E00E94D338D7
:101260008DE261E00E94D3388EE261E00E94D338C3
:101270008BE261E00E94F7388CE261E00E94F7386F
:101280008DE261E00E94F7388EE261E00E94F7385B
:101290008BEB9AE00E94FA3F8CE08093B8000895AF
:1012A0000E94A2070E94C205089580E090E0DC0140
:1012B0008093AD059093AE05A093AF05B093B005B4
:1012C0008093B1059093B205A093B305B093B40594
:1012D0008093B5059093B605A093B705B093B80574
:1012E0008093B9059093BA05A093BB05B093BC0554
:1012F0008093BD059093BE05A093BF05B093C00534
:1013000008952F923F924F925F926F927F928F92A9
:101310009F92AF92BF92CF92DF92EF92FF920F9384
:101320001F93DF93CF93CDB7DEB7C855D0400FB62C
:10133000F894DEBF0FBECDBF69837A838B839C8315
:101340002D833E834F835887E986FA860B871C8757
:1013500005E116E083E090E0B801AE014F5F5F4F1A
:1013600029E036E00E94BB3583E090E061EC75E057
:10137000A8012DEF35E00E94BB350F2EF0E02F2E97
:10138000F0E03F2EF0E04F2EF0E05F2EF02D29AA86
:101390003AAA4BAA5CAA3501460197FA909497F8AD
:1013A0009094E090C905F090CA050091CB0510918A
:1013B000CC05C401B301A80197010E9429456DAB7A
:1013C0007EAB8FAB98AF8091C5059091C605A0917B
:1013D000C705B091C80569968CAF9DAFAEAFBFAFE2
:1013E0006997C601B50169962CAD3DAD4EAD5FADB7
:1013F00069970E94294569AF7AAF8BAF9CAFC60150
:10140000B501A80197010E942945FE01FD96608360
:10141000718382839383FE01EF5BFF4F20823182D1
:1014200042825382E090C105F090C2050091C3054D
:101430001091C405C401B301A80197010E94294578
:10144000FE01EB5BFF4F6083718382839383C40152
:10145000B30169962CAD3DAD4EAD5FAD69970E946D
:101460002945FE01E75BFF4F60837183828393838D
:10147000C601B501A80197010E942945FE01E35B61
:10148000FF4F6083718382839383FE01EF5AFF4F86
:101490002082318242825382ADE0CA2ED12CCC0E02
:1014A000DD1EF9EDAF2EF5E0BF2E83E090E063E0A6
:1014B00070E043E050E096018501E1E3EE2EF12C6F
:1014C000EC0EFD1E0E94F23583E090E063E070E0D8
:1014D000A501950186010E94B436C85ADF4F0FB6A8
:1014E000F894DEBF0FBECDBFCF91DF911F910F915A
:1014F000FF90EF90DF90CF90BF90AF909F908F9034
:101500007F906F905F904F903F902F9008958F92B3
:101510009F92AF92BF92CF92DF92EF92FF920F9382
:101520001F93DF93CF93CDB7DEB7A4970FB6F89490
:10153000DEBF0FBECDBF83E090E069ED75E045EE04
:1015400055E00E948134905820E030E040E05FE3B5
:101550000E942945B62EA72E982E892E83E090E072
:101560006E010894C11CD11CB60145EE55E0D501B1
:10157000F4010B2F1A2F2F2F3E2F0E944D352DE0F7
:10158000E22EF12CEC0EFD1E83E090E0B70149ED58
:1015900055E0D501F4010B2F1A2F2F2F3E2F0E945B
:1015A0004D3586E090E0B601A60129ED35E00E94B8
:1015B0008435CE014996B601A7010E94CC34EE24B1
:1015C000FF2446018701000F111F0E0D1F1D000F84
:1015D000111F000F111F6401C00ED11E83E090E0A7
:1015E000B601A6010E9481349B01AC01B9EDAB2E7E
:1015F000B5E0BB2EA00EB11E60E070E080E490E488
:101600000E94644220E030E040E05FE30E94294510
:101610008B019C0183E090E0B501A6010E944D354D
:101620000894E11CF11C83E0E816F10459F6A49635
:101630000FB6F894DEBF0FBECDBFCF91DF911F91E3
:101640000F91FF90EF90DF90CF90BF90AF909F9061
:101650008F9008952F923F924F925F926F927F9258
:101660008F929F92AF92BF92CF92DF92EF92FF92B2
:101670000F931F93DF93CF93CDB7DEB7EC970FB6E1
:10168000F894DEBF0FBECDBF3B014C0119012A010A
:1016900069837A838B839C832D833E834F83588712
:1016A000E986FA860B871C87A40193010E942945CD
:1016B0003B014C01C201B101A20191010E942945E7
:1016C0009B01AC01C401B3010E9465423B014C0186
:1016D000C801B701A80197010E9429459B01AC01EF
:1016E000C401B3010E9465420E94E245A601950132
:1016F0000E9449439B01AC0160E070E080E89FE3F9
:101700000E9464426B017C017D2D9F2D20E030E022
:10171000A9010E941E451816D4F46C2D7D2D8E2D26
:101720009F2D2C2D3D2D4E2D5F2D0E9465429B013E
:10173000AC0160E070E080E89FE30E94644220E03A
:1017400030E0A9010E94424387FF19C075C06C2D8B
:101750007D2D8E2D9F2D2C2D3D2D4E2D5F2D0E94EC
:10176000654220E030E040E85FE30E94654220E00F
:1017700030E0A9010E94424387FF1DC05DC06C2D6F
:101780007D2D8E2D9F2D2C2D3D2D4E2D5F2D0E94BC
:1017900065429B01AC0160E070E080E89FE30E943D
:1017A000644220E030E040E85FE30E941E451816E6
:1017B0000CF447C019C06C2D7D2D8E2D9F2D2C2D26
:1017C0003D2D4E2D5F2D0E94654220E030E040E827
:1017D0005FE30E94654220E030E040E85FE30E9462
:1017E0001E45181674F113C06C2D7D2D8E2D9F2D66
:1017F0002C2D3D2D4E2D5F2D0E9465429B01AC018D
:1018000060E070E080E89FE30E94644210C06C2DAD
:101810007D2D8E2D9F2D2C2D3D2D4E2D5F2D0E942B
:10182000654220E030E040E85FE30E946542F62E2A
:10183000E72ED82EC92E0BC0FF24EE24DD24CC24A5
:1018400006C0FF24EE24E0E8DE2E7FE3C72E6DE025
:10185000662E712C6C0E7D1EC301BE016F5F7F4F23
:1018600041EF55E00E94CC34A7019601652F7E2DF3
:10187000832F9C2D20912106309122064091230632
:10188000509124060E9429458B019C0183E090E041
:101890006DEF75E0A3010E944D3551E3252E312CEB
:1018A0002C0E3D1EA7019601652F7E2D832F9C2DAA
:1018B0002091250630912606409127065091280652
:1018C0000E9429458B019C0183E090E0B101A301B6
:1018D0000E944D3583E090E069E076E0AB01910134
:1018E0000E94843549E1C42ED12CCC0EDD1E6996B0
:1018F0006CAD7DAD8EAD9FAD69972091D9053091CE
:10190000DA054091DB055091DC050E9429457B01F9
:101910008C0165966CAD7DAD8EAD9FAD65972091C8
:10192000E5053091E6054091E7055091E8050E94F4
:1019300029459B01AC01C801B7010E9464428B019B
:101940009C0183E090E0B60141EF55E00E944D35E7
:1019500035E2E32EF12CEC0EFD1E009129061091CC
:101960002A0620912B0630912C0683E090E0B701E7
:10197000A6010E944D3583E090E06DEF75E0AB016C
:1019800097010E94843500912D0610912E0620911A
:101990002F063091300683E090E0B101A6010E944D
:1019A0004D3583E090E069E076E0AB0191010E9463
:1019B0008435EC960FB6F894DEBF0FBECDBFCF9145
:1019C000DF911F910F91FF90EF90DF90CF90BF902C
:1019D000AF909F908F907F906F905F904F903F90CF
:1019E0002F9008956091F5057091F6058091F705A7
:1019F0009091F8052091F9053091FA054091FB0589
:101A00005091FC050E94EF426093AD057093AE05C6
:101A10008093AF059093B0056091F1057091F20548
:101A20008091F3059091F4050E94C942905860930B
:101A3000B1057093B2058093B3059093B40560919E
:101A4000E5057091E6058091E7059091E805209104
:101A5000D9053091DA054091DB055091DC050E94F3
:101A6000EF426093B5057093B6058093B7059093E8
:101A7000B8050895AF92BF92CF92DF92EF92FF9296
:101A80000F931F93DF93CF93CDB7DEB72C970FB68D
:101A9000F894DEBF0FBECDBF69837A838B839C83AE
:101AA0002D833E834F835887E986FA860B871C87F0
:101AB00009ED15E083E090E0B8017E010894E11C97
:101AC000F11CA7010E9481346093CD057093CE056F
:101AD0008093CF059093D005B801645F7F4F83E07A
:101AE00090E0A7010E9481346093D1057093D205E4
:101AF0008093D3059093D405B801685E7F4F83E04F
:101B000090E0A7010E948134A60195010E946542E0
:101B10006093D5057093D6058093D7059093D8052B
:101B20002C960FB6F894DEBF0FBECDBFCF91DF91DC
:101B30001F910F91FF90EF90DF90CF90BF90AF90EB
:101B40000895AF92BF92CF92DF92EF92FF920F93E0
:101B50001F935B016C0179018A010E94550980E0A5
:101B600090E0DC018093FD059093FE05A093FF05B6
:101B7000B09300068093090690930A06A0930B0683
:101B8000B0930C068093010690930206A09303067F
:101B9000B093040680930D0690930E06A0930F0653
:101BA000B09310068093050690930606A09307064F
:101BB000B09308068093110690931206A093130623
:101BC000B0931406A092D905B092DA05C092DB0555
:101BD000D092DC05A801970150582093DD05309381
:101BE000DE054093DF055093E0058093E105909377
:101BF000E205A093E305B093E405E092E505F092D9
:101C0000E6050093E7051093E805A092E905B09278
:101C1000EA05C092EB05D092EC058093ED05909318
:101C2000EE05A093EF05B093F0058093F105909336
:101C3000F205A093F305B093F4058093F505909316
:101C4000F605A093F705B093F80580E090E0A0E8D2
:101C5000BFE38093F9059093FA05A093FB05B09339
:101C6000FC058DEC9CECACECBDE3809321069093DD
:101C70002206A0932306B093240687E197EBA1E503
:101C8000B9E38093250690932606A0932706B09388
:101C900028068DEC9CECACECBDEB80932906909370
:101CA0002A06A0932B06B0932C0687E197EBA1E5BB
:101CB000B9EB80932D0690932E06A0932F06B09338
:101CC00030061F910F91FF90EF90DF90CF90BF9063
:101CD000AF9008952F923F924F925F926F927F92B2
:101CE0008F929F92AF92BF92CF92DF92EF92FF922C
:101CF0000F931F93DF93CF93CDB7DEB73501460126
:101D0000298C3A8C4B8C5C8CA9A4BAA4CBA4DCA4FF
:101D10000E9481090E94870A8DB79EB708970FB667
:101D2000F8949EBF0FBE8DBF89A19AA1ABA1BCA1A3
:101D3000EDB7FEB781839283A383B4838DA19EA167
:101D4000AFA1B8A585839683A783B087C401B301EB
:101D50002D893E894F89588D82017101AD8CBE8CD1
:101D6000CF8CD8A00E942A0B8DB79EB708960FB6CD
:101D7000F8949EBF0FBE8DBF0E94F20CC401B30148
:101D80002D893E894F89588DAD8CBE8CCF8CD8A0C3
:101D90000E943A0DCF91DF911F910F91FF90EF902C
:101DA000DF90CF90BF90AF909F908F907F906F907B
:101DB0005F904F903F902F900895909332068093BC
:101DC00031062CED35E030934E0620934D063093CE
:101DD000500620934F06309352062093510628EE6A
:101DE00033E03093540620935306309356062093E5
:101DF0005506309358062093570630935A06209381
:101E0000590630935C0620935B0640E021E030E009
:101E100007C0EE0FFF1FE35AF94F318320834F5F56
:101E2000E42FF0E0E817F907A4F32CED35E0309348
:101E300048062093470630934A062093490630937C
:101E40004C0620934B0660E020E030E040E85FE382
:101E50000BC0EE0FFF1FEE0FFF1FE359F94F20835A
:101E60003183428353836F5FE62FF0E0E817F90771
:101E700084F360E020E030E040E85FE30BC0EE0F69
:101E8000FF1FEE0FFF1FE357F94F2083318342837B
:101E900053836F5FE62FF0E0E817F90784F360E003
:101EA00020E030E040E85FE30BC0EE0FFF1FEE0FD5
:101EB000FF1FE355F94F20833183428353836F5FC4
:101EC000E62FF0E0E817F90784F3089590E0880F13
:101ED000991FFC01E35BF94F895B994F6081718128
:101EE000FC0180819181681B790B882777FD8095A3
:101EF000982F0E94E4432BE037ED43EA5BE30E9416
:101F0000294508951F920F920FB60F920BB60F92AC
:101F100011245F926F927F928F929F92AF92BF92A5
:101F2000CF92DF92EF92FF920F931F932F933F93E5
:101F30004F935F936F937F938F939F93AF93BF93D1
:101F4000CF93DF93EF93FF93EBE8F2E085919491C9
:101F5000FC0180811091CC0718278093CC078091D9
:101F60006D00182309F479C00E94A637A0E0B0E004
:101F700021E0622E712CCBE0D0E000E2802E01ED5A
:101F8000902E0FEFA02E0FEFB02E552453949301F7
:101F90000A2E02C0220F331F0A94E2F7322F312398
:101FA00009F456C03091CC07322339F1AC9FF001CF
:101FB000AD9FF00DBC9FF00D1124E759F84F25811E
:101FC0003681478150856183728383839483750151
:101FD0006401C21AD30AE40AF50AA7019601260F82
:101FE000371F481F591F213E0EE2300700E040070F
:101FF00000E0500760F550822BC0AC9FF001AD9F10
:10200000F00DBC9FF00D1124E759F84F218132816A
:10201000438154816B017C01C21AD30AE40AF50A98
:102020006583768387839087A7019601265B33407B
:1020300040405040263604E0300700E0400700E012
:10204000500730F42081213019F4D286C1861082E5
:102050001196A830B10509F09ACFFF91EF91DF9169
:10206000CF91BF91AF919F918F917F916F915F9130
:102070004F913F912F911F910F91FF90EF90DF9023
:10208000CF90BF90AF909F908F907F906F905F9018
:102090000F900BBE0F900FBE0F901F9018950E94CF
:1020A000DD0E109207011092080120916D0081E071
:1020B00090E00090310602C0880F991F0A94E2F761
:1020C0008150822B80936D008091680084608093A2
:1020D0006800409131065091320660E02BE030E01C
:1020E00010C0865C9C4FFC01808190E0829FF001D3
:1020F000839FF00D929FF00D1124E759F84F108245
:102100006F5F862F90E0841795075CF30895EAE3EC
:10211000F3E0E80FF11D20814FB7F89430E08BE039
:1021200090E0289FF001299FF00D389FF00D1124B9
:10213000E759F84F218532854FBFC90108952F9285
:102140003F924F925F926F927F928F929F92AF9247
:10215000BF92CF92DF92EF92FF920F931F93CF9394
:10216000DF93DD2453C08E01000F111F000F111FDC
:10217000F801E359F94F80809180A280B3808D2DC2
:102180000E9487109C01B901882777FD8095982FC0
:102190000E94E4439B01AC01C501B4010E942945A2
:1021A000F801E357F94F20813181428153810E9428
:1021B00065420E94B143CC0FDD1FFE01E95CF94F7F
:1021C00071836083882777FD8095982F0E94E44370
:1021D0004B015C01C35AD94F68817981882777FD0B
:1021E0008095982F0E94E4439B01AC01F801E355D0
:1021F000F94FE080F18002811381C501B4010E9492
:102200002A340E94B14379836883D394CD2DD0E0E2
:102210006090310670903206C615D7050CF4A3CF36
:1022200020903306309034064090350650903606A4
:10223000CDE5D6E057E4E52E56E0F52E4DE4C42E6C
:1022400046E0D42E69917991D7010D911D917D01C0
:10225000601B710B882777FD8095982F0E94E443BF
:10226000A20191010E9429454B015C01B801882718
:1022700077FD8095982F0E94E4439B01AC01C50136
:10228000B4010E9465420E94B143F60161937193CB
:102290006F01F6E0C336DF07A9F623E00EC0880F12
:1022A000991FFC01E35BF94F835A994FDC018D9133
:1022B0009C911197918380832F5F822F90E08615E8
:1022C00097056CF3DF91CF911F910F91FF90EF90E5
:1022D000DF90CF90BF90AF909F908F907F906F9046
:1022E0005F904F903F902F9008958091CF069091EE
:1022F000D006880F991F90939B0080939A0080913D
:10230000D1069091D206880F991F90939D008093DB
:102310009C008091D3069091D406880F991F9093CA
:102320009900809398008091D5069091D606880FE9
:10233000991F9093A9008093A80020911203263042
:1023400011F0283051F58091D7069091D806880F6A
:10235000991F9093AB008093AA008091D906909129
:10236000DA06880F991F9093AD008093AC00283057
:10237000A1F48091DB069091DC06880F991F909361
:102380008900809388008091DD069091DE06880F99
:10239000991F90938B0080938A000895880F991F4E
:1023A00090939B0080939A0090939D0080939C0053
:1023B00090939900809398009093A9008093A8002F
:1023C00020911203263011F0283091F49093AB0045
:1023D0008093AA009093AD008093AC00283041F424
:1023E000909389008093880090938B0080938A005B
:1023F0000895809312039DB198639DB9843021F4B0
:1024000080910101886005C0863031F4809101011E
:102410008863809301010AC0883041F480910101F2
:1024200088638093010184B1806684B988EE93E06B
:102430000E94CE118AEA809390003AE13093910095
:102440008AE09AE19093970080939600209112037E
:10245000243031F422E82093A0003093A1000CC076
:10246000263011F0283061F48AEA8093A0008AE1D6
:102470008093A1008AE09AE19093A7008093A60040
:1024800080911203883061F482EA809380008AE1AF
:10249000809381008AE09AE1909387008093860080
:1024A00008950F931F93082F10E015C08CE494E05B
:1024B0000E94CE116AEF70E080E090E00E94CC377D
:1024C00088EE93E00E94CE116AEF70E080E090E029
:1024D0000E94CC371F5F101748F31F910F9108958A
:1024E000882349F47091DF066091E0069091E1063F
:1024F0008091E20608C07091E3066091E406909135
:10250000E5068091E606AB019C01652F742F832FB1
:10251000922F0895CF93DF93EC010E949E339C018C
:10252000B901882777FD8095982F0E94E44368833E
:1025300079838A839B830E949E3366277727681B53
:10254000790B882777FD8095982F0E94E4436C8350
:102550007D838E839F830E949E3366277727681B27
:10256000790B882777FD8095982F0E94E443688730
:1025700079878A879B87DF91CF9108952F923F9229
:102580004F925F926F927F928F929F92AF92BF9283
:10259000CF92DF92EF92FF920F931F93DF93CF932F
:1025A000CDB7DEB766970FB6F894DEBF0FBECDBFCE
:1025B0007B018C0159016A018EE190E063E00E9489
:1025C00059338BEB9AE06EE170E046E050E00E94F8
:1025D000124083EF96E00E948A128EE190E062E062
:1025E00041E00E9404346091F3067091F4068091FA
:1025F000F5069091F6062091FF0630910007409174
:102600000107509102070E946542562E472E382E30
:10261000292EA2019101852F942FA32FB22F8093F1
:10262000E7069093E806A093E906B093EA06609166
:10263000F7067091F8068091F9069091FA062091BC
:1026400003073091040740910507509106070E9447
:10265000654269837D8389879A87472F382F292F81
:10266000862F942FA32FB22F8093EB069093EC0626
:10267000A093ED06B093EE066091FB067091FC0608
:102680008091FD069091FE06209107073091080782
:102690004091090750910A070E9465426B877C8729
:1026A0008D879E87472F382F292F862F942FA32F72
:1026B000B22F8093EF069093F006A093F106B093AB
:1026C000F206C801B7010E9446436F87788B898B59
:1026D0009A8BC801B7010E94D8456B8B7C8B8D8B80
:1026E0009E8BC601B5010E9446433B014C01C601C9
:1026F000B5010E94D8457B018C01A2019101652F93
:10270000742F832F922FA40193010E9429455B010E
:102710006C0159814D8139852A85652F742F832F4E
:10272000922F2B893C894D895E890E942945A801F9
:1027300097010E9429459B01AC01C601B5010E9489
:1027400065425B016C015B854C853D852E85652F5F
:10275000742F832F922F2F85388949895A890E9497
:102760002945A80197010E9429459B01AC01C6019A
:10277000B5010E946542662ED72E582EC92E59816A
:102780004D8139852A85652F742F832F922F2F85B0
:10279000388949895A890E9429457B018C015B85CA
:1027A0004C853D852E85652F742F832F922F2B8985
:1027B0003C894D895E890E9429459B01AC01C80175
:1027C000B7010E946442162FA72EE82E092F862FEC
:1027D0009A2DAE2DB02F89839A83AB83BC83662D4F
:1027E0007D2D852D9C2D262D3D2D452D5C2D0E946A
:1027F00029456D837E838F839887612F7A2D8E2D57
:10280000902F212F3A2D4E2D502F0E9429459B01AC
:10281000AC016D817E818F8198850E9465420E9406
:10282000E2457B018C01662D7D2D852D9C2DA80117
:1028300097010E9449436093DF067093E0068093FE
:10284000E1069093E20669817A818B819C819058A0
:10285000A80197010E9449436093E3067093E40640
:102860008093E5069093E60666960FB6F894DEBF71
:102870000FBECDBFCF91DF911F910F91FF90EF90D1
:10288000DF90CF90BF90AF909F908F907F906F9090
:102890005F904F903F902F9008956AE070E080E045
:1028A00090E00E94CC378EE190E00E94DE338031D0
:1028B00089F48091490590914A05A0914B05B0910A
:1028C0004C0584608093490590934A05A0934B057D
:1028D000B0934C058EE190E061E040E20E94043448
:1028E00064E170E080E090E00E94CC378EE190E0FF
:1028F00062E041E00E94043464E170E080E090E036
:102900000E94CC3760E070E0CB019B01AC010E94DB
:10291000BE12089560910B0770910C0780910D070E
:1029200090910E07209113073091140740911507DD
:10293000509116070E9464420895409117034295F2
:10294000440F440F407C4C5C87E790E064EF0E94AA
:1029500004340895EF92FF920F931F93CF93DF9368
:1029600087E790E066EF0E945933CBEBDAE0CE01C7
:1029700067E770E043E050E00E941240CE010E9401
:10298000733F7C01CE010E94733F8C01CE010E94F7
:10299000733F9701442737FD4095542FA9013327F2
:1029A0002227B8017B010027F7FC0095102F102F7C
:1029B0000F2DFE2CEE242E293F29402B512BAA2728
:1029C00097FDA095BA2F282B392B4A2B5B2B6091B2
:1029D000170388E090E0861B910904C0569547953F
:1029E000379527958A95D2F7B901CA01DF91CF9122
:1029F0001F910F91FF90EF90089587E790E064EFAB
:102A00004EE20E940434089587E790E066EF0E944A
:102A1000593387E790E00E94B8330895EF92FF9210
:102A20000F931F9380913A07882391F1E0903B0721
:102A3000F0903C0700913D0710913E070E94AA14B8
:102A40000E94E4439B01AC01C801B7010E946542AA
:102A500060933B0770933C0780933D0790933E073C
:102A600080913F078F5F80933F07809139078430C3
:102A700039F40E94FD141092390710923A0702C0EF
:102A80000E949D14809139078F5F8093390711C090
:102A90000E940415A0E0B0E08093350790933607BC
:102AA000A0933707B09338070E949D1481E080936C
:102AB0003A071F910F91FF90EF9008955F926F92E8
:102AC0007F928F929F92AF92BF92CF92DF92EF92BE
:102AD000FF920F931F93DF93CF9300D000D0CDB719
:102AE000DEB74091350750913607609137077091F6
:102AF0003807809121079091220720911F0730917C
:102B000020076090290770902A0780902B079090EB
:102B10002C07E0903F07EE2009F4E1C1A0E0B0E00F
:102B20005A016B01A81AB90ACA0ADB0AC601B50123
:102B300040E050E00E9417475B016C017FE0D594B4
:102B4000C794B794A7947A95D1F7FF24B701882743
:102B500077FD8095982F0E94E4439B01AC01609122
:102B60003B0770913C0780913D0790913E070E9482
:102B700049430E94B14369837A838B839C8360932A
:102B8000310770933207809333079093340780E0C6
:102B900090E0DC0180933B0790933C07A0933D07B6
:102BA000B0933E0710923F0760E6E62E60EFF62EE8
:102BB0006FEF062F6FEF162FEA0CFB1C0C1D1D1D6F
:102BC000B301882777FD8095982F5BE0660F771F0C
:102BD000881F991F5A95D1F79401442737FD4095D6
:102BE000542F2A0D3B1D4C1D5D1D0E946B47E20EAC
:102BF000F31E041F151FC801B701A80197010E9409
:102C000017473B014C014CE0959487947794679467
:102C10004A95D1F72091190730911A07442737FDBB
:102C20004095542FC801B7010E9417475B016C0102
:102C30003BE0D594C794B794A7943A95D1F7809187
:102C4000170790911807AA2797FDA095BA2F22E0A1
:102C5000880F991FAA1FBB1F2A95D1F7A80EB91E6E
:102C6000CA1EDB1E2091250730912607442737FD19
:102C70004095542FC401B3010E941747ABE09595CE
:102C8000879577956795AA95D1F7A60EB71EC81EAA
:102C9000D91E5090170320911B0730911C07442721
:102CA00037FD4095542FC801B7010E9417477B019B
:102CB0008C01FDE015950795F794E794FA95D1F707
:102CC00082E090E0A0E0B0E0E80EF91E0A1F1B1FB2
:102CD0002091230730912407442737FD4095542F36
:102CE000C401B3010E941747BC01992777FD909555
:102CF000892FE60EF71E081F191F52E0159507953C
:102D0000F794E7945A95D1F780E090E8A0E0B0E01E
:102D1000E80EF91E0A1F1B1F20911D0730911E0788
:102D200040E050E0C801B7010E9417477B018C01C9
:102D30004FE016950795F794E7944A95D1F7052C3F
:102D400004C0AA0CBB1CCC1CDD1C0A94D2F782E088
:102D500090E0A0E0B0E0A80EB91ECA1EDB1E32E073
:102D6000D594C794B794A7943A95D1F769817A819D
:102D70008B819C816A197B098C099D0920E533ECC4
:102D800040E050E004C055954795379527955A94F3
:102D9000D2F70E94174797FD0BC0660F771F881F59
:102DA000991FA80197010E94494779018A010AC029
:102DB000A80197010E94494779018A01EE0CFF1C86
:102DC000001F111F552717FD5A95412F302F2F2D0A
:102DD000CA01B9010E9417472EED3BE040E050E0E8
:102DE0000E9417475B016C01C801B70123E433EE71
:102DF0004FEF5FEF0E941747BC01992777FD909531
:102E0000892F6153714F8F4F9F4F5601DD24B7FCBF
:102E1000D094CD2C6A0D7B1D8C1D9D1DE4E09595F5
:102E2000879577956795EA95D1F76E0D7F1D801F81
:102E3000911F60932D0770932E0780932F07909317
:102E400030070E94E44320E836EE45EC57E40E9448
:102E50004943209118033091190340911A0350916E
:102E60001B030E948C45562F472F382F292F60E0D7
:102E700070E080E89FE3DA01F9012B2F3A2F4F2F02
:102E80005E2F0E94644220E03AE24DE257E40E9445
:102E90002945262F372F482F592F20930F0730937E
:102EA0001007409311075093120720910B073091A0
:102EB0000C0740910D0750910E07E0901303F0901E
:102EC000140300911503109116030E942A34609395
:102ED0000B0770930C0780930D0790930E070F90CC
:102EE0000F900F900F90CF91DF911F910F91FF9056
:102EF000EF90DF90CF90BF90AF909F908F907F909A
:102F00006F905F9008950E940E150E945E150895BF
:102F1000EF92FF920F931F93CF93DF93C9E1D0E01D
:102F2000EE24FF2400E010E00E9483176E2D7F2D19
:102F3000802F912F20910F0730911007409111079A
:102F4000509112070E9465427B018C016CE070E099
:102F500080E090E00E94CC37219731F76E2D7F2DD5
:102F6000802F912F20E030E048EC51E40E9449434B
:102F700060931307709314078093150790931607B7
:102F8000DF91CF911F910F91FF90EF900895AF9235
:102F9000BF92CF92DF92EF92FF920F931F9381E047
:102FA0008093170310922D0710922E0710922F076F
:102FB0001092300780E090E0DC018093130790933B
:102FC0001407A0931507B09316078EEA9CEDA2E4B0
:102FD000BEE38093180390931903A0931A03B09350
:102FE0001B0387E790E00E94DE33882389F48091F9
:102FF000490590914A05A0914B05B0914C05886018
:103000008093490590934A05A0934B05B0934C05D6
:1030100087E790E06AEA0E9459338BEB9AE067E712
:1030200070E046E150E00E9412400E949E3390936F
:103030001807809317070E949E3390931A07809376
:1030400019070E949E3390931C0780931B070E94D0
:103050007F3390931E0780931D070E947F339093C8
:10306000200780931F070E947F339093220780934D
:1030700021070E949E3390932407809323070E9488
:103080009E3390932607809325070E949E3390934A
:103090002807809327070E949E3390932A078093E6
:1030A00029070E949E3390932C0780932B070E9440
:1030B000FD1410923A07109239070E94831765E0B9
:1030C00070E080E090E00E94CC370E9483176AE0B5
:1030D00070E080E090E004C06AE170E080E090E0A1
:1030E0000E94CC370E948817A0901307B090140755
:1030F000C0901507D090160760910F0770911007C8
:103100008091110790911207A60195010E946442D7
:103110007B018C017F2D912F20E030E0A9010E94DE
:103120001E4518166CF46E2D7F2D802F912F20E0F8
:1031300030E040E251E40E941E4518166CF20CC0CB
:103140006E2D7F2D802F912F20E030E040E251EC5A
:103150000E94424387FDC0CFA0920B07B0920C079C
:10316000C0920D07D0920E071F910F91FF90EF9024
:10317000DF90CF90BF90AF900895EF92FF920F93A2
:103180001F937B018C0120E030E048EC52E40E9468
:1031900029450E94B64370931D0360931C03C80128
:1031A000B7012DEC3CEC4CE85FE30E94294520E0A0
:1031B00030E048EC52E40E9429450E94B6437093E7
:1031C0001F0360931E031F910F91FF90EF900895CE
:1031D000909140078917E0F490E027E130E0829F6A
:1031E000F001839FF00D929FF00D1124E05EFC4FE3
:1031F00080EB94E0978386838CEA96E291878087C0
:10320000108A1786128A118A138A148A158A168AD6
:10321000089590E027E130E0829FF001839FF00D58
:10322000929FF00D1124E05EFC4F8181882379F498
:103230008681978121E0843F920730F023E08C352E
:10324000920720F482E0089581E0089583E00895D4
:103250001F93182F0E940919412F50E027E130E0F9
:10326000429FF001439FF00D529FF00D1124E05E4C
:10327000FC4F90E040911C0350911D03849F9001EE
:10328000859F300D949F300D112481E04681578138
:103290004217530708F080E01F9108951F93182FDD
:1032A0000E940919412F50E027E130E0429FF001D0
:1032B000439FF00D529FF00D1124E05EFC4F90E013
:1032C00040911E0350911F03849F9001859F300DF4
:1032D000949F300D112481E0468157814217530796
:1032E00008F080E01F9108952F923F924F925F92D5
:1032F0006F927F929F92AF92BF92CF92DF92EF92A6
:10330000FF920F931F93DF93CF9300D000D0CDB7E0
:10331000DEB7109241071092420720E233E000E04E
:1033200010E0A12C44E0B42EC12CD12C2C01662439
:10333000772499249394190149825A826B827C8262
:103340009AC0F10180810E942B379C01B901882726
:1033500077FD8095982FF10122813381442737FD35
:103360004095542F0E941747A60195010E946B4774
:10337000F10184819581820F931F97838683208535
:1033800031858217930710F491878087F101828538
:103390008F3F09F45BC00E942B377C01F1016385EC
:1033A0007485882777FD8095982F2AE030E040E0EB
:1033B00050E00E9417479701442737FD4095542F4E
:1033C0000E941747A60195010E946B4729013A0107
:1033D000F10125853685C901880F991FA3E0220FC9
:1033E000331FAA95E1F7820F931F840D951D908BD3
:1033F0008787218932892817390714F4928B818BAA
:10340000F10167857089882777FD8095982F2BE5D6
:1034100030E040E050E00E94174729813A814B811B
:103420005C810E94174720E030E840E050E00E94B5
:103430006B47F10183899489A589B689820F931F0F
:10344000A41FB51F838B948BA58BB68BE02E802F8A
:103450000E942819882311F0909241078E2D0E9416
:103460004E19882311F0909242070F5F1F4F27E1FA
:1034700030E0220E331E8091400790E008171907B4
:103480000CF45FCF0F900F900F900F90CF91DF91C2
:103490001F910F91FF90EF90DF90CF90BF90AF9072
:1034A0009F907F906F905F904F903F902F900895E6
:1034B000CF93DF9380934007CB01BA010E94BD18E0
:1034C000C0E0D0E004C08C2F0E94E81821968091C3
:1034D000400790E0C817D907B4F380E090E00E945D
:1034E0007419DF91CF910895CF93DF93E091020398
:1034F000F0910303209147073091480722303105AE
:1035000024F0B9017595679508C0C90162E070E0C3
:103510000E943647709561957F4FE61BF70B6091CF
:10352000450770914607DF01A61BB70B4091430783
:103530005091440780913703C82FD0E0C29FC0014B
:10354000C39F900DD29F900D11249A01281B390B17
:103550002A0F3B1F3093D0062093CF069C01241BDB
:10356000350B2A0F3B1F3093D2062093D106E60F6E
:10357000F71F9C01240F351F2E0F3F1F3093D606D7
:103580002093D506E41BF50BE81BF90BF093D4064A
:10359000E093D306DF91CF910895CF92DF92EF921F
:1035A000FF920F931F93CF93DF938091AB038130F2
:1035B00009F08BC00E948A147B018C0120E030E06E
:1035C0004AE754EC0E944243882309F47EC060918C
:1035D000A6037091A7038091A8039091A903A80165
:1035E00097010DE814E00E9402020E94B143C091CD
:1035F0000A03D0910B036C177D074CF020910C034C
:1036000030910D03EB01261737070CF4E901009107
:10361000080310910903E0905306F0905406C80186
:103620008E199F0997FF03C0909581959F4F209118
:103630000603309107032817390724F482E08093AA
:10364000AB033CC0C0900403D0900503C601800FBB
:10365000911F8E159F05B4F46091A6037091A70386
:103660008091A8039091A9032AE037ED43E25CE33F
:103670000E9465426093A6037093A7038093A803FA
:103680009093A903C8018C199D09E816F906B4F4B2
:103690006091A6037091A7038091A8039091A9035C
:1036A0002AE037ED43E25CE30E9464426093A603A4
:1036B0007093A7038093A8039093A903C00FD11F11
:1036C000D0930303C093020308C0809153069091E6
:1036D00054069093030380930203DF91CF911F91CF
:1036E0000F91FF90EF90DF90CF9008958F929F926F
:1036F000AF92BF92CF92DF92EF92FF920F931F9300
:1037000080917703813009F07BC060914D06709104
:103710004E068091470690914806681B790B8827D2
:1037200077FD8095982F0E94E44326EA3BE944EC1C
:103730005AE30E9429452091AD053091AE05409194
:10374000AF055091B00501E014E00E9402026B0148
:103750007C0160914F0670915006809149069091CE
:103760004A06681B790B882777FD8095982F0E9461
:10377000E44326EA3BE944EC5AE30E9429452091C0
:10378000B1053091B2054091B3055091B405505840
:103790000DE114E00E9402024B015C0160914D05B5
:1037A00070914E0580914F05909150052AE939E9B5
:1037B00049E95FE30E9429459B01AC01C701B601BD
:1037C00005E514E00E9402020E94B1437093440791
:1037D00060934307609151057091520580915305A4
:1037E0009091540590582AE939E949E95FE30E942C
:1037F00029459B01AC01C501B40101E714E03BC0C0
:1038000080E00E94660F7B018C0160914D057091F4
:103810004E0580914F05909150052DEC3CEC4CE409
:103820005FE30E9429459B01AC01C801B7010DEA85
:1038300013E00E9402020E94B14370934407609318
:10384000430781E00E94660F7B018C016091510566
:1038500070915205809153059091540590582DEC2C
:103860003CEC4CE45FE30E9429459B01AC01C8019C
:10387000B70109EC13E00E9402020E94B143709369
:103880004607609345071F910F91FF90EF90DF90DF
:10389000CF90BF90AF909F908F90089580917603C6
:1038A0008330D1F08530A1F1813019F480ED97E0BB
:1038B00002C088EE93E09093D0068093CF06909359
:1038C000D2068093D1069093D4068093D30690932A
:1038D000D6068093D50638C08091FC029091FD02F7
:1038E0009C0144E0813B940714F020EB34E0EFECC2
:1038F000F6E043E0883E940714F0A90102C048EEC8
:1039000053E04193519346E0E73DF40791F71CC023
:10391000E9E5F7E0AFECB6E08191919123E0883ED4
:1039200092073CF044E0813B94072CF080EB94E05C
:1039300002C088EE93E08D939D9387E0E136F8070F
:1039400059F781E080937F030E94751108956F926B
:103950007F928F929F92AF92BF92CF92DF92EF921F
:10396000FF920F931F93CF93DF93C0910203D091E7
:1039700003036091AD057091AE058091AF05909104
:10398000B00525E33AEF4EE85CE30E9429450E942A
:1039900046435B016C016091B1057091B205809165
:1039A000B3059091B40525E33AEF4EE85CE30E943D
:1039B00029450E9446437B018C01BE01882777FD83
:1039C0008095982F0E94E4433B014C01C601B5014C
:1039D000A80197010E9429459B01AC01C401B301D4
:1039E0000E9449430E94B1436C1B7D0B613A7105F3
:1039F00014F060EA70E080917403909175038C0F6D
:103A00009D1F77FF02C060E070E0680F791F83E0C0
:103A1000683E78073CF087E06B3378072CF06AE368
:103A200077E002C068EE73E07093030360930203D3
:103A3000DF91CF911F910F91FF90EF90DF90CF908A
:103A4000BF90AF909F908F907F906F9008952F922E
:103A50003F924F925F926F927F928F929F92AF921E
:103A6000BF92CF92DF92EF92FF920F931F93DF935B
:103A7000CF93CDB7DEB727970FB6F894DEBF0FBE52
:103A8000CDBF80917C0390917D03EFECF6E0DF01E8
:103A900040E050E02D913D9161E077E0203D370717
:103AA0000CF460E0562B61E0821793070CF460E0A1
:103AB000462B26E0A73DB20769F75523B1F42091C4
:103AC0008003222391F090935207809351079093A3
:103AD000540780935307909356078093550790930C
:103AE000580780935707109280034423C1F48091B4
:103AF00081038823A1F080ED97E090934A0780939B
:103B0000490790934C0780934B0790934E078093FF
:103B10004D079093500780934F0710928103209098
:103B2000CF063090D0064090D1065090D2066090DB
:103B3000D3067090D4068090D5069090D60640911A
:103B40007C0350917D035C834B8330918003A09074
:103B50005107B0905207C0905307D0905407E0909F
:103B60005507F0905607009157071091580720917C
:103B700081039091490750914A075D8370914B07EB
:103B800060914C0750914D0740914E0780914F072F
:103B90008983A0915007AA83B92FAD815F834E839B
:103BA0008191919147E0803D94073CF0332329F4C3
:103BB000840173016201510131E04B815C8148173E
:103BC00059075CF0222349F489829A826F827E82AF
:103BD000742D652DB22DA32D21E056E0E73DF507AC
:103BE000F9F65F814E8130938003A0925107B09225
:103BF0005207E3E5F7E0C0925307D182E092550700
:103C0000F38200935707158320938103B0934907EC
:103C1000A0934A07EBE4F7E070934B07618350935E
:103C20004D074383798170934F078A818583279657
:103C30000FB6F894DEBF0FBECDBFCF91DF911F91BD
:103C40000F91FF90EF90DF90CF90BF90AF909F903B
:103C50008F907F906F905F904F903F902F9008953E
:103C60006F927F928F929F92AF92BF92CF92DF928C
:103C7000EF92FF920F931F9380916603813009F0BA
:103C800067C16091B5057091B6058091B7059091B7
:103C9000B80521EE3EE245E652E40E9429457B014B
:103CA0008C01862F9F2DA02FB12F80936B039093B3
:103CB0006C03A0936D03B0936E03A0906107B09066
:103CC0006207C0906307D09064076E2D7F2D802F10
:103CD000912FA60195010E946442962E872E782E80
:103CE000692EA4019301852F942FA32FB22F8093C7
:103CF0006F0390937003A0937103B0937203C60196
:103D0000B50120E030E044E353E40E9464429B01AB
:103D1000AC016E2D7F2D802F912F0E9442431816EB
:103D2000A4F0A4019301652F742F832F922F20E01C
:103D300030E044EB53E40E94654260936F0370935C
:103D400070038093710390937203C601B50120E064
:103D500030E044E353E40E9465429B01AC016E2DC8
:103D60007F2D802F912F0E941E4587FD16C06091E8
:103D70006F0370917003809171039091720320E042
:103D800030E044EB53E40E94644260936F0370930D
:103D90007003809371039093720380915306909106
:103DA000540624E08D3492070CF4B3C08091510680
:103DB00090915206835C95408333910510F18E2DCE
:103DC0009F2DA02FB12F8093610790936207A0933E
:103DD0006307B093640780E090E0DC0180936703A1
:103DE00090936803A0936903B0936A0380934D0492
:103DF00090934E04A0934F04B09350041092730319
:103E000077C0A0906F03B0907003C0907103D09002
:103E10007203C601B50120E030E040E85EE30E9495
:103E2000424387FF0BC0C601B50120E030E040E807
:103E30005EEB0E941E4518160CF477C08091730348
:103E4000882309F044C08091920390919303A0913C
:103E50009403B091950320916507309166074091D6
:103E60006707509168075C016D01A21AB30AC40A82
:103E7000D50AA6019501213261EA360767E04607B7
:103E800060E0560708F464C021E020937303809338
:103E9000650790936607A0936707B09368078E2D18
:103EA0009F2DA02FB12F8093610790936207A0935D
:103EB0006307B093640780E090E0DC0180936703C0
:103EC00090936803A0936903B0936A0341C060E0D4
:103ED00070E0CB01A601950109E314E00E94020203
:103EE00060936703709368038093690390936A03F8
:103EF0008091920390919303A0919403B0919503C4
:103F00008093650790936607A0936707B09368074F
:103F10001FC08E2D9F2DA02FB12F809361079093EE
:103F20006207A0936307B093640780E090E0DC0130
:103F30008093670390936803A0936903B0936A0327
:103F400080934D0490934E04A0934F04B09350047B
:103F500082E00E94660F7B018C0160916703709183
:103F600068038091690390916A0325E33AEF4EE874
:103F70005CE30E9429459B01AC01C801B7010E9486
:103F80006542F62E072F182FE92E2BED3FE049E46E
:103F900050EC0E94424387FD13C06F2D702F812F7C
:103FA0009E2D2BED3FE049E450E40E941E4518167B
:103FB0006CF4FBEDFF2E0FE019E4E0E4EE2E06C0FA
:103FC0007BEDF72E0FE019E460ECE62E209155050D
:103FD0003091560540915705509158056F2D702F1F
:103FE000812F9E2D05EE13E00E9402020E94B14334
:103FF00070934807609347071F910F91FF90EF90D0
:10400000DF90CF90BF90AF909F908F907F906F90F8
:104010000895CF93DF930E94761B0E94301E8091FB
:10402000780380FD04C00E94CD1A0E94A71C8091D5
:104030007E03882331F080917F03882311F00E9452
:10404000741A0E94271D809153069091540624E013
:104050008C349207A4F480917C0390917D0390931B
:104060004A078093490790934C0780934B0790939E
:104070004E0780934D079093500780934F07C1E5FB
:10408000D7E0AFECB6E0E9E4F7E02D913C91119771
:10409000899199912817390734F0808191812817E7
:1040A00039070CF4C9018D939D93329687E0C93589
:1040B000D80759F780917E03882311F40E944E1C83
:1040C00080917E03813031F480917F03813011F43F
:1040D0000E947511DF91CF910895CF92DF92EF92F8
:1040E000FF920F931F93DF93CF9300D000D0CDB7F3
:1040F000DEB7C82ED92E8E010F5F1F4FA5E0EA2E26
:10410000F12CEC0EFD1E84E79AE0B6010E94613F9F
:10411000F80181938F010894C11CD11CEE15FF0595
:1041200091F759814A813B812C81652F742F832F10
:10413000922F0F900F900F900F90CF91DF911F91C2
:104140000F91FF90EF90DF90CF900895CF92DF9284
:10415000EF92FF920F931F93DF93CF9300D000D085
:10416000CDB7DEB769837A838B839C838E010F5F23
:104170001F4FE42EF52EB5E0CB2ED12CCC0EDD1E3C
:10418000F80141918F0184E79AE0B7010E94653FF1
:104190000894E11CF11C0C151D0591F70F900F9070
:1041A0000F900F90CF91DF911F910F91FF90EF90A3
:1041B000DF90CF900895EF92FF920F931F93CF93CC
:1041C000DF938B01E82EFF24CB010E946D202CE1B0
:1041D00030E0E29EE001E39ED00DF29ED00D11246E
:1041E000C355DC4F688379838A839B83C801049617
:1041F0000E946D206C837D838E839F83C801089607
:104200000E946D20688779878A879B8780E090E08D
:10421000DC018C879D87AE87BF878C8B9D8BAE8B97
:10422000BF8BDF91CF911F910F91FF90EF90089579
:104230000F931F93CF93DF938B0190E02CE130E03D
:10424000829FE001839FD00D929FD00D1124C35512
:10425000DC4F688179818A819B81A8010E94A62018
:104260006C817D818E819F81A8014C5F5F4F0E9490
:10427000A620688579858A859B85A801485F5F4F60
:104280000E94A620DF91CF911F910F910895AF92C8
:10429000BF92CF92DF92EF92FF920F931F93CF9333
:1042A000DF930F2EF0E0EF2EF0E0FF2EF8EC0F2F53
:1042B000F2E41F2FF02DE092AD03F092AE030093D5
:1042C000AF031093B00380E090E0DC018093B10372
:1042D0009093B203A093B303B093B40320E030E013
:1042E00046E953EC2093B5033093B6034093B703EC
:1042F0005093B803E092C903F092CA030093CB0332
:104300001093CC038093CD039093CE03A093CF035F
:10431000B093D0032093D1033093D2034093D303BF
:104320005093D4030F2EF0E0AF2EF0E0BF2EF8E450
:10433000CF2EF3E4DF2EF02DA092E503B092E6033A
:10434000C092E703D092E8030F2EF0E0AF2EF0E02A
:10435000BF2EF0EACF2EF0E4DF2EF02DA092E9037D
:10436000B092EA03C092EB03D092EC038093ED038A
:104370009093EE03A093EF03B093F0030F2EF0E0C1
:10438000AF2EF0E0BF2EF0E8CF2EF0E4DF2EF02DC0
:10439000A0920104B0920204C0920304D0920404DB
:1043A0008093050490930604A0930704B093080437
:1043B0008093090490930A04A0930B04B0930C0417
:1043C000A0921D04B0921E04C0921F04D09220043B
:1043D0008093210490932204A0932304B093240497
:1043E0008093250490932604A0932704B093280477
:1043F0000F2EF0E0AF2EF0E0BF2EF0E4CF2EF0E471
:10440000DF2EF02DA0923904B0923A04C0923B0402
:10441000D0923C040F2EFDECAF2EFCECBF2EFCEC3A
:10442000CF2EFDE3DF2EF02DA0923D04B0923E048E
:10443000C0923F04D0924004809341049093420480
:10444000A0934304B0934404E0925504F0925604C0
:1044500000935704109358048093590490935A047E
:10446000A0935B04B0935C0420935D0430935E04DE
:1044700040935F0450936004E0927104F0927204E0
:1044800000937304109374048093750490937604DE
:10449000A0937704B09378042093790430937A043E
:1044A00040937B0450937C0420E030E048EC51E4DE
:1044B00020938D0430938E0440938F045093900486
:1044C0000F2EFAE9EF2EF9E9FF2EF9E10F2FFFE3A6
:1044D0001F2FF02DE0929104F09292040093930428
:1044E000109394048093950490939604A09397045A
:1044F000B09398042093A5043093A6044093A70496
:104500005093A8048093A9049093AA04A093AB04A9
:10451000B093AC048093AD049093AE04A093AF0429
:10452000B093B0048093B1049093B204A093B30409
:10453000B093B4042EEC3FEF30930B0320930A03A7
:1045400022E330E030930D0320930C03A092130379
:10455000B0921403C0921503D09216032AE530E0FE
:1045600030930503209304032AEF30E030930703D0
:104570002093060320E030E040E85FE320937805D5
:104580003093790540937A0550937B058093840599
:1045900090938505A0938605B093870520937C05AD
:1045A00030937D0540937E0550937F058093880569
:1045B00090938905A0938A05B0938B05209380057D
:1045C00030938105409382055093830580938C0539
:1045D00090938D05A0938E05B0938F058093FF0671
:1045E00090930007A0930107B093020780930307FD
:1045F00090930407A0930507B093060780930707DD
:1046000090930807A0930907B0930A0780E090E011
:10461000AAE7B4E48093C5049093C604A093C704AA
:10462000B093C8048093C5039093C603A093C703B7
:10463000B093C8038093E1039093E203A093E30354
:10464000B093E4038093FD039093FE03A093FF03D4
:10465000B09300048093190490931A04A0931B0450
:10466000B0931C048093350490933604A0933704D0
:10467000B09338048093510490935204A093530450
:10468000B093540480936D0490936E04A0936F04D0
:10469000B09370048093890490938A04A0938B0450
:1046A000B0938C048093C1049093C204A093C3047C
:1046B000B093C404209333063093340640933506F8
:1046C000509336068EE794E090937D0380937C03AD
:1046D00020930E0330930F03409310035093110364
:1046E0008AE098EEACE1B1EC80939005909391054F
:1046F000A0939205B0939305EDE6F6E06DE876E0C1
:104700001DEAE12E16E0F12EDA01C90120E030E0C9
:10471000A90181939193A193B193EB0129933993CB
:1047200049935993BE01E70189939993A993B9934A
:104730007E0116E0E538F10761F780E090E0A0E047
:10474000BFE38093B5069093B606A093B706B093E7
:10475000B8061092770381E08093660380E090E0D2
:10476000A0EAB0E48093620390936303A093640390
:10477000B093650388EB9EE1A5E5B0E48093F20277
:104780009093F302A093F402B093F5028AEA95E0C5
:104790009093F7028093F60280E69AEEA0E0B0E0F4
:1047A0008093F8029093F902A093FA02B093FB026F
:1047B000DF91CF911F910F91FF90EF90DF90CF90FD
:1047C000BF90AF90089580E060E070E00E94DB2031
:1047D00081E064E270E00E94DB2082E068E170E04A
:1047E0000E94DB2083E06CE070E00E94DB2084E02C
:1047F00060E370E00E94DB2085E06CE370E00E94E3
:10480000DB2086E068E470E00E94DB2087E064E55E
:1048100070E00E94DB2088E060E670E00E94DB2010
:1048200080EF90E00E946D206093A5047093A60431
:104830008093A7049093A80488EE90E00E946D20D6
:104840000E94B14370930B0360930A0384EE90E0DF
:104850000E946D200E94B14370930D0360930C037E
:104860008CEE90E00E946D2060931303709314030C
:10487000809315039093160384EF90E00E946D20BF
:104880000E94B143709305036093040388EF90E0A6
:104890000E946D200E94B14370930703609306034A
:1048A00089E06CE670E00E94DB2084E191E00E94E8
:1048B0006D20609378057093790580937A059093C5
:1048C0007B0580E191E00E946D20609384057093E8
:1048D000850580938605909387058CE191E00E9481
:1048E0006D2060937C0570937D0580937E05909389
:1048F0007F0588E191E00E946D20609388057093A8
:10490000890580938A0590938B0584E291E00E944B
:104910006D2060938005709381058093820590934C
:10492000830580E291E00E946D2060938C05709376
:104930008D0580938E0590938F0588E291E00E940B
:104940006D206093FF06709300078093010790939A
:1049500002078CE291E00E946D2060930307709340
:104960000407809305079093060780E391E00E9477
:104970006D20609307077093080780930907909351
:104980000A0784E391E00E946D206093F202709325
:10499000F3028093F4029093F50288E391E00E9481
:1049A0006D200E94B1437093F7026093F6028CE38E
:1049B00091E00E946D200E94B6436093F8027093CC
:1049C000F9028093FA029093FB0284EC90E00E943B
:1049D0006D206093C5047093C6048093C7049093C0
:1049E000C8046093C5037093C6038093C703909374
:1049F000C8036093E1037093E2038093E303909311
:104A0000E4036093FD037093FE038093FF03909390
:104A100000046093190470931A0480931B0490930C
:104A20001C0460933504709336048093370490938C
:104A3000380460935104709352048093530490930C
:104A4000540460936D0470936E0480936F0490938C
:104A500070046093890470938A0480938B0490930C
:104A60008C046093C1047093C2048093C304909338
:104A7000C4048CEC90E00E946D200E94B1437093BE
:104A80007D0360937C0384ED90E00E946D20609331
:104A9000620370936303809364039093650388EDCE
:104AA00090E00E946D200E94B6436093770380EEF1
:104AB00090E00E946D206093900570939105809323
:104AC0009205909393058CED90E00E946D200E94DA
:104AD000B643609366030895AF92BF92CF92DF9280
:104AE000EF92FF920F931F93CF93DF93F89480E0A0
:104AF00060E070E00E94182181E064E270E00E94B2
:104B0000182183E06CE070E00E94182184E060E3EB
:104B100070E00E94182182E068E170E00E94182194
:104B200085E06CE370E00E94182186E068E470E0A4
:104B30000E94182187E064E570E00E94182188E057
:104B400060E670E00E9418216091A5047091A604AF
:104B50008091A7049091A80440EF50E00E94A62005
:104B600060910A0370910B03882777FD8095982F39
:104B70000E94E44348EE50E00E94A62060910C039E
:104B800070910D03882777FD8095982F0E94E4434C
:104B900044EE50E00E94A62060911303709114032C
:104BA00080911503909116034CEE50E00E94A620D0
:104BB0006091040370910503882777FD8095982FF5
:104BC0000E94E44344EF50E00E94A6206091060357
:104BD00070910703882777FD8095982F0E94E44302
:104BE00048EF50E00E94A62089E06CE670E00E9449
:104BF0001821609178057091790580917A059091DE
:104C00007B0544E151E00E94A620609184057091EB
:104C10008505809186059091870540E151E00E94CD
:104C2000A62060917C0570917D0580917E05909114
:104C30007F054CE151E00E94A620609188057091AB
:104C4000890580918A0590918B0548E151E00E9489
:104C5000A6206091800570918105809182059091D8
:104C6000830544E251E00E94A62060918C0570917A
:104C70008D0580918E0590918F0540E251E00E9454
:104C8000A6206091FF067091000780910107909126
:104C9000020748E251E00E94A6206091030770914C
:104CA000040780910507909106074CE251E00E94AD
:104CB000A6206091070770910807809109079091DD
:104CC0000A0740E351E00E94A6206091C50470915C
:104CD000C6048091C7049091C80444EC50E00E943F
:104CE000A62060913306709134068091350690912C
:104CF000360648EC50E00E94A62060910E037091A9
:104D00000F03809110039091110340ED50E00E9439
:104D1000A6206DE6E62E66E0F62E5DE8C52E56E08E
:104D2000D52E4DEAA42E46E0B42E00E010E0F701A7
:104D300061917191819191917F01E801CC0FDD1F0B
:104D4000C00FD11FCC0FDD1FCC0FDD1FAE014858A7
:104D50005F4F0E94A620F60161917191819191911E
:104D60006F01AE0144585F4F0E94A620F50161918A
:104D70007191819191915F01AE0140585F4F0E9406
:104D8000A6200F5F1F4F0630110589F660917C0346
:104D900070917D03882777FD8095982F0E94E443CA
:104DA0004CEC50E00E94A620609162037091630376
:104DB000809164039091650344ED50E00E94A62029
:104DC0006091770370E080E090E00E94E24348ED5C
:104DD00050E00E94A6206091660370E080E090E0C1
:104DE0000E94E2434CED50E00E94A62060919005A5
:104DF00070919105809192059091930540EE50E05D
:104E00000E94A62060E070E080E490E440EC50E076
:104E10000E94A6206091F2027091F3028091F40248
:104E20009091F50244E351E00E94A6206091F602C1
:104E30007091F702882777FD8095982F0E94E443B0
:104E400048E351E00E94A6206091F8027091F902B7
:104E50008091FA029091FB020E94E2434CE351E000
:104E60000E94A62060E070E0CB0140E451E00E9487
:104E7000A62060E070E0CB0144E451E00E94A6204F
:104E80007894DF91CF911F910F91FF90EF90DF9079
:104E9000CF90BF90AF90089584E091E00E946D2084
:104EA0000E94B14370935A056093590588E091E0E0
:104EB0000E946D200E94B14370935C0560935B0576
:104EC0008CE091E00E946D200E94B14370935E05DA
:104ED00060935D0580ED90E00E946D2060930E036D
:104EE00070930F03809310039093110380EE90E072
:104EF0000E946D20609390057093910580939205B8
:104F00009093930508956091590570915A058827EB
:104F100077FD8095982F0E94E44344E051E00E9481
:104F2000A62060915B0570915C05882777FD8095D0
:104F3000982F0E94E44348E051E00E94A62060912F
:104F40005D0570915E05882777FD8095982F0E94FA
:104F5000E4434CE051E00E94A62060910E03709162
:104F60000F03809110039091110340ED50E00E94D7
:104F7000A620609190057091910580919205909185
:104F8000930540EE50E00E94A62008951F930E94D2
:104F90009F10809153069091540624E08C34920720
:104FA0000CF06AC00E940A0380915106909152064B
:104FB00024E08C34920774F480917E03813051F4A4
:104FC00088EE93E00E94CE1184E060E00E94F73802
:104FD00010927E03809151069091520624E08C3409
:104FE0009207DCF480914D0690914E0627E08D36B5
:104FF00092079CF080914F069091500624E08C34EB
:1050000092075CF40E94F6060E945D080E948327C6
:105010000E940A0383E00E945112809151069091F0
:10502000520627E08D369207A4F080917E038823F4
:1050300081F410917F03113061F40E940A038CE423
:1050400094E00E94CE1184E061E00E94F738109352
:105050007E03809151069091520624E08D34920790
:105060001CF081E080937F0380917E03813021F4E6
:105070008CE494E00E94CE118091550690915606E2
:1050800025E08D3D920724F081E08093770302C0F4
:1050900010927703809157069091580626E0863D3E
:1050A00092079CF58091AB038230A1F18091AA0315
:1050B000882339F10E948A146093A6037093A70392
:1050C0008093A8039093A90320915306309154062E
:1050D000309309032093080320E030E0A9012093D6
:1050E000A1043093A2044093A3045093A4046093BA
:1050F000990470939A0480939B0490939C0410925B
:10510000AA0381E08093AB0305C081E08093AA03EA
:105110001092AB031F910895AF92BF92CF92DF928E
:10512000EF92FF920F931F93CF93DF9388EC90E061
:105130000E946D2060933306709334068093350689
:1051400090933606BDE6EB2EB6E0FB2EADE8CA2EF8
:10515000A6E0DA2EFDEAAF2EF6E0BF2E00E010E06A
:10516000E801CC0FDD1FC00FD11FCC0FDD1FCC0F0E
:10517000DD1FCE0188589F4F0E946D20F70161937B
:105180007193819391937F01CE0184589F4F0E9428
:105190006D20F60161937193819391936F01CE011C
:1051A00080589F4F0E946D20F50161937193819308
:1051B00091935F010F5F1F4F0630110589F6DF9154
:1051C000CF911F910F91FF90EF90DF90CF90BF9004
:1051D000AF900895EF92FF920F931F93DF93CF93B9
:1051E000CDB7DEB72F970FB6F894DEBF0FBECDBF99
:1051F00019821A821B821C82FE0135968BE0DF0128
:105200001D928A95E9F7EE24FF248E010F5F1F4F50
:1052100088EF99E00E942F39009741F46AE070E02E
:1052200080E090E00E94CC37E3940AC088EF99E0D8
:105230000E945E39F801EF0DF11D8083F394EE2496
:10524000FF2031F0FE01EF0DF11D80818B3331F035
:10525000BE2DBA3018F48F2D8E30D0F2CE010196CB
:10526000FC01EF0DF11D10820E949E472F960FB694
:10527000F894DEBF0FBECDBFCF91DF911F910F918C
:10528000FF90EF9008950F931F93CF93DF93082F14
:1052900010E00E94EA282CE130E0029FE001039F29
:1052A000D00D129FD00D1124C355DC4F6883798334
:1052B0008A839B830E94EA286C837D838E839F83ED
:1052C0000E94EA28688779878A879B8780E090E038
:1052D000DC018C879D87AE87BF878C8B9D8BAE8BC7
:1052E000BF8BDF91CF911F910F9108951F93182FBE
:1052F0000E94EA2826E636EE46EF52E40E94424338
:10530000882331F410927E031093760381E009C064
:105310001092760388EE93E09093FD028093FC0256
:1053200080E01F9108951F93CF93DF9388EF99E05A
:105330000E942F39009709F4E2C188EF99E00E949A
:105340005E398093380390E0C1978A32910508F066
:10535000D6C18E589F4FFC01EE0FFF1F0590F491B0
:10536000E02D099480E00E94432981E077C083E02A
:105370000E94432984E00E94432986E00E94432939
:1053800087E00E9443290E94EA286093C504709335
:10539000C6048093C7049093C804B1C182E00E9400
:1053A000432985E00E9443290E94EA280E94B643CF
:1053B0006093660380E090E0DC0180936B03909340
:1053C0006C03A0936D03B0936E0380936F0390936F
:1053D0007003A0937103B09372038093670390935B
:1053E0006803A0936903B0936A0389C188E00E94AF
:1053F00043290E94EA286093A5047093A604809331
:10540000A7049093A8040E94EA280E94B1437093D5
:105410000503609304030E94EA280E94B14370933D
:105420000703609306030E94EA280E94B143709329
:105430000B0360930A030E94EA280E94B143709311
:105440000D0360930C030E94EA286093130370938A
:105450001403809315039093160389E00E94432957
:105460004EC10E94EA2860930E0370930F0380934D
:105470001003909311030E94EA28609362037093D3
:10548000630380936403909365030E94EA280E945B
:10549000B14370937D0360937C0331C10E94EA287D
:1054A00060933306709334068093350690933606E6
:1054B000CDEAD6E00E94EA2869937993899399937B
:1054C000F6E0C53CDF07B1F71AC10E94EA280E9446
:1054D000B143EB017093CE066093CD060E94EA289B
:1054E000CC0FDD1FCC0FDD1FC359D94F11C00E9457
:1054F000EA280E94B143EB017093CE066093CD067B
:105500000E94EA28CC0FDD1FCC0FDD1FC357D94FF7
:10551000688379838A839B83F2C00E9447210E941B
:105520006C250E94F6060E945D080E940A030E94F4
:105530004D140E94C717E3C00E94F60641C00E94A6
:10554000EA28609378057093790580937A059093A3
:105550007B050E94EA2860938405709385058093FB
:105560008605909387050E94EA2860937C057093D6
:105570007D0580937E0590937F050E94EA286093C5
:1055800088057093890580938A0590938B050E9406
:10559000EA2860938005709381058093820590933B
:1055A00083050E94EA2860938C0570938D05809393
:1055B0008E0590938F050E946C25A1C00E945D0806
:1055C0000E9483279CC00E94EA286093FF06709384
:1055D000000780930107909302070E94EA286093D6
:1055E00003077093040780930507909306070E94B2
:1055F000EA28609307077093080780930907909340
:105600000A077DC00E94EA286093F2027093F302B9
:105610008093F4029093F5020E94EA280E94B1431D
:105620007093F7026093F6020E94EA280E94B64344
:105630006093F8027093F9028093FA029093FB0250
:105640006091F2027091F3028091F4029091F50260
:105650000E94BD1854C01DE00E94EA281150E1F7D5
:105660004EC00E94EA280E94EA2849C00E946C2588
:105670000E940A0344C081E001C082E00E947629B2
:105680003EC083E00E9476298823C9F10E94EA285F
:105690000E94B1437093FD026093FC0230C084E02D
:1056A0000E947629882359F11092760388EE93E0C0
:1056B0009093FD028093FC0222C085E00E9476292F
:1056C0008823E9F0C9E5D7E00E94EA280E94B143A7
:1056D0006993799387E0C136D807B1F710C00E946B
:1056E000EA2820E030E040E85FE30E94424388235C
:1056F00021F481E08093AC0302C01092AC03DF91EF
:10570000CF911F91089588EF99E06CE20E94893D46
:105710000895BC0188EF99E04AE050E00E94703E95
:105720000E94832B0895AB01BC0188EF99E022E031
:1057300030E00E944B3F0E94832B0895AB01BC01D7
:1057400088EF99E022E030E00E944B3F0E94832BDB
:105750000895CF93DF9390E02CE130E0829FE00149
:10576000839FD00D929FD00D1124C355DC4F6881CB
:1057700079818A819B810E949E2B6C817D818E81A3
:105780009F810E949E2B688579858A859B850E94D2
:105790009E2BDF91CF910895EF92FF920F931F936D
:1057A000CF93DF93FC017A018B01E90188EF99E047
:1057B000BF010E94863D88EF99E060E072E00E94A0
:1057C000863D8091490590914A05A0914B05B09185
:1057D0004C058E219F21A023B1230097A105B1057F
:1057E00031F488EF99E063E072E00E94863D88EF33
:1057F00099E0BE010E94A63DDF91CF911F910F91CC
:10580000FF90EF900895CF93DF93C8EFD9E0CE01DA
:105810006EE070E04AE050E00E947A3ECE0168E01F
:1058200072E00E94863DCE0140E050E060E470E40A
:1058300021E030E00E944E3FCE016BE172E00E9419
:10584000863DCE0168E272E00E94A63DCE0160E393
:1058500072E00E94863DCE0160E472E00E94A63DA7
:10586000CE0167E472E00E94863DCE0166E070E002
:105870004AE050E00E947A3ECE016BE572E00E9461
:10588000863DCE0164E070E04AE050E00E947A3E3E
:10589000CEE6D2E084E692E041E050E060E070E0E5
:1058A0009E010E94CC2B87E792E042E050E060E04E
:1058B00070E09E010E94CC2B85E892E048E050E029
:1058C00060E070E09E010E94CC2B8FE892E044E003
:1058D00050E060E070E09E010E94CC2BC9EAD2E06B
:1058E0008CE992E040E150E060E070E09E010E94AF
:1058F000CC2B81EB92E040E250E060E070E09E0152
:105900000E94CC2B8FEB92E040E450E060E070E02E
:105910009E010E94CC2B8FEC92E040E850E060E0CA
:1059200070E09E010E94CC2B80EE92E040E051E0BE
:1059300060E070E09E010E94CC2BDF91CF91089532
:10594000EF92FF920F931F93CF93DF9380913803D1
:10595000893609F458C08A3658F5833609F4D6C01A
:10596000843698F4863309F47DC3873338F4813262
:1059700009F46AC3833209F086C371C3813609F41E
:10598000A7C0823609F07FC3A8C0863609F418C1C3
:10599000873638F4843609F4C5C0853609F073C3F8
:1059A000F4C0873609F423C1883609F06CC335C1C9
:1059B000803709F46EC2813798F48C3609F4CCC173
:1059C0008D3638F48A3609F43EC18B3609F05BC354
:1059D0006AC18D3609F417C28E3609F054C340C22D
:1059E000833709F491C2843738F4813709F45AC2F5
:1059F000823709F048C365C2843709F409C3853783
:105A000009F041C314C360914D0570914E0580911A
:105A10004F05909150050E949E2B60915105709109
:105A2000520580915305909154050E949E2B6091E0
:105A300055057091560580915705909158050E9423
:105A40009E2B60919405709195058091960590919B
:105A500097050E949E2B6091980570919905809101
:105A60009A0590919B050E949E2B60919C057091D8
:105A70009D0580919E0590919F050E949E2B6091AF
:105A8000F3067091F4068091F5069091F6060E9457
:105A9000B143DC01CB010E94892B6091F706709124
:105AA000F8068091F9069091FA060E94B143DC0154
:105AB000CB010E94892B6091FB067091FC068091BE
:105AC000FD069091FE060E94B143DC01CB019DC210
:105AD00080E00E94A92B81E055C083E00E94A92BA1
