:100000000C94D1010C9400020C9400020C94000298
:100010000C9400020C9400020C9400020C94000258
:100020000C9400020C9400020C9400020C94930FA8
:100030000C9400020C9400020C9400020C94000238
:100040000C9400020C9400020C9400020C94000228
:100050000C9400020C9400020C9400020C94E23AFE
:100060000C9400020C947A3D0C944E3E0C940002C9
:100070000C9400020C9400020C9400020C940002F8
:100080000C9400020C9400020C9400020C940002E8
:100090000C94A73D0C94993E0C9400020C948B4454
:1000A0000C9400020C9400020C9400020C940002C8
:1000B0000C9400020C9400020C9400020C940002B8
:1000C0000C9400020C9400020C9400020C94D43D99
:1000D0000C94E43E0C9400020C94013E0C942F3FCF
:1000E0000C9400029D2E9F2EA32EB12EBF2EE62E25
:1000F000E62EE62EE62EE62EE62EE62EE62EE22E64
:10010000E62EE62E142D192D302D582D932DB02DC1
:10011000C72DD92DEF2DFE2D012E402E452E642EFC
:10012000E62E8D2EE62EE62EE62EE62E932EE62EDB
:10013000982EE62EE62ED12E036EDB363D9A999947
:10014000993DABAAAA2A3E000000803F084AD73B4F
:100150003BCE016E84BCBFFDC12F3D6C74319ABD96
:1001600056833DDA3D00C77F11BED9E4BB4C3E91BA
:100170006BAAAABE000000803F072C7AA5BA6CC506
:1001800090DA3B9365FC8BBC53F810FD3C56928390
:100190004DBD879D3AB63DCBC9BF5BBE73DA0FC973
:1001A0003F05A84CCDB2D44EB93836A9020C50B98F
:1001B000918688083CA6AAAA2ABE000000803F07B4
:1001C000634236B79BD8A71A39685618AEBAAB55F2
:1001D0008C1D3CB7CC5763BD6DEDFD753EF61772B7
:1001E00031BF000000803F08000000BE9224491289
:1001F0003EABAAAA2ABECDCCCC4C3E00000080BEAD
:10020000ABAAAAAA3E00000000BF000000803F0089
:1002100000000000084178D3BB4387D1133D190E7D
:100220003CC3BD4282AD2B3E68EC8276BED98FE1E5
:10023000A93E4C80EFFFBE01C4FF7F3F00000000DD
:100240000000002100240027002A002D0030003388
:100250000001010000040107010A0100002200253D
:100260000028002B002E00310034000201000005A0
:100270000108010B01000020002300260029002CAA
:10028000002F0032000001000003010601090105F2
:10029000050505070508080808020202020A0A08FF
:1002A0000804040404010101010101010103030325
:1002B0000303030303040707070C0C0C0C0C0C0CC2
:1002C0000C0202020206060606060606060B0B0BC9
:1002D0000B0B0B0B0B010210202008081020401004
:1002E00020408002010201080402010102040810FA
:1002F0002040808040201008040201800402018018
:100300004020100804020108040201010204081040
:1003100020408001020408102040800000090A02E9
:10032000080B0C0D0706030401000000000000008C
:1003300000000000000000000000000000000000BD
:100340000000000000000011100F0000000000007D
:10035000000000000000000000000000000000009D
:1003600000494E46494E4954594E414ECDCCCC3DA4
:100370000AD7233C17B7D13877CC2B329595E62492
:100380001FB14F0A000020410000C84200401C4637
:1003900020BCBE4CCA1B0E5AAEC59D74D236F83F67
:1003A000B34311241FBECFEFD1E2DEBFCDBF15E0B6
:1003B000A0E0B2E0E8EDF9E900E00BBF02C0079071
:1003C0000D92A431B107D9F71DE0A4E1B5E001C059
:1003D0001D92A63EB107E1F713E0C2EAD3E000E0C8
:1003E00006C022970109FE010BBF0E941B4BCC39AE
:1003F000D10780E00807A9F70E94CE400C94EA4C90
:100400000C940000DB010D900020E9F7AD01415094
:100410005040461B570BDC01ED91FC910280F381AB
:10042000E02D099508952F923F924F925F926F921F
:100430007F928F929F92AF92BF92CF92DF92EF9274
:10044000FF920F931F93DF93CF93CDB7DEB72A9719
:100450000FB6F894DEBF0FBECDBF5B016C01190172
:100460002A011A870987609144057091450580919A
:100470004605909147050E9463477B018C01E98501
:10048000FA8520893189428953890E94E54520E017
:1004900034E244E759E40E94CA4669837A838B8335
:1004A0009C83E985FA85E08AF18A028B138BC60169
:1004B000B501A20191010E94E5456D837E838F8382
:1004C0009887B981AA811B810C812B2F3A2F412F4C
:1004D000502F0E94AA48E985FA85248935894689E2
:1004E00057890E94E6458B01F82EE92EE985FA85A9
:1004F000A08CB18CC28CD38C3501460197FA9094B4
:1005000097F890949701712F832F922FA401930154
:100510000E94C34687FD0FC09701602F712F832F64
:10052000922FA60195010E949F4818163CF4850160
:10053000FC2CED2C03C08301F82CE92C9701802FB3
:10054000912FA32FBE2DE985FA85848B958BA68BE1
:10055000B78BC201B10124853585468557850E9438
:10056000E545E985FA8520853185428553850E94D8
:10057000AA485B016C0159814A813B812C81652F1E
:10058000742F832F922F20E030E048EC52E40E9439
:10059000AA489B01AC01C601B5010E94CA46662E5D
:1005A000972E882E792EE985FA852486358646860B
:1005B00057865D814E813F812885652F742F832F5B
:1005C000922F20813181428153810E94AA485B0190
:1005D0006C019701602F712F832F9E2DE985FA857D
:1005E00024813581468157810E94AA489B01AC0134
:1005F000C601B5010E94E645262D392D482D572DFF
:100600000E94E6452A960FB6F894DEBF0FBECDBF16
:10061000CF91DF911F910F91FF90EF90DF90CF90DE
:10062000BF90AF909F908F907F906F905F904F9012
:100630003F902F90089560914405709145058091F9
:100640004605909147050E94634720E030E0A901EC
:100650002093730530937405409375055093760588
:1006600060936F0570937005809371059093720588
:1006700020938F05309390054093910550939205F8
:1006800060938B0570938C0580938D0590938E05F8
:100690002093AB053093AC054093AD055093AE0568
:1006A0006093A7057093A8058093A9059093AA0568
:1006B0002093C7053093C8054093C9055093CA05D8
:1006C0006093C3057093C4058093C5059093C605D8
:1006D0002093E3053093E4054093E5055093E60548
:1006E0006093DF057093E0058093E1059093E20548
:1006F00008952F923F924F925F926F927F928F92C6
:100700009F92AF92BF92CF92DF92EF92FF920F93A0
:100710001F93DF93CF93CDB7DEB762970FB6F894F0
:10072000DEBF0FBECDBF6D877E878F87988B5A8BBC
:10073000498BDA012D903D904D905C901397149663
:100740006D907D908D909C9017971896AD90BD9070
:10075000CD90DC901B9750962D913D914D915C91E1
:10076000539729833A834B835C8354962D913D9113
:100770004D915C9157972D833E834F8358875896B0
:100780002D913D914D915C915B9729873A874B87DD
:100790005C8729E732E348EF5AE30E94AA487B01CD
:1007A0008C01C201B10125ED31E841E15BEB0E9412
:1007B000AA489B01AC01C801B7010E94E6457B0134
:1007C0008C01C401B3012AE13BE14EE55BE30E94E9
:1007D000AA489B01AC01C801B7010E94E6457B0114
:1007E0008C01C601B50125ED31E841E15BEB0E94CA
:1007F000AA489B01AC01C801B7010E94E6457B01F4
:100800008C01E989FA89648575858685978529E74C
:1008100032E348EF5AE30E94AA489B01AC01C801A9
:10082000B7010E94E6457B018C0169817A818B8149
:100830009C8128E33FE247E550E40E94AA489B01DF
:10084000AC01C801B7010E94E6457B018C016D81B6
:100850007E818F81988520E23BE049E850E40E9448
:10086000AA489B01AC01C801B7010E94E5457B0184
:100870008C0169857A858B859C852AE037E74CE178
:1008800050E40E94AA489B01AC01C801B7010E9434
:10089000E6457B018C01A989BA895C966D917D91B1
:1008A0008D919C915F972CE433EF46E05FE30E94CB
:1008B000AA489B01AC01C801B7010E94E545E9893E
:1008C000FA89A486B586C686D786608671868286B2
:1008D000938624823582468257822D853E854F85B8
:1008E0005889208331834283538329853A854B85F8
:1008F0005C85248F358F468F578F2D813E814F81A8
:100900005885208F318F428F538F29813A814B81B7
:100910005C81248B358B468B578B262F372F482FA6
:10092000592FE989FA89208B318B428B538B629640
:100930000FB6F894DEBF0FBECDBFCF91DF911F91F0
:100940000F91FF90EF90DF90CF90BF90AF909F906E
:100950008F907F906F905F904F903F902F90089571
:1009600080E090E0DC0180937B0690937C06A0936E
:100970007D06B0937E0680937F0690938006A093B9
:100980008106B09382068093830690938406A09399
:100990008506B09386068093870690938806A09379
:1009A0008906B0938A0680938B0690938C06A09359
:1009B0008D06B0938E0680938F0690939006A09339
:1009C0009106B09392068093930690939406A09319
:1009D0009506B09396068093970690939806A093F9
:1009E0009906B0939A0680939B0690939C06A093D9
:1009F0009D06B0939E0680939F069093A006A093B9
:100A0000A106B093A2068093A3069093A406A09398
:100A1000A506B093A6068093A7069093A806A09378
:100A2000A906B093AA068093AB069093AC06A09358
:100A3000AD06B093AE068093AF069093B006A09338
:100A4000B106B093B2068093B3069093B406A09318
:100A5000B506B093B6068093B7069093B806A093F8
:100A6000B906B093BA068DE697EEACE1B1EC80938F
:100A7000BB069093BC06A093BD06B093BE068093C0
:100A8000BF069093C006A093C106B093C2068093A0
:100A9000C3069093C406A093C506B093C606809380
:100AA000C7069093C806A093C906B093CA06809360
:100AB000CB069093CC06A093CD06B093CE06809340
:100AC000CF069093D006A093D106B093D206809320
:100AD000D3069093D406A093D506B093D606809300
:100AE000D7069093D806A093D906B093DA06089556
:100AF00089E690E00E946237893689F48091FB068E
:100B00009091FC06A091FD06B091FE068160809355
:100B1000FB069093FC06A093FD06B093FE0689EDBC
:100B200093E2AFE9BAE380931D0790931E07A09369
:100B30001F07B093200789E690E06EE340E80E942B
:100B4000883789E690E066E14DE10E94883789E6C2
:100B500090E06EE341E00E9488370895EF92FF92A3
:100B60000F931F93CF93DF93C1E1D7E0E880F98023
:100B70000A811B810E942237AA2797FDA095BA2FD0
:100B80008E0D9F1DA01FB11F89939993A993B993AF
:100B900087E0CD31D80751F7DF91CF911F910F91A9
:100BA000FF90EF90089589E690E06DE10E94DD36B8
:100BB0008CE69DE069E670E046E050E00E949343D9
:100BC0000E94AE05809129078F5F809329070895C1
:100BD000CF93DF93EC012091290730E040E050E013
:100BE000609111077091120780911307909114077B
:100BF0000E94EC4A80910B0790910C07281B390B3F
:100C0000398328832091290730E040E050E060914B
:100C100015077091160780911707909118070E9489
:100C2000EC4A80910D0790910E07821B930B9B83DA
:100C30008A832091290730E040E050E06091190755
:100C400070911A0780911B0790911C070E94EC4A33
:100C500080910F0790911007821B930B9D838C83CB
:100C6000DF91CF9108958F929F92AF92BF92CF92D2
:100C7000DF92EF92FF920F931F93DF93CF9300D0F9
:100C800000D000D0CDB7DEB76E010894C11CD11CD6
:100C9000C6010E94E80510921107109212071092E7
:100CA000130710921407109215071092160710924E
:100CB0001707109218071092190710921A0710922E
:100CC0001B0710921C07109229073FEFA32E36E056
:100CD000B32E27E0822E912C8C0E9D1EF601619181
:100CE00071916F01882777FD8095982F0E94654745
:100CF00020911D0730911E0740911F07509120073A
:100D00000E94AA48F5012081318142815381E090FF
:100D10005003F090510300915203109153030E942D
:100D2000AE37F50161937193819391935F01C8147C
:100D3000D904A1F60E94383B5B016C01E0900707E3
:100D4000F09008070091090710910A07C801B70140
:100D500025E33AEF4EE85CE30E949F48181654F0F2
:100D6000C801B70125E33AEF4EE85CEB0E94C346A9
:100D700087FF32C08091250790912607A091270711
:100D8000B0912807A6019501281B390B4A0B5B0B74
:100D9000CA01B9010E94634720E034E244E759E404
:100DA0000E94CA469B01AC01C801B7010E94AA4833
:100DB0009B01AC016091210770912207809123076C
:100DC000909124070E94E6456093210770932207C3
:100DD0008093230790932407A0922507B0922607BB
:100DE000C0922707D092280726960FB6F894DEBF48
:100DF0000FBECDBFCF91DF911F910F91FF90EF906C
:100E0000DF90CF90BF90AF909F908F900895AF925A
:100E1000BF92CF92DF92EF92FF920F931F93DF93D7
:100E2000CF93CDB7DEB7C356D0400FB6F894DEBF30
:100E30000FBECDBF5BE0C52E57E0D52E2DE17E0164
:100E40000894E11CF11C43E6A42EB12CAC0EBD1E8F
:100E50002BC089E690E0622FA4962FAFA4970E9442
:100E6000DD3689E690E00E941837F801819391936E
:100E70008F016AE070E080E090E00E945E3BA49603
:100E80002FADA4970A151B0521F7C70161E370E098
:100E90000E94733AF601819391936F01A4962FAD4E
:100EA000A4972E5F233211F08701D3CFCD59DF4FA6
:100EB0000FB6F894DEBF0FBECDBFCF91DF911F916B
:100EC0000F91FF90EF90DF90CF90BF90AF9008957B
:100ED00080E490E00E946237833089F48091FB06C1
:100EE0009091FC06A091FD06B091FE068260809371
:100EF000FB069093FC06A093FD06B093FE0680E4EB
:100F000090E060E146EB0E9488376AE070E080E0A4
:100F100090E00E945E3B80E490E06DE040E10E9442
:100F2000883780E490E060E20E94DD3680E490E063
:100F30000E94F336482F4F7780E490E060E20E94F1
:100F4000883780E490E065E30E94DD3680E490E03D
:100F50000E94F336482F417F486080E490E065E3CB
:100F60000E9488370895EF92FF920F931F93CF93BB
:100F7000DF9380E490E062E00E94DD368CE69DE045
:100F800060E470E046E050E00E949343C2E5D7E0A1
:100F9000E880F9800A811B810E9425379595879505
:100FA00095958795AA2797FDA095BA2F8E0D9F1D21
:100FB000A01FB11F89939993A993B99387E0CE3568
:100FC000D80731F780915E078F5F80935E07DF91CE
:100FD000CF911F910F91FF90EF9008952F923F9224
:100FE0004F925F926F927F928F929F92AF92BF9239
:100FF000CF92DF92EF92FF921F93DF93CF9300D0B7
:1010000000D000D0CDB7DEB780915E07282F30E04A
:1010100040E050E029833A834B835C8382E597E08C
:101020002AE2E22E27E0F22E16E3C12E17E0D12E9F
:10103000B6E4AB2EB7E0BB2E10E09E838D83F701A4
:1010400061907190819091907F01F6012190319093
:10105000419051906F01ED81FE81608171818281AB
:10106000938129813A814B815C810E94EC4ACA01BB
:10107000B9010E946547A40193010E94AA48A201F8
:1010800091010E94E645F5016193719381939193DB
:101090005F01ED81FE811192119211921192FE83F6
:1010A000ED831F5F133059F610925E0726960FB638
:1010B000F894DEBF0FBECDBFCF91DF911F91FF909F
:1010C000EF90DF90CF90BF90AF909F908F907F90E8
:1010D0006F905F904F903F902F900895AF92BF9286
:1010E000CF92DF92EF92FF920F931F93CF93DF93F4
:1010F000C0E0D0E007C00E94B30784EC99E00E94F2
:10110000853B219681E0C039D807A9F7CAE2D7E02C
:1011100036E4E32E37E0F32E02E517E0A990B9900C
:10112000C990D990F80160817181828193810E9478
:10113000654720E030E048EC53E40E94CA46A6012F
:1011400095010E94AA48F70161937193819391934D
:101150007F01F80111921192119211928F01F7E023
:10116000C633DF07D9F610925E078091460790914B
:101170004707A0914807B0914907B05880933607B8
:1011800090933707A0933807B093390780914A07A7
:1011900090914B07A0914C07B0914D07B0588093A8
:1011A0003A0790933B07A0933C07B0933D07E0902C
:1011B0004E07F0904F0700915007109151076DE6D0
:1011C00077EE8CE191ECA80197010E94E545C72ECE
:1011D000D82EA92E762F272F3C2D4D2D5A2D20931A
:1011E0003E0730933F074093400750934107C801A3
:1011F000B7010E94E645E62EF72E082F192F20E0B2
:1012000030E0A9010E949F48181624F017FB1095A2
:1012100017F91095E0924207F092430700934407B4
:1012200010934507DF91CF911F910F91FF90EF90A1
:10123000DF90CF90BF90AF90089584E061E00E946E
:10124000653C84E060E00E94893C8FE161E00E949F
:10125000653C8FE160E00E94893C81E260E00E9491
:10126000653C82E260E00E94653C83E260E00E94AF
:10127000653C8BE261E00E94653C8CE261E00E948B
:10128000653C8DE261E00E94653C8EE261E00E9477
:10129000653C8BE261E00E94893C8CE261E00E9447
:1012A000893C8DE261E00E94893C8EE261E00E940F
:1012B000893C8CE69DE00E947B438CE08093B800E3
:1012C00008950E94B3070E94D305089580E090E03E
:1012D000DC0180935F0790936007A0936107B09350
:1012E00062078093630790936407A0936507B093A8
:1012F00066078093670790936807A0936907B09388
:101300006A0780936B0790936C07A0936D07B09367
:101310006E0780936F0790937007A0937107B09347
:10132000720708952F923F924F925F926F927F9231
:101330008F929F92AF92BF92CF92DF92EF92FF92E5
:101340000F931F93DF93CF93CDB7DEB7C855D0402F
:101350000FB6F894DEBF0FBECDBF69837A838B834F
:101360009C832D833E834F835887E986FA860B87BB
:101370001C8707EC17E083E090E0B801AE014F5FF7
:101380005F4F2BEB37E00E943F3983E090E063E74B
:1013900077E0A8012FEA37E00E943F390F2EF0E0F6
:1013A0002F2EF0E03F2EF0E04F2EF0E05F2EF02DDC
:1013B00029AA3AAA4BAA5CAA3501460197FA909449
:1013C00097F89094E0907B07F0907C0700917D0760
:1013D00010917E07C401B301A80197010E94AA4899
:1013E0006DAB7EAB8FAB98AF80917707909178070C
:1013F000A0917907B0917A0769968CAF9DAFAEAF97
:10140000BFAF6997C601B50169962CAD3DAD4EAD34
:101410005FAD69970E94AA4869AF7AAF8BAF9CAF66
:10142000C601B501A80197010E94AA48FE01FD96D8
:101430006083718382839383FE01EF5BFF4F208281
:10144000318242825382E0907307F09074070091DA
:10145000750710917607C401B301A80197010E9496
:10146000AA48FE01EB5BFF4F608371838283938305
:10147000C401B30169962CAD3DAD4EAD5FAD69972A
:101480000E94AA48FE01E75BFF4F6083718382835D
:101490009383C601B501A80197010E94AA48FE01E5
:1014A000E35BFF4F6083718382839383FE01EF5A76
:1014B000FF4F2082318242825382ADE0CA2ED12C6E
:1014C000CC0EDD1EFBE8AF2EF7E0BF2E83E090E0F0
:1014D00063E070E043E050E096018501E1E3EE2E29
:1014E000F12CEC0EFD1E0E94763983E090E063E063
:1014F00070E0A501950186010E94383AC85ADF4F75
:101500000FB6F894DEBF0FBECDBFCF91DF911F9114
:101510000F91FF90EF90DF90CF90BF90AF909F9092
:101520008F907F906F905F904F903F902F90089595
:101530008F929F92AF92BF92CF92DF92EF92FF92E3
:101540000F931F93DF93CF93CDB7DEB7A4970FB65A
:10155000F894DEBF0FBECDBF83E090E06BE877E08C
:1015600047E957E00E940538905820E030E040E01D
:101570005FE30E94AA48B62EA72E982E892E83E0FC
:1015800090E06E010894C11CD11CB60147E957E0F8
:10159000D501F4010B2F1A2F2F2F3E2F0E94D13887
:1015A0002DE0E22EF12CEC0EFD1E83E090E0B70161
:1015B0004BE857E0D501F4010B2F1A2F2F2F3E2FA8
:1015C0000E94D13886E090E0B601A6012BE837E012
:1015D0000E940839CE014996B601A7010E945038F1
:1015E000EE24FF2446018701000F111F0E0D1F1D61
:1015F000000F111F000F111F6401C00ED11E83E0E8
:1016000090E0B601A6010E9405389B01AC01BBE841
:10161000AB2EB7E0BB2EA00EB11E60E070E080E400
:1016200090E40E94E54520E030E040E05FE30E9466
:10163000AA488B019C0183E090E0B501A6010E94BD
:10164000D1380894E11CF11C83E0E816F10459F646
:10165000A4960FB6F894DEBF0FBECDBFCF91DF9139
:101660001F910F91FF90EF90DF90CF90BF90AF90C0
:101670009F908F9008952F923F924F925F926F921A
:101680007F928F929F92AF92BF92CF92DF92EF9212
:10169000FF920F931F93DF93CF93CDB7DEB7EC97F5
:1016A0000FB6F894DEBF0FBECDBF3B014C01190150
:1016B0002A0169837A838B839C832D833E834F83A6
:1016C0005887E986FA860B871C87A40193010E943C
:1016D000AA483B014C01C201B101A20191010E9443
:1016E000AA489B01AC01C401B3010E94E6453B013D
:1016F0004C01C801B701A80197010E94AA489B01AB
:10170000AC01C401B3010E94E6450E946349A601F1
:1017100095010E94CA469B01AC0160E070E080E840
:101720009FE30E94E5456B017C017D2D9F2D20E00C
:1017300030E0A9010E949F481816D4F46C2D7D2D2D
:101740008E2D9F2D2C2D3D2D4E2D5F2D0E94E6457B
:101750009B01AC0160E070E080E89FE30E94E545FA
:1017600020E030E0A9010E94C34687FF19C075C080
:101770006C2D7D2D8E2D9F2D2C2D3D2D4E2D5F2DD5
:101780000E94E64520E030E040E85FE30E94E64545
:1017900020E030E0A9010E94C34687FF1DC05DC064
:1017A0006C2D7D2D8E2D9F2D2C2D3D2D4E2D5F2DA5
:1017B0000E94E6459B01AC0160E070E080E89FE399
:1017C0000E94E54520E030E040E85FE30E949F484A
:1017D00018160CF447C019C06C2D7D2D8E2D9F2D31
:1017E0002C2D3D2D4E2D5F2D0E94E64520E030E052
:1017F00040E85FE30E94E64520E030E040E85FE338
:101800000E949F48181674F113C06C2D7D2D8E2DEB
:101810009F2D2C2D3D2D4E2D5F2D0E94E6459B01C9
:10182000AC0160E070E080E89FE30E94E54510C0F5
:101830006C2D7D2D8E2D9F2D2C2D3D2D4E2D5F2D14
:101840000E94E64520E030E040E85FE30E94E64584
:10185000F62EE72ED82EC92E0BC0FF24EE24DD2451
:10186000CC2406C0FF24EE24E0E8DE2E7FE3C72E62
:101870006DE0662E712C6C0E7D1EC301BE016F5F84
:101880007F4F43EA57E00E945038A7019601652F29
:101890007E2D832F9C2D2091D3073091D40740912A
:1018A000D5075091D6070E94AA488B019C0183E07E
:1018B00090E06FEA77E0A3010E94D13851E3252E32
:1018C000312C2C0E3D1EA7019601652F7E2D832FF6
:1018D0009C2D2091D7073091D8074091D90750917E
:1018E000DA070E94AA488B019C0183E090E0B101D5
:1018F000A3010E94D13883E090E06BEB77E0AB016D
:1019000091010E94083949E1C42ED12CCC0EDD1E74
:1019100069966CAD7DAD8EAD9FAD699720918B07BB
:1019200030918C0740918D0750918E070E94AA48F4
:101930007B018C0165966CAD7DAD8EAD9FAD6597DD
:1019400020919707309198074091990750919A07F5
:101950000E94AA489B01AC01C801B7010E94E5455D
:101960008B019C0183E090E0B60143EA57E00E94BE
:10197000D13835E2E32EF12CEC0EFD1E0091DB0791
:101980001091DC072091DD073091DE0783E090E0C5
:10199000B701A6010E94D13883E090E06FEA77E0BA
:1019A000AB0197010E9408390091DF071091E00711
:1019B0002091E1073091E20783E090E0B101A601B8
:1019C0000E94D13883E090E06BEB77E0AB019101AE
:1019D0000E940839EC960FB6F894DEBF0FBECDBF5B
:1019E000CF91DF911F910F91FF90EF90DF90CF90FB
:1019F000BF90AF909F908F907F906F905F904F902F
:101A00003F902F9008956091A7077091A80780914B
:101A1000A9079091AA072091AB073091AC0740919C
:101A2000AD075091AE070E94704660935F077093B8
:101A3000600780936107909362076091A30770919C
:101A4000A4078091A5079091A6070E944A46905846
:101A500060936307709364078093650790936607AC
:101A600060919707709198078091990790919A07D4
:101A700020918B0730918C0740918D0750918E07F4
:101A80000E947046609367077093680780936907A8
:101A900090936A070895AF92BF92CF92DF92EF9230
:101AA000FF920F931F93DF93CF93CDB7DEB72C97A1
:101AB0000FB6F894DEBF0FBECDBF69837A838B83E8
:101AC0009C832D833E834F835887E986FA860B8754
:101AD0001C870BE817E083E090E0B8017E010894D2
:101AE000E11CF11CA7010E94053860937F077093E9
:101AF00080078093810790938207B801645F7F4FCE
:101B000083E090E0A7010E940538609383077093FB
:101B100084078093850790938607B801685E7F4F9E
:101B200083E090E0A7010E940538A60195010E947C
:101B3000E6456093870770938807809389079093A1
:101B40008A072C960FB6F894DEBF0FBECDBFCF919B
:101B5000DF911F910F91FF90EF90DF90CF90BF909A
:101B6000AF900895AF92BF92CF92DF92EF92FF9223
:101B70000F931F935B016C0179018A010E94660932
:101B800080E090E0DC018093AF079093B007A093D2
:101B9000B107B093B2078093BB079093BC07A093A3
:101BA000BD07B093BE078093B3079093B407A0938B
:101BB000B507B093B6078093BF079093C007A09373
:101BC000C107B093C2078093B7079093B807A0935B
:101BD000B907B093BA078093C3079093C407A09343
:101BE000C507B093C607A0928B07B0928C07C0922E
:101BF0008D07D0928E07A8019701505820938F0728
:101C000030939007409391075093920780939307E6
:101C100090939407A0939507B0939607E092970747
:101C2000F09298070093990710939A07A0929B0748
:101C3000B0929C07C0929D07D0929E0780939F0709
:101C40009093A007A093A107B093A2078093A30746
:101C50009093A407A093A507B093A6078093A70726
:101C60009093A807A093A907B093AA0780E090E0FB
:101C7000A0E8BFE38093AB079093AC07A093AD07B8
:101C8000B093AE078DEC9CECACECBDE38093D30736
:101C90009093D407A093D507B093D60787E197EB2D
:101CA000A1E5B9E38093D7079093D807A093D9070C
:101CB000B093DA078DEC9CECACECBDEB8093DB07CA
:101CC0009093DC07A093DD07B093DE0787E197EBE5
:101CD000A1E5B9EB8093DF079093E007A093E107BC
:101CE000B093E2071F910F91FF90EF90DF90CF909C
:101CF000BF90AF9008952F923F924F925F926F9254
:101D00007F928F929F92AF92BF92CF92DF92EF928B
:101D1000FF920F931F93DF93CF93CDB7DEB73501BB
:101D20004601298C3A8C4B8C5C8CA9A4BAA4CBA418
:101D3000DCA40E9492090E94980A8DB79EB708976A
:101D40000FB6F8949EBF0FBE8DBF89A19AA1ABA11B
:101D5000BCA1EDB7FEB781839283A383B4838DA129
:101D60009EA1AFA1B8A585839683A783B087C40140
:101D7000B3012D893E894F89588D82017101AD8C47
:101D8000BE8CCF8CD8A00E943B0B8DB79EB7089617
:101D90000FB6F8949EBF0FBE8DBF0E94030DC40105
:101DA000B3012D893E894F89588DAD8CBE8CCF8C67
:101DB000D8A00E944B0DCF91DF911F910F91FF9002
:101DC000EF90DF90CF90BF90AF909F908F907F90DB
:101DD0006F905F904F903F902F9008959093E407FD
:101DE0008093E3072CED35E0309300082093FF0744
:101DF00030930208209301083093040820930308CD
:101E000028EE33E030930608209305083093080845
:101E10002093070830930A082093090830930C0890
:101E200020930B0830930E0820930D0840E021E02A
:101E300030E007C0EE0FFF1FE15FF74F31832083D3
:101E40004F5FE42FF0E0E817F907A4F32CED35E03D
:101E50003093FA072093F9073093FC072093FB0790
:101E60003093FE072093FD0760E020E030E040E87B
:101E70005FE30BC0EE0FFF1FEE0FFF1FE15EF74F9A
:101E800020833183428353836F5FE62FF0E0E817AE
:101E9000F90784F360E020E030E040E85FE30BC046
:101EA000EE0FFF1FEE0FFF1FE15CF74F2083318322
:101EB000428353836F5FE62FF0E0E817F90784F35E
:101EC00060E020E030E040E85FE30BC0EE0FFF1F72
:101ED000EE0FFF1FE15AF74F208331834283538374
:101EE0006F5FE62FF0E0E817F90784F3089590E0BC
:101EF000880F991FFC01E150F84F8750984F60817F
:101F00007181FC0180819181681B790B882777FDA5
:101F10008095982F0E9465472BE037ED43EA5BE3FD
:101F20000E94AA4808951F920F920FB60F920BB607
:101F30000F9211245F926F927F928F929F92AF9235
:101F4000BF92CF92DF92EF92FF920F931F932F9346
:101F50003F934F935F936F937F938F939F93AF9331
:101F6000BF93CF93DF93EF93FF93EBE8F2E085917C
:101F70009491FC01808110917D0A182780937D0A3D
:101F800080916D00182309F479C00E94383BA0E0CD
:101F9000B0E021E0622E712CCBE0D0E000E2802E98
:101FA00001ED902E0FEFA02E0FEFB02E552453947D
:101FB00093010A2E02C0220F331F0A94E2F7322F38
:101FC000312309F456C030917D0A322339F1AC9F98
:101FD000F001AD9FF00DBC9FF00D1124E65EF54FB2
:101FE0002581368147815085618372838383948301
:101FF00075016401C21AD30AE40AF50AA701960121
:10200000260F371F481F591F213E0EE2300700E000
:10201000400700E0500760F550822BC0AC9FF001F4
:10202000AD9FF00DBC9FF00D1124E65EF54F2181B0
:102030003281438154816B017C01C21AD30AE40AC4
:10204000F50A6583768387839087A7019601265BCF
:10205000334040405040263604E0300700E040075F
:1020600000E0500730F42081213019F4D286C18677
:1020700010821196A830B10509F09ACFFF91EF9127
:10208000DF91CF91BF91AF919F918F917F916F9190
:102090005F914F913F912F911F910F91FF90EF9082
:1020A000DF90CF90BF90AF909F908F907F906F9078
:1020B0005F900F900BBE0F900FBE0F901F90189562
:1020C0000E94EE0E109207011092080120916D00FF
:1020D00081E090E00090E30702C0880F991F0A9406
:1020E000E2F78150822B80936D00809168008460BC
:1020F000809368004091E3075091E40760E02BE093
:1021000030E010C085519B4FFC01808190E0829FA0
:10211000F001839FF00D929FF00D1124E65EF54FC4
:1021200010826F5F862F90E0841795075CF3089507
:10213000EBEEF4E0E80FF11D20814FB7F89430E0AA
:102140008BE090E0289FF001299FF00D389FF00D63
:102150001124E65EF54F218532854FBFC9010895F0
:102160002F923F924F925F926F927F928F929F92A7
:10217000AF92BF92CF92DF92EF92FF920F931F9395
:10218000CF93DF93DD2453C08E01000F111F000F8A
:10219000111FF801E15EF74F80809180A280B3802B
:1021A0008D2D0E9498109C01B901882777FD80959C
:1021B000982F0E9465479B01AC01C501B4010E94A4
:1021C000AA48F801E15CF74F2081318142815381B7
:1021D0000E94E6450E943247CC0FDD1FFE01E75109
:1021E000F84F71836083882777FD8095982F0E9430
:1021F00065474B015C01C15FD74F688179818827B2
:1022000077FD8095982F0E9465479B01AC01F801EE
:10221000E15AF74FE080F18002811381C501B401DA
:102220000E94AE370E94324779836883D394CD2DC4
:10223000D0E06090E3077090E407C615D7050CF472
:10224000A3CF2090E5073090E6074090E707509035
:10225000E807CFE0D8E059EFE52E57E0F52E4FEF35
:10226000C42E47E0D42E69917991D7010D911D912B
:102270007D01601B710B882777FD8095982F0E9448
:102280006547A20191010E94AA484B015C01B80177
:10229000882777FD8095982F0E9465479B01AC01A8
:1022A000C501B4010E94E6450E943247F6016193E0
:1022B00071936F01F8E0C531DF07A9F623E00EC086
:1022C000880F991FFC01E150F84F815F974FDC01A7
:1022D0008D919C911197918380832F5F822F90E045
:1022E000861597056CF3DF91CF911F910F91FF90A9
:1022F000EF90DF90CF90BF90AF909F908F907F90A6
:102300006F905F904F903F902F900895809181083B
:1023100090918208880F991F90939B0080939A0058
:102320008091830890918408880F991F90939D0055
:1023300080939C008091850890918608880F991F52
:1023400090939900809398008091870890918808D5
:10235000880F991F9093A9008093A800809154033F
:10236000909155038630910519F08830910559F503
:102370002091890830918A08220F331F3093AB00D7
:102380002093AA0020918B0830918C08220F331FD4
:102390003093AD002093AC0088309105A1F480917A
:1023A0008D0890918E08880F991F909389008093D3
:1023B000880080918F0890919008880F991F9093C2
:1023C0008B0080938A000895880F991F90939B003B
:1023D00080939A0090939D0080939C009093990025
:1023E000809398009093A9008093A80020915403B3
:1023F000309155032630310519F02830310599F414
:102400009093AB008093AA009093AD008093AC00B2
:102410002830310541F4909389008093880090938F
:102420008B0080938A000895909355038093540302
:102430002DB128632DB98430910521F480910101DB
:10244000886006C08630910531F48091010188636F
:10245000809301010BC08830910541F48091010106
:1024600088638093010184B1806684B988EE93E02B
:102470000E94E4118AEA809390004AE1409391001F
:102480002AE03AE13093970020939600809154031C
:10249000909155038430910551F482E88093A00017
:1024A0004093A1003093A7002093A60012C086306D
:1024B000910519F08830910561F48AEA8093A000B3
:1024C0008AE18093A1008AE09AE19093A70080932B
:1024D000A60080915403909155038830910561F4D2
:1024E00082EA809380008AE1809381008AE09AE109
:1024F000909387008093860008950F931F93082F71
:1025000010E015C08CE494E00E94E4116AEF70E0E2
:1025100080E090E00E945E3B88EE93E00E94E41130
:102520006AEF70E080E090E00E945E3B1F5F101752
:1025300048F31F910F910895882349F470919108F1
:1025400060919208909193088091940808C07091CE
:102550009508609196089091970880919808AB0132
:102560009C01652F742F832F922F0895CF93DF93B3
:10257000EC010E9422379C01B901882777FD8095E4
:10258000982F0E946547688379838A839B830E9482
:10259000223766277727681B790B882777FD809578
:1025A000982F0E9465476C837D838E839F830E9452
:1025B000223766277727681B790B882777FD809558
:1025C000982F0E946547688779878A879B87DF9164
:1025D000CF9108952F923F924F925F926F927F9288
:1025E0008F929F92AF92BF92CF92DF92EF92FF9223
:1025F0000F931F93DF93CF93CDB7DEB766970FB6D8
:10260000F894DEBF0FBECDBF7B018C0159016A017A
:102610008EE190E063E00E94DD368CE69DE06EE1A5
:1026200070E046E050E00E94934385EA98E00E9403
:10263000B6128EE190E062E041E00E94883760913E
:10264000A5087091A6088091A7089091A8082091EC
:10265000B1083091B2084091B3085091B4080E947B
:10266000E645562E472E382E292EA2019101852FA0
:10267000942FA32FB22F8093990890939A08A09338
:102680009B08B0939C086091A9087091AA0880915A
:10269000AB089091AC082091B5083091B6084091F4
:1026A000B7085091B8080E94E64569837D83898701
:1026B0009A87472F382F292F862F942FA32FB22F99
:1026C00080939D0890939E08A0939F08B093A008C4
:1026D0006091AD087091AE088091AF089091B008FC
:1026E0002091B9083091BA084091BB085091BC08BC
:1026F0000E94E6456B877C878D879E87472F382F02
:10270000292F862F942FA32FB22F8093A108909367
:10271000A208A093A308B093A408C801B7010E941F
:10272000C7466F87788B898B9A8BC801B7010E9447
:1027300059496B8B7C8B8D8B9E8BC601B5010E949A
:10274000C7463B014C01C601B5010E9459497B01B6
:102750008C01A2019101652F742F832F922FA40168
:1027600093010E94AA485B016C0159814D81398512
:102770002A85652F742F832F922F2B893C894D89B1
:102780005E890E94AA48A80197010E94AA489B015D
:10279000AC01C601B5010E94E6455B016C015B8599
:1027A0004C853D852E85652F742F832F922F2F8585
:1027B000388949895A890E94AA48A80197010E942C
:1027C000AA489B01AC01C601B5010E94E645662EF0
:1027D000D72E582EC92E59814D8139852A85652FCE
:1027E000742F832F922F2F85388949895A890E9407
:1027F000AA487B018C015B854C853D852E85652F24
:10280000742F832F922F2B893C894D895E890E94DA
:10281000AA489B01AC01C801B7010E94E545162FEB
:10282000A72EE82E092F862F9A2DAE2DB02F898343
:102830009A83AB83BC83662D7D2D852D9C2D262D03
:102840003D2D452D5C2D0E94AA486D837E838F838C
:102850009887612F7A2D8E2D902F212F3A2D4E2D76
:10286000502F0E94AA489B01AC016D817E818F810F
:1028700098850E94E6450E9463497B018C01662D84
:102880007D2D852D9C2DA80197010E94CA4660933D
:1028900091087093920880939308909394086981AB
:1028A0007A818B819C819058A80197010E94CA4629
:1028B0006093950870939608809397089093980872
:1028C00066960FB6F894DEBF0FBECDBFCF91DF91F5
:1028D0001F910F91FF90EF90DF90CF90BF90AF903E
:1028E0009F908F907F906F905F904F903F902F9030
:1028F00008956AE070E080E090E00E945E3B8EE127
:1029000090E00E946237803189F48091FB069091BB
:10291000FC06A091FD06B091FE0684608093FB0644
:102920009093FC06A093FD06B093FE068EE190E026
:1029300061E040E20E94883764E170E080E090E06E
:102940000E945E3B8EE190E062E041E00E948837A9
:1029500064E170E080E090E00E945E3B60E070E047
:10296000CB019B01AC010E94EA1208956091BD0861
:102970007091BE088091BF089091C0082091C50851
:102980003091C6084091C7085091C8080E94E5459B
:10299000089540915A034295440F440F407C4C5C8B
:1029A00087E790E064EF0E9488370895EF92FF92E6
:1029B0000F931F93CF93DF9387E790E066EF0E941A
:1029C000DD36CCE6DDE0CE0167E770E043E050E0C5
:1029D0000E949343CE010E94F4427C01CE010E94EA
:1029E000F4428C01CE010E94F4429701442737FD46
:1029F0004095542FA90133272227B8017B010027D6
:102A0000F7FC0095102F102F0F2DFE2CEE242E29F1
:102A10003F29402B512BAA2797FDA095BA2F282B91
:102A2000392B4A2B5B2B60915A0388E090E0861B80
:102A3000910904C056954795379527958A95D2F701
:102A4000B901CA01DF91CF911F910F91FF90EF90D3
:102A5000089587E790E064EF4EE20E94883708957A
:102A600087E790E066EF0E94DD3687E790E00E94FE
:102A70003C370895EF92FF920F931F938091EC08DB
:102A8000882391F1E090ED08F090EE080091EF08B6
:102A90001091F0080E94D6140E9465479B01AC017A
:102AA000C801B7010E94E6456093ED087093EE08F7
:102AB0008093EF089093F0088091F1088F5F8093E6
:102AC000F1088091EB08843039F40E9429151092A6
:102AD000EB081092EC0802C00E94C9148091EB0828
:102AE0008F5F8093EB0811C00E943015A0E0B0E02A
:102AF0008093E7089093E808A093E908B093EA0868
:102B00000E94C91481E08093EC081F910F91FF90FF
:102B1000EF9008955F926F927F928F929F92AF9203
:102B2000BF92CF92DF92EF92FF920F931F93DF93AA
:102B3000CF9300D000D0CDB7DEB74091E7085091D9
:102B4000E8086091E9087091EA088091D3089091B3
:102B5000D4082091D1083091D2086090DB087090A1
:102B6000DC088090DD089090DE08E090F108EE200F
:102B700009F4E1C1A0E0B0E05A016B01A81AB90A5A
:102B8000CA0ADB0AC601B50140E050E00E94984A3B
:102B90005B016C017FE0D594C794B794A7947A95B4
:102BA000D1F7FF24B701882777FD8095982F0E94E1
:102BB00065479B01AC016091ED087091EE08809132
:102BC000EF089091F0080E94CA460E94324769833C
:102BD0007A838B839C836093E3087093E4088093EB
:102BE000E5089093E60880E090E0DC018093ED0832
:102BF0009093EE08A093EF08B093F0081092F108BC
:102C000060E6E62E60EFF62E6FEF062F6FEF162FC1
:102C1000EA0CFB1C0C1D1D1DB301882777FD809558
:102C2000982F5BE0660F771F881F991F5A95D1F781
:102C30009401442737FD4095542F2A0D3B1D4C1D10
:102C40005D1D0E94EC4AE20EF31E041F151FC80111
:102C5000B701A80197010E94984A3B014C014CE042
:102C600095948794779467944A95D1F72091CB08EF
:102C70003091CC08442737FD4095542FC801B70147
:102C80000E94984A5B016C013BE0D594C794B794CD
:102C9000A7943A95D1F78091C9089091CA08AA27BC
:102CA00097FDA095BA2F22E0880F991FAA1FBB1F7E
:102CB0002A95D1F7A80EB91ECA1EDB1E2091D7088F
:102CC0003091D808442737FD4095542FC401B301F3
:102CD0000E94984AABE09595879577956795AA9558
:102CE000D1F7A60EB71EC81ED91E50905A032091C8
:102CF000CD083091CE08442737FD4095542FC801A8
:102D0000B7010E94984A7B018C01FDE0159507955B
:102D1000F794E794FA95D1F782E090E0A0E0B0E074
:102D2000E80EF91E0A1F1B1F2091D5083091D60806
:102D3000442737FD4095542FC401B3010E94984A9F
:102D4000BC01992777FD9095892FE60EF71E081F85
:102D5000191F52E015950795F794E7945A95D1F706
:102D600080E090E8A0E0B0E0E80EF91E0A1F1B1F0B
:102D70002091CF083091D00840E050E0C801B70161
:102D80000E94984A7B018C014FE016950795F794B5
:102D9000E7944A95D1F7052C04C0AA0CBB1CCC1CA7
:102DA000DD1C0A94D2F782E090E0A0E0B0E0A80E2B
:102DB000B91ECA1EDB1E32E0D594C794B794A794FF
:102DC0003A95D1F769817A818B819C816A197B0957
:102DD0008C099D0920E533EC40E050E004C0559596
:102DE0004795379527955A94D2F70E94984A97FDB0
:102DF0000BC0660F771F881F991FA80197010E94BB
:102E0000CA4A79018A010AC0A80197010E94CA4AE8
:102E100079018A01EE0CFF1C001F111F552717FDB9
:102E20005A95412F302F2F2DCA01B9010E94984A7F
:102E30002EED3BE040E050E00E94984A5B016C01BF
:102E4000C801B70123E433EE4FEF5FEF0E94984AC9
:102E5000BC01992777FD9095892F6153714F8F4F52
:102E60009F4F5601DD24B7FCD094CD2C6A0D7B1DFD
:102E70008C1D9D1DE4E09595879577956795EA955E
:102E8000D1F76E0D7F1D801F911F6093DF08709337
:102E9000E0088093E1089093E2080E94654720E8EB
:102EA00036EE45EC57E40E94CA4620915B03309110
:102EB0005C0340915D0350915E030E940D49562FC3
:102EC000472F382F292F60E070E080E89FE3DA0178
:102ED000F9012B2F3A2F4F2F5E2F0E94E54520E05E
:102EE0003AE24DE257E40E94AA48262F372F482F96
:102EF000592F2093C1083093C2084093C3085093C0
:102F0000C4082091BD083091BE084091BF0850917F
:102F1000C008E0905603F0905703009158031091B9
:102F200059030E94AE376093BD087093BE0880932A
:102F3000BF089093C0080F900F900F900F90CF9103
:102F4000DF911F910F91FF90EF90DF90CF90BF9096
:102F5000AF909F908F907F906F905F9008950E94A8
:102F60003A150E948A150895EF92FF920F931F93CE
:102F7000CF93DF93C9E1D0E0EE24FF2400E010E01E
:102F80000E94AF176E2D7F2D802F912F2091C108A9
:102F90003091C2084091C3085091C4080E94E64590
:102FA0007B018C016CE070E080E090E00E945E3B71
:102FB000219731F76E2D7F2D802F912F20E030E06B
:102FC00048EC51E40E94CA466093C5087093C60855
:102FD0008093C7089093C808DF91CF911F910F91FC
:102FE000FF90EF900895AF92BF92CF92DF92EF9251
:102FF000FF920F931F9381E080935A031092DF0892
:103000001092E0081092E1081092E20880E090E04F
:10301000DC018093C5089093C608A093C708B093BD
:10302000C8088EEA9CEDA2E4BEE380935B03909314
:103030005C03A0935D03B0935E0387E790E00E947A
:103040006237882389F48091FB069091FC06A09159
:10305000FD06B091FE0688608093FB069093FC0607
:10306000A093FD06B093FE0687E790E06AEA0E940F
:10307000DD368CE69DE067E770E046E150E00E94B7
:1030800093430E9422379093CA088093C9080E94F4
:1030900022379093CC088093CB080E9422379093DC
:1030A000CE088093CD080E9403379093D008809378
:1030B000CF080E9403379093D2088093D1080E94D2
:1030C00003379093D4088093D3080E9422379093BB
:1030D000D6088093D5080E9422379093D808809311
:1030E000D7080E9422379093DA088093D9080E946B
:1030F00022379093DC088093DB080E94223790935C
:10310000DE088093DD080E9429151092EC081092C9
:10311000EB080E94AF1765E070E080E090E00E944D
:103120005E3B0E94AF176AE070E080E090E004C070
:103130006AE170E080E090E00E945E3B0E94B4177C
:10314000A090C508B090C608C090C708D090C80825
:103150006091C1087091C2088091C3089091C40821
:10316000A60195010E94E5457B018C017F2D912FE1
:1031700020E030E0A9010E949F4818166CF46E2DE3
:103180007F2D802F912F20E030E040E251E40E941B
:103190009F4818166CF20CC06E2D7F2D802F912F3A
:1031A00020E030E040E251EC0E94C34687FDC0CFF2
:1031B000A092BD08B092BE08C092BF08D092C008CD
:1031C0001F910F91FF90EF90DF90CF90BF90AF9045
:1031D0000895EF92FF920F931F937B018C0120E0E3
:1031E00030E048EC52E40E94AA480E9437477093AE
:1031F000600360935F03C801B7012DEC3CEC4CE821
:103200005FE30E94AA4820E030E048EC52E40E94CC
:10321000AA480E94374770936203609361031F912D
:103220000F91FF90EF9008959091F2088917E0F4C4
:1032300090E027E130E0829FF001839FF00D929FA4
:10324000F00D1124ED59FC4F80EB94E097838683B9
:103250008CEA96E291878087108A1786128A118AF3
:10326000138A148A158A168A089590E027E130E0BF
:10327000829FF001839FF00D929FF00D1124ED5974
:10328000FC4F8181882379F48681978121E0843FF6
:10329000920730F023E08C35920720F482E0089505
:1032A00081E0089583E008951F93182F0E94351937
:1032B000412F50E027E130E0429FF001439FF00DA5
:1032C000529FF00D1124ED59FC4F90E040915F03A7
:1032D00050916003849F9001859F300D949F300D25
:1032E000112481E0468157814217530708F080E09E
:1032F0001F9108951F93182F0E943519412F50E0F8
:1033000027E130E0429FF001439FF00D529FF00D06
:103310001124ED59FC4F90E04091610350916203FC
:10332000849F9001859F300D949F300D112481E082
:10333000468157814217530708F080E01F91089596
:103340002F923F924F925F926F927F929F92AF9295
:10335000BF92CF92DF92EF92FF920F931F93DF9372
:10336000CF9300D000D0CDB7DEB71092F308109203
:10337000F40823E633E000E010E0A12C44E0B42E92
:10338000C12CD12C2C016624772499249394190103
:1033900049825A826B827C829AC0F10180810E94AC
:1033A000AF3A9C01B901882777FD8095982FF101EC
:1033B00022813381442737FD4095542F0E94984A3B
:1033C000A60195010E94EC4AF10184819581820F4A
:1033D000931F97838683208531858217930710F486
:1033E00091878087F10182858F3F09F45BC00E943D
:1033F000AF3A7C01F10163857485882777FD80955C
:10340000982F2AE030E040E050E00E94984A97016F
:10341000442737FD4095542F0E94984AA6019501F4
:103420000E94EC4A29013A01F10125853685C9013E
:10343000880F991FA3E0220F331FAA95E1F7820F8F
:10344000931F840D951D908B8787218932892817BA
:10345000390714F4928B818BF10167857089882775
:1034600077FD8095982F2BE530E040E050E00E94FA
:10347000984A29813A814B815C810E94984A20E0D8
:1034800030E840E050E00E94EC4AF10183899489E1
:10349000A589B689820F931FA41FB51F838B948BB8
:1034A000A58BB68BE02E802F0E945419882311F033
:1034B0009092F3088E2D0E947A19882311F0909231
:1034C000F4080F5F1F4F27E130E0220E331E80917A
:1034D000F20890E0081719070CF45FCF0F900F90D7
:1034E0000F900F90CF91DF911F910F91FF90EF9070
:1034F000DF90CF90BF90AF909F907F906F905F9044
:103500004F903F902F900895CF93DF938093F208D0
:10351000CB01BA010E94E918C0E0D0E004C08C2FB2
:103520000E94141921968091F20890E0C817D907DB
:10353000B4F380E090E00E94A019DF91CF9108954C
:10354000CF93DF93E0914403F09145032091F90874
:103550003091FA082230310524F0B901759567954C
:1035600008C0C90162E070E00E94B74A7095619599
:103570007F4FE61BF70B6091F7087091F808DF01A9
:10358000A61BB70B4091F5085091F60880917A037D
:10359000C82FD0E0C29FC001C39F900DD29F900D55
:1035A00011249A01281B390B2A0F3B1F30938208E4
:1035B000209381089C01241B350B2A0F3B1F30935D
:1035C000840820938308E60FF71F9C01240F351F02
:1035D0002E0F3F1F3093880820938708E41BF50BBC
:1035E000E81BF90BF0938608E0938508DF91CF91F3
:1035F00008954F925F926F927F928F929F92AF92B7
:10360000BF92CF92DF92EF92FF920F931F93DF93BF
:10361000CF9300D000D0CDB7DEB78C011A821982CB
:1036200093E0C92ED12CC00ED11ED801A450BF4F9B
:103630008C91813009F4E6C182E0E82EF12CE00E95
:10364000F11E6130E9F0613008F459C0693009F0C9
:10365000B1C1D80113966C931397809144051496C9
:103660008C9314978091450515968C9315978091AE
:10367000460516968C9316971796EFE7F7E064C108
:10368000F801638380914405848380914505858397
:103690008091460586836091C1087091C20880912F
:1036A000C3089091C40820E030E048EC52E40E9446
:1036B000AA480E9437477C836B83D80117966C9386
:1036C00017978C8118968C936091BD087091BE08F5
:1036D0008091BF089091C00820E030E048EC52E4AF
:1036E0000E94AA480E9437477C836B83F801618758
:1036F0008C818287D8011B96E7E8F7E001C1BDEF16
:10370000CB2ED12CC00ED11EF601A081B181ED913E
:10371000FC9111970280F381E02DCD01B70141E0CA
:1037200050E00995D6018D919C91DC01ED91FC91C1
:103730000190F081E02D60E0099520E030E04AE75B
:1037400050E0249FC001259F900D349F900D1124BF
:10375000FC01E458FC4FDF010D900020E9F71197C0
:10376000AE1BBF0B8F569C4FFC0101900020E9F768
:103770003197E81BF90B89819A8103968A0F9B1F69
:103780008E0F9F1F9A8389832F5F3F4F2330310510
:10379000C1F6ADEFAA2EB12CA00EB11EF501A0818D
:1037A000B181ED91FC9111970280F381E02DCD0163
:1037B000BE016F5F7F4F42E050E00995E980FA80DB
:1037C00000E010E083EA90E0A0E0B0E0E80EF91E2F
:1037D0000A1F1B1FFBE78F2EF3E09F2ECC24DD2456
:1037E000EAE74E2E512CD5018D919C91DC01ED9193
:1037F000FC910190F081E02DD4016C910995F401C8
:103800008081E80EF11C011D111DC49CB001C59CF6
:10381000700DD49C700D112464587C4FFB0104C0C2
:10382000E80EF11C011D111DAF0181918823C1F724
:10383000F501A081B181ED91FC911197C49C3001FB
:10384000C59C700CD49C700C1124C30184589C4FEF
:10385000481B590B0280F381E02DCD010995D5015C
:103860008D919C91DC01ED91FC910190F081E02D16
:1038700060E00995B3016F567C4FFB0104C0E80E70
:10388000F11C011D111DAF0181918823C1F7F501C4
:10389000A081B181ED91FC911197C49CC001C59CA0
:1038A000900DD49C900D11248F569C4F481B590BA2
:1038B0000280F381E02DCD010995D5018D919C9178
:1038C000DC01ED91FC910190F081E02D60E0099523
:1038D0000894C11CD11CEAE7F0E08E0E9F1EF3E0B5
:1038E000CF16D10409F07FCFD5018D919C91DC01D9
:1038F000ED91FC910190F081E02D6E2D099582C033
:1039000081918D9387E0EB38F807D1F780914403DC
:10391000D8011F968C931F978091450350968C93E6
:1039200050978091810851968C935197809182088D
:1039300052968C93529780915D0553968C93539732
:1039400074E1C72ED12C33C081918D9387E0E33889
:10395000F807D1F7D8011B9681918D9397E0E7384E
:10396000F907D1F7D8011F9681918D9387E0EB3845
:10397000F807D1F7D8015396E6E4F7E081918D93EB
:1039800097E0EA34F907D1F7D801579681918D93E2
:1039900087E0EE34F807D1F7D8015B9681918D93DB
:1039A00097E0E235F907D1F76FE1C62ED12CC00EB2
:1039B000D11E02C0662331F1970180E090E0DC0166
:1039C00007C0F90141919F01840F911DA11DB11DF7
:1039D0002C153D05B0F3F6018083D801A350BF4FED
:1039E0000D90BC91A02D8D919C911197A8014095AF
:1039F00050954C0D5D1DFC0122813381CD01B70135
:103A0000F90109950F900F900F900F90CF91DF91D2
:103A10001F910F91FF90EF90DF90CF90BF90AF90EC
:103A20009F908F907F906F905F904F9008958F92AE
:103A30009F92AF92BF92DF92EF92FF920F931F93EC
:103A4000CF93DF93FC01E450FF4F21E02083DD247E
:103A5000D394EC01C350DF4F8881998160E072E01C
:103A60000E9402020E942A3B4B015C011FC0888118
:103A70009981DC01ED91FC910680F781E02D09959B
:103A80008E33910531F489EA9CE06EE30E940A418D
:103A90001FC04701580188819981DC01ED91FC919B
:103AA0000480F581E02D0995009709F70E942A3BD3
:103AB0007B018C01D501C401C296A11DB11DE81680
:103AC000F9060A071B0738F3D394BD2DB63021F64B
:103AD00089EA9CE065E072E00E942741DF91CF9186
:103AE0001F910F91FF90EF90DF90BF90AF909F904C
:103AF0008F900895CF93DF93EC0180E260E00E9405
:103B0000893C61E070E080E090E00E945E3B80E2F2
:103B100061E00E94893C64E170E080E090E00E94F6
:103B20005E3BFE01E450FF4F1082CE0160E00E9438
:103B3000F91ADF91CF910895CF93DF93EC01862F8F
:103B4000BA01A90193EA9A83FE01E450FF4F108263
:103B5000813071F0813040F0823081F0FE01E3501D
:103B6000FF4F8330A1F410C0FE01E350FF4F0FC0A0
:103B7000FE01E350FF4F88EC9CE00BC0FE01E350D8
:103B8000FF4F87EE9CE005C086E09DE002C089EA19
:103B90009CE091838083FE01E350FF4F80819181FF
:103BA0000E947A3FCE010E947A1DDF91CF91089545
:103BB000EF92FF920F931F93CF93DF938C01FC0141
:103BC000E450FF4F80818823B9F53EC089EA9CE02C
:103BD0000E94F03C682F8E3721F4C8010E947A1DA4
:103BE0000AC0A881B981ED91FC9111970190F081F3
:103BF000E02DCD01099589EA9CE00E94C13C009727
:103C000029F70EC088819981DC01ED91FC91068035
:103C1000F781E02D0995682F89EA9CE00E94263DF6
:103C200088819981DC01ED91FC910480F581E02D82
:103C30000995009729F0E6CF7F01E801C350DF4FD7
:103C4000F70180818130B9F2DF91CF911F910F91FF
:103C5000FF90EF900895CF92DF92EF92FF920F9333
:103C60001F93CF93DF9380915D05813009F08BC066
:103C70000E94B6147B018C0120E030E04AE754EC4E
:103C80000E94C346882309F47EC060915805709154
:103C9000590580915A0590915B05A80197010FE3A2
:103CA00016E00E9413020E943247C0914C03D0914B
:103CB0004D036C177D074CF020914E0330914F035C
:103CC000EB01261737070CF4E90100914A03109124
:103CD0004B03E0900508F0900608C8018E199F0973
:103CE00097FF03C0909581959F4F20914803309195
:103CF00049032817390724F482E080935D053CC00E
:103D0000C0904603D0904703C601800F911F8E15C7
:103D10009F05B4F4609158057091590580915A053A
:103D200090915B052AE037ED43E25CE30E94E645B3
:103D3000609358057093590580935A0590935B05DD
:103D4000C8018C199D09E816F906B4F4609158056C
:103D50007091590580915A0590915B052AE037EDE5
:103D600043E25CE30E94E545609358057093590572
:103D700080935A0590935B05C00FD11FD0934503E4
:103D8000C093440308C08091050890910608909361
:103D9000450380934403DF91CF911F910F91FF90D2
:103DA000EF90DF90CF9008958F929F92AF92BF9245
:103DB000CF92DF92EF92FF920F931F93809129058C
:103DC000813009F07BC06091FF07709100088091FD
:103DD000F9079091FA07681B790B882777FD809582
:103DE000982F0E94654726EA3BE944EC5AE30E947B
:103DF000AA4820915F073091600740916107509178
:103E0000620703EB15E00E9413026B017C016091D5
:103E10000108709102088091FB079091FC07681BD4
:103E2000790B882777FD8095982F0E94654726EAB1
:103E30003BE944EC5AE30E94AA4820916307309181
:103E40006407409165075091660750580FEC15E0E4
:103E50000E9413024B015C016091FF067091000704
:103E600080910107909102072AE939E949E95FE366
:103E70000E94AA489B01AC01C701B60107E016E009
:103E80000E9413020E9432477093F6086093F5086F
:103E900060910307709104078091050790910607D0
:103EA00090582AE939E949E95FE30E94AA489B0151
:103EB000AC01C501B40103E216E03BC080E00E9402
:103EC000770F7B018C016091FF0670910007809154
:103ED0000107909102072DEC3CEC4CE45FE30E945B
:103EE000AA489B01AC01C801B7010FE515E00E948B
:103EF00013020E9432477093F6086093F50881E040
:103F00000E94770F7B018C01609103077091040779
:103F1000809105079091060790582DEC3CEC4CE4FD
:103F20005FE30E94AA489B01AC01C801B7010BE7FF
:103F300015E00E9413020E9432477093F8086093C4
:103F4000F7081F910F91FF90EF90DF90CF90BF90F7
:103F5000AF909F908F900895809128058330D1F085
:103F60008530A1F1813019F480ED97E002C088EE30
:103F700093E09093820880938108909384088093C3
:103F8000830890938608809385089093880880938F
:103F9000870838C080913E0390913F039C0144E024
:103FA000813B940714F020EB34E0E1E8F8E043E0D3
:103FB000883E940714F0A90102C048EE53E04193F3
:103FC000519348E0E938F40791F71CC0EBE0F9E0C1
:103FD000A1E8B8E08191919123E0883E92073CF0FE
:103FE00044E0813B94072CF080EB94E002C088EE23
:103FF00093E08D939D9389E0E331F80759F781E0D1
:10400000809331050E94861108956F927F928F925E
:104010009F92AF92BF92CF92DF92EF92FF920F9357
:104020001F93CF93DF93C0914403D09145036091D8
:104030005F0770916007809161079091620725E3A7
:104040003AEF4EE85CE30E94AA480E94C7465B0133
:104050006C0160916307709164078091650790918E
:10406000660725E33AEF4EE85CE30E94AA480E9407
:10407000C7467B018C01BE01882777FD8095982F6C
:104080000E9465473B014C01C601B501A80197019B
:104090000E94AA489B01AC01C401B3010E94CA4618
:1040A0000E9432476C1B7D0B613A710514F060EA87
:1040B00070E080912605909127058C0F9D1F77FF5A
:1040C00002C060E070E0680F791F83E0683E780707
:1040D0003CF087E06B3378072CF06AE377E002C0AE
:1040E00068EE73E07093450360934403DF91CF91D2
:1040F0001F910F91FF90EF90DF90CF90BF90AF9006
:104100009F908F907F906F9008952F923F924F9243
:104110005F926F927F928F929F92AF92BF92CF9257
:10412000DF92EF92FF920F931F93DF93CF93CDB760
:10413000DEB727970FB6F894DEBF0FBECDBF8091D4
:104140002E0590912F05E1E8F8E0DF0140E050E016
:104150002D913D9161E077E0203D37070CF460E060
:10416000562B61E0821793070CF460E0462B28E0A1
:10417000A938B20769F75523B1F4209132052223FB
:1041800091F090930409809303099093060980931A
:104190000509909308098093070990930A09809371
:1041A0000909109232054423C1F480913305882314
:1041B000A1F080ED97E09093FC088093FB0890932A
:1041C000FE088093FD08909300098093FF08909368
:1041D00002098093010910923305209081083090E4
:1041E0008208409083085090840860908508709001
:1041F0008608809087089090880840912E055091FD
:104200002F055C834B8330913205A0900309B09059
:104210000409C0900509D0900609E0900709F090C4
:1042200008090091090910910A092091330590911C
:10423000FB085091FC085D837091FD086091FE08B9
:104240005091FF0840910009809101098983A09154
:104250000209AA83B92FAD815F834E838191919129
:1042600047E0803D94073CF0332329F48401730137
:104270006201510131E04B815C81481759075CF0C4
:10428000222349F489829A826F827E82742D652D61
:10429000B22DA32D21E058E0E938F507F9F65F814A
:1042A0004E8130933205A0920309B0920409E5E0F3
:1042B000F9E0C0920509D182E0920709F3820093E8
:1042C0000909158320933305B093FB08A093FC08DC
:1042D000EDEFF8E07093FD0861835093FF0843838E
:1042E0007981709301098A81858327960FB6F894A6
:1042F000DEBF0FBECDBFCF91DF911F910F91FF9019
:10430000EF90DF90CF90BF90AF909F908F907F9075
:104310006F905F904F903F902F9008956F927F9293
:104320008F929F92AF92BF92CF92DF92EF92FF92C5
:104330000F931F9380911805813009F067C1609138
:104340006707709168078091690790916A0721EE6D
:104350003EE245E652E40E94AA487B018C01862F8A
:104360009F2DA02FB12F80931D0590931E05A09324
:104370001F05B0932005A090120AB090130AC090B8
:10438000140AD090150A6E2D7F2D802F912FA60133
:1043900095010E94E545962E872E782E692EA40160
:1043A0009301852F942FA32FB22F809321059093F3
:1043B0002205A0932305B0932405C601B50120E092
:1043C00030E044E353E40E94E5459B01AC016E2DCF
:1043D0007F2D802F912F0E94C3461816A4F0A401B0
:1043E0009301652F742F832F922F20E030E044EB50
:1043F00053E40E94E6456093210570932205809363
:10440000230590932405C601B50120E030E044E384
:1044100053E40E94E6459B01AC016E2D7F2D802F59
:10442000912F0E949F4887FD16C0609121057091D1
:104430002205809123059091240520E030E044EB93
:1044400053E40E94E5456093210570932205809313
:10445000230590932405809105089091060824E097
:104460008D3492070CF4B3C0809103089091040836
:10447000835C95408333910510F18E2D9F2DA02FE5
:10448000B12F8093120A9093130AA093140AB09349
:10449000150A80E090E0DC018093190590931A05DD
:1044A000A0931B05B0931C058093FF059093000615
:1044B000A0930106B09302061092250577C0A09044
:1044C0002105B0902205C0902305D0902405C60197
:1044D000B50120E030E040E85EE30E94C34687FF7C
:1044E0000BC0C601B50120E030E040E85EEB0E9461
:1044F0009F4818160CF477C080912505882309F091
:1045000044C08091440590914505A0914605B09125
:1045100047052091160A3091170A4091180A5091C8
:10452000190A5C016D01A21AB30AC40AD50AA601D0
:104530009501213261EA360767E0460760E05607D9
:1045400008F464C021E0209325058093160A909317
:10455000170AA093180AB093190A8E2D9F2DA02F29
:10456000B12F8093120A9093130AA093140AB09368
:10457000150A80E090E0DC018093190590931A05FC
:10458000A0931B05B0931C0541C060E070E0CB0117
:10459000A60195010BEE15E00E9413026093190528
:1045A00070931A0580931B0590931C058091440518
:1045B00090914505A0914605B09147058093160A54
:1045C0009093170AA093180AB093190A1FC08E2D52
:1045D0009F2DA02FB12F8093120A9093130AA093BE
:1045E000140AB093150A80E090E0DC01809319056D
:1045F00090931A05A0931B05B0931C058093FF05AB
:1046000090930006A0930106B093020682E00E94F8
:10461000770F7B018C016091190570911A058091CB
:104620001B0590911C0525E33AEF4EE85CE30E94E0
:10463000AA489B01AC01C801B7010E94E645F62ECD
:10464000072F182FE92E2BED3FE049E450EC0E9494
:10465000C34687FD13C06F2D702F812F9E2D2BED2C
:104660003FE049E450E40E949F4818166CF45BED6B
:10467000F52E0FE019E440E4E42E06C03BEDF32EE6
:104680000FE019E420ECE22E209107073091080793
:104690004091090750910A076F2D702F812F9E2D91
:1046A00007E915E00E9413020E9432477093FA084E
:1046B0006093F9081F910F91FF90EF90DF90CF90DA
:1046C000BF90AF909F908F907F906F900895CF9301
:1046D000DF930E94D41E0E948E2180912A0580FDC6
:1046E00004C00E942B1E0E94052080913005882363
:1046F00031F080913105882311F00E94A01A0E94A8
:104700008520809105089091060824E08C3492075A
:10471000A4F480912E0590912F059093FC0880932E
:10472000FB089093FE088093FD0890930009809306
:10473000FF089093020980930109C3E0D9E0A1E842
:10474000B8E0EBEFF8E02D913C91119789919991A8
:104750002817390734F080819181281739070CF424
:10476000C9018D939D93329689E0CB30D80759F7D4
:1047700080913005882311F40E94AC1F8091300590
:10478000813031F480913105813011F40E9486111D
:10479000DF91CF910895CF92DF92EF92FF920F9326
:1047A0001F93DF93CF9300D000D0CDB7DEB7C82ED4
:1047B000D92E8E010F5F1F4F65E0E62EF12CEC0E17
:1047C000FD1E85E29DE0B6010E94E242F801819360
:1047D0008F010894C11CD11CEE15FF0591F759817A
:1047E0004A813B812C81652F742F832F922F0F904C
:1047F0000F900F900F90CF91DF911F910F91FF902D
:10480000EF90DF90CF900895CF92DF92EF92FF92DA
:104810000F931F93DF93CF9300D000D0CDB7DEB7B7
:1048200069837A838B839C838E010F5F1F4FE42EF5
:10483000F52E75E0C72ED12CCC0EDD1EF80141916E
:104840008F0185E29DE0B7010E94E6420894E11CD9
:10485000F11C0C151D0591F70F900F900F900F9004
:10486000CF91DF911F910F91FF90EF90DF90CF904C
:104870000895EF92FF920F931F93CF93DF938B01D5
:10488000E82EFF24CB010E94CB232CE130E0E29EF6
:10489000E001E39ED00DF29ED00D1124C15ADA4FF3
:1048A000688379838A839B83C80104960E94CB2303
:1048B0006C837D838E839F83C80108960E94CB23DF
:1048C000688779878A879B8780E090E0DC018C8706
:1048D0009D87AE87BF878C8B9D8BAE8BBF8BDF9107
:1048E000CF911F910F91FF90EF9008950F931F9319
:1048F000CF93DF938B0190E02CE130E0829FE001C9
:10490000839FD00D929FD00D1124C15ADA4F688138
:1049100079818A819B81A8010E9404246C817D8118
:104920008E819F81A8014C5F5F4F0E94042468859F
:1049300079858A859B85A801485F5F4F0E94042482
:10494000DF91CF911F910F910895AF92BF92CF92B7
:10495000DF92EF92FF920F931F93CF93DF930F2E6F
:10496000F0E0EF2EF0E0FF2EF8EC0F2FF2E41F2F17
:10497000F02DE0925F05F0926005009361051093C1
:10498000620580E090E0DC0180936305909364050C
:10499000A0936505B093660520E030E046E953EC4E
:1049A00020936705309368054093690550936A0525
:1049B000E0927B05F0927C0500937D0510937E05C7
:1049C00080937F0590938005A0938105B093820525
:1049D0002093830530938405409385055093860585
:1049E0000F2EF0E0AF2EF0E0BF2EF8E4CF2EF3E470
:1049F000DF2EF02DA0929705B0929805C0929905F0
:104A0000D0929A050F2EF0E0AF2EF0E0BF2EF0EA24
:104A1000CF2EF0E4DF2EF02DA0929B05B0929C05E6
:104A2000C0929D05D0929E0580939F059093A0050E
:104A3000A093A105B093A2050F2EF0E0AF2EF0E0F9
:104A4000BF2EF0E8CF2EF0E4DF2EF02DA092B305BC
:104A5000B092B405C092B505D092B6058093B70563
:104A60009093B805A093B905B093BA058093BB05A0
:104A70009093BC05A093BD05B093BE05A092CF0551
:104A8000B092D005C092D105D092D2058093D305C3
:104A90009093D405A093D505B093D6058093D70500
:104AA0009093D805A093D905B093DA050F2EF0E0C6
:104AB000AF2EF0E0BF2EF0E4CF2EF0E4DF2EF02D8D
:104AC000A092EB05B092EC05C092ED05D092EE05F8
:104AD0000F2EFDECAF2EFCECBF2EFCECCF2EFDE339
:104AE000DF2EF02DA092EF05B092F005C092F105F7
:104AF000D092F2058093F3059093F405A093F50509
:104B0000B093F605E0920706F092080600930906B6
:104B100010930A0680930B0690930C06A0930D0643
:104B2000B0930E0620930F063093100640931106A3
:104B300050931206E0922306F09224060093250675
:104B4000109326068093270690932806A0932906A3
:104B5000B0932A0620932B0630932C0640932D0603
:104B600050932E0620E030E048EC51E420933F06BD
:104B70003093400640934106509342060F2EFAE9C7
:104B8000EF2EF9E9FF2EF9E10F2FFFE31F2FF02D94
:104B9000E0924306F09244060093450610934606C1
:104BA0008093470690934806A0934906B0934A061F
:104BB00020935706309358064093590650935A064F
:104BC00080935B0690935C06A0935D06B0935E06AF
:104BD00080935F0690936006A0936106B09362068F
:104BE0008093630690936406A0936506B09366066F
:104BF0002EEC3FEF30934D0320934C0322E330E043
:104C000030934F0320934E03A0925603B092570364
:104C1000C0925803D09259032AE530E030934703FD
:104C2000209346032AEF30E0309349032093480352
:104C300020E030E040E85FE320932A0730932B0721
:104C400040932C0750932D07809336079093370796
:104C5000A0933807B093390720932E0730932F077E
:104C6000409330075093310780933A0790933B0766
:104C7000A0933C07B0933D0720933207309333074E
:104C8000409334075093350780933E0790933F0736
:104C9000A0934007B09341078093B1089093B20866
:104CA000A093B308B093B4088093B5089093B60866
:104CB000A093B708B093B8088093B9089093BA0846
:104CC000A093BB08B093BC0880E090E0AAE7B4E4EE
:104CD0008093770690937806A0937906B0937A062E
:104CE0008093770590937805A0937905B0937A0522
:104CF0008093930590939405A0939505B0939605A2
:104D00008093AF059093B005A093B105B093B20521
:104D10008093CB059093CC05A093CD05B093CE05A1
:104D20008093E7059093E805A093E905B093EA0521
:104D30008093030690930406A0930506B09306069D
:104D400080931F0690932006A0932106B09322061D
:104D500080933B0690933C06A0933D06B0933E069D
:104D60008093730690937406A0937506B0937606AD
:104D70002093E5073093E6074093E7075093E80751
:104D80008EE794E090932F0580932E052093500397
:104D90003093510340935203509353038AE098EEAB
:104DA000ACE1B1EC8093420790934307A093440792
:104DB000B0934507EFE1F8E06FE378E0AFE5EA2E66
:104DC000A8E0FA2EDA01C90120E030E0A9018193C0
:104DD0009193A193B193EB012993399349935993FB
:104DE000BE01E70189939993A993B9937E0118E0D5
:104DF000E733F10761F780E090E0A0E0BFE3809344
:104E0000670890936808A0936908B0936A081092A5
:104E1000290581E08093180580E090E0A0EAB0E4E5
:104E20008093140590931505A0931605B09317056C
:104E300088EB9EE1A5E5B0E48093340390933503BD
:104E4000A0933603B09337038AEA95E09093390331
:104E50008093380380E69AEEA0E0B0E080933A03B6
:104E600090933B03A0933C03B0933D03DF91CF911C
:104E70001F910F91FF90EF90DF90CF90BF90AF9078
:104E8000089580E060E070E00E94392481E064E2EF
:104E900070E00E94392482E068E170E00E943924C9
:104EA00083E06CE070E00E94392484E060E370E00D
:104EB0000E94392485E06CE370E00E94392486E08A
:104EC00068E470E00E94392487E064E570E00E94A5
:104ED000392488E060E670E00E94392480EF90E099
:104EE0000E94CB236093570670935806809359060F
:104EF00090935A0688EE90E00E94CB230E9432479E
:104F000070934D0360934C0384EE90E00E94CB239A
:104F10000E94324770934F0360934E038CEE90E0F3
:104F20000E94CB23609356037093570380935803DA
:104F30009093590384EF90E00E94CB230E94324764
:104F4000709347036093460388EF90E00E94CB2361
:104F50000E943247709349036093480389E06CE6EE
:104F600070E00E94392484E191E00E94CB23609399
:104F70002A0770932B0780932C0790932D0780E1CD
:104F800091E00E94CB23609336077093370780939C
:104F90003807909339078CE191E00E94CB2360930E
:104FA0002E0770932F07809330079093310788E185
:104FB00091E00E94CB2360933A0770933B07809364
:104FC0003C0790933D0784E291E00E94CB236093DD
:104FD000320770933307809334079093350780E24C
:104FE00091E00E94CB2360933E0770933F0780932C
:104FF00040079093410788E291E00E94CB236093A1
:10500000B1087093B2088093B3089093B4088CE20F
:1050100091E00E94CB236093B5087093B60880930B
:10502000B7089093B80880E391E00E94CB23609387
:10503000B9087093BA088093BB089093BC0884E3C6
:1050400091E00E94CB2360933403709335038093E7
:1050500036039093370388E391E00E94CB230E94AC
:10506000324770933903609338038CE391E00E94D8
:10507000CB230E94374760933A0370933B0380939E
:105080003C0390933D0384EC90E00E94CB2360931B
:105090007706709378068093790690937A066093EA
:1050A0007705709378058093790590937A056093DE
:1050B000930570939405809395059093960560935E
:1050C000AF057093B0058093B1059093B2056093DE
:1050D000CB057093CC058093CD059093CE0560935E
:1050E000E7057093E8058093E9059093EA056093DE
:1050F000030670930406809305069093060660935A
:105100001F067093200680932106909322066093D9
:105110003B0670933C0680933D0690933E06609359
:1051200073067093740680937506909376068CECE4
:1051300090E00E94CB230E94324770932F0560932A
:105140002E0584ED90E00E94CB23609314057093AC
:105150001505809316059093170588ED90E00E9441
:10516000CB230E9437476093290580EE90E00E9490
:10517000CB23609342077093430780934407909337
:1051800045078CED90E00E94CB230E943747609347
:1051900018050895AF92BF92CF92DF92EF92FF92DF
:1051A0000F931F93CF93DF93F89480E060E070E05B
:1051B0000E94762481E064E270E00E94762483E01D
:1051C0006CE070E00E94762484E060E370E00E946E
:1051D000762482E068E170E00E94762485E06CE34A
:1051E00070E00E94762486E068E470E00E947624F5
:1051F00087E064E570E00E94762488E060E670E075
:105200000E94762460915706709158068091590645
:1052100090915A0640EF50E00E94042460914C03A4
:1052200070914D03882777FD8095982F0E946547E0
:1052300048EE50E00E94042460914E0370914F03A9
:10524000882777FD8095982F0E94654744EE50E0AF
:105250000E94042460915603709157038091580373
:10526000909159034CEE50E00E9404246091460353
:1052700070914703882777FD8095982F0E94654796
:1052800044EF50E00E940424609148037091490368
:10529000882777FD8095982F0E94654748EF50E05A
:1052A0000E94042489E06CE670E00E9476246091FC
:1052B0002A0770912B0780912C0790912D0744E1CC
:1052C00051E00E9404246091360770913707809165
:1052D00038079091390740E151E00E940424609121
:1052E0002E0770912F0780913007909131074CE184
:1052F00051E00E94042460913A0770913B0780912D
:105300003C0790913D0748E151E00E9404246091E0
:10531000320770913307809134079091350744E24A
:1053200051E00E94042460913E0770913F078091F4
:1053300040079091410740E251E00E9404246091AF
:10534000B1087091B2088091B3089091B40848E216
:1053500051E00E9404246091B5087091B6088091D4
:10536000B7089091B8084CE251E00E940424609183
:10537000B9087091BA088091BB089091BC0840E3CD
:1053800051E00E9404246091770670917806809124
:10539000790690917A0644EC50E00E9404246091D2
:1053A000E5077091E6078091E7079091E80748ECE0
:1053B00050E00E9404246091500370915103809149
:1053C00052039091530340ED50E00E9404245FE1AA
:1053D000E52E58E0F52E4FE3C42E48E0D42E3FE5ED
:1053E000A32E38E0B32E00E010E0F7016191719137
:1053F000819191917F01E801CC0FDD1FC00FD11F7A
:10540000CC0FDD1FCC0FDD1FAE0148585F4F0E944F
:105410000424F60161917191819191916F01AE0126
:1054200044585F4F0E940424F5016191719181916C
:1054300091915F01AE0140585F4F0E9404240F5FBD
:105440001F4F0630110589F660912E0570912F05CA
:10545000882777FD8095982F0E9465474CEC50E097
:105460000E94042460911405709115058091160521
:105470009091170544ED50E00E94042460912905A5
:1054800070E080E090E00E94634748ED50E00E94A9
:1054900004246091180570E080E090E00E9463476A
:1054A0004CED50E00E940424609142077091430744
:1054B000809144079091450740EE50E00E940424FB
:1054C00060E070E080E490E440EC50E00E9404244E
:1054D00060913403709135038091360390913703C6
:1054E00044E351E00E940424609138037091390331
:1054F000882777FD8095982F0E94654748E351E003
:105500000E94042460913A0370913B0380913C0314
:1055100090913D030E9463474CE351E00E940424B4
:1055200060E070E0CB0140E451E00E94042460E0C0
:1055300070E0CB0144E451E00E9404247894DF91B0
:10554000CF911F910F91FF90EF90DF90CF90BF9080
:10555000AF90089584E091E00E94CB230E943247EF
:1055600070930C0760930B0788E091E00E94CB23B7
:105570000E94324770930E0760930D078CE091E014
:105580000E94CB230E9432477093100760930F074D
:1055900080ED90E00E94CB23609350037093510301
:1055A000809352039093530380EE90E00E94CB23AC
:1055B0006093420770934307809344079093450795
:1055C000089560910B0770910C07882777FD8095EF
:1055D000982F0E94654744E051E00E9404246091A6
:1055E0000D0770910E07882777FD8095982F0E94F0
:1055F000654748E051E00E94042460910F077091D4
:105600001007882777FD8095982F0E9465474CE00A
:1056100051E00E94042460915003709151038091E5
:1056200052039091530340ED50E00E940424609196
:10563000420770914307809144079091450740EEDF
:1056400050E00E94042408951F930E94B01080919E
:1056500005089091060824E08C3492070CF06AC08B
:105660000E941B03809103089091040824E08C346D
:10567000920774F480913005813051F488EE93E004
:105680000E94E41184E060E00E94893C10923005A1
:10569000809103089091040824E08C349207DCF494
:1056A0008091FF079091000827E08D3692079CF0CB
:1056B000809101089091020824E08C3492075CF4F8
:1056C0000E9407070E946E080E94E12A0E941B03A5
:1056D00083E00E947D12809103089091040827E0E6
:1056E0008D369207A4F080913005882381F41091C3
:1056F0003105113061F40E941B038CE494E00E9498
:10570000E41184E061E00E94893C109330058091AF
:1057100003089091040824E08D3492071CF081E086
:105720008093310580913005813021F48CE494E040
:105730000E94E411809107089091080825E08D3DB2
:10574000920724F081E08093290502C01092290578
:105750008091090890910A0826E0863D92079CF501
:1057600080915D058230A1F180915C05882339F13B
:105770000E94B614609358057093590580935A059A
:1057800090935B05209105083091060830934B03F8
:1057900020934A0320E030E0A90120935306309380
:1057A0005406409355065093560660934B067093EB
:1057B0004C0680934D0690934E0610925C0581E056
:1057C00080935D0505C081E080935C0510925D05C6
:1057D0001F910895AF92BF92CF92DF92EF92FF9206
:1057E0000F931F93CF93DF9388EC90E00E94CB231D
:1057F0006093E5077093E6078093E7079093E807C7
:10580000AFE1EA2EA8E0FA2EFFE3CF2EF8E0DF2E7C
:10581000EFE5AE2EE8E0BE2E00E010E0E801CC0F90
:10582000DD1FC00FD11FCC0FDD1FCC0FDD1FCE0140
:1058300088589F4F0E94CB23F70161937193819306
:1058400091937F01CE0184589F4F0E94CB23F60194
:1058500061937193819391936F01CE0180589F4F13
:105860000E94CB23F50161937193819391935F0122
:105870000F5F1F4F0630110589F6DF91CF911F9101
:105880000F91FF90EF90DF90CF90BF90AF90089571
:10589000EF92FF920F931F93DF93CF93CDB7DEB7B5
:1058A0002F970FB6F894DEBF0FBECDBF19821A82B4
:1058B0001B821C82FE0135968BE0DF011D928A95CA
:1058C000E9F7EE24FF248E010F5F1F4F89EA9CE069
:1058D0000E94C13C009741F46AE070E080E090E0F3
:1058E0000E945E3BE3940AC089EA9CE00E94F03C7F
:1058F000F801EF0DF11D8083F394EE24FF2031F0C9
:10590000FE01EF0DF11D80818B3331F0BE2DBA30D9
:1059100018F48F2D8E30D0F2CE010196FC01EF0DE0
:10592000F11D10820E941F4B2F960FB6F894DEBF18
:105930000FBECDBFCF91DF911F910F91FF90EF90E0
:1059400008950F931F93CF93DF93082F10E00E94C9
:10595000482C2CE130E0029FE001039FD00D129F04
:10596000D00D1124C15ADA4F688379838A839B83CF
:105970000E94482C6C837D838E839F830E94482CD9
:10598000688779878A879B8780E090E0DC018C8735
:105990009D87AE87BF878C8B9D8BAE8BBF8BDF9136
:1059A000CF911F910F9108951F93182F0E94482C9B
:1059B00026E636EE46EF52E40E94C346882331F4D1
:1059C000109230051093280581E009C01092280537
:1059D00088EE93E090933F0380933E0380E01F9115
:1059E00008951F93CF93DF9389EA9CE00E94C13C06
:1059F000009709F4EBC189EA9CE00E94F03C809397
:105A0000E904992787FD9095A92FB92FC1978A326C
:105A1000910508F0DBC18E589F4FFC01EE0FFF1F70
:105A20000590F491E02D099480E00E94A12C81E082
:105A300077C083E00E94A12C84E00E94A12C86E024
:105A40000E94A12C87E00E94A12C0E94482C609308
:105A50007706709378068093790690937A06B6C19C
:105A600082E00E94A12C85E00E94A12C0E94482C7B
:105A70000E9437476093180580E090E0DC01809336
:105A80001D0590931E05A0931F05B09320058093DC
:105A9000210590932205A0932305B09324058093BC
:105AA000190590931A05A0931B05B0931C058EC190
:105AB00088E00E94A12C0E94482C609357067093A6
:105AC00058068093590690935A060E94482C0E94CB
:105AD000324770934703609346030E94482C0E940C
